:020000040800F2
:100000000050002001260008312300083923000891
:100010004123000849230008512300080000000084
:10002000000000000000000000000000592300084C
:100030006523000800000000712300087D230008EC
:1000400049260008492600084926000849260008D4
:1000500049260008492600084926000849260008C4
:1000600049260008492600084926000849260008B4
:1000700049260008492600084926000849260008A4
:100080004926000849260008492600084926000894
:100090004926000849260008492600084926000884
:1000A0004926000849260008492600084926000874
:1000B0004926000849260008492600084926000864
:1000C0004926000849260008492600084926000854
:1000D0004926000889230008492600089D230008B6
:1000E00049260008492600084926000800000000AB
:1000F0000000000000000000000000000000000000
:0C01000000000000000000005FF808F1A3
:10010C0010B5054C237833B9044B13B10448AFF345
:10011C0000800123237010BD64000020000000004B
:10012C008C4C000808B5034B1BB103490348AFF3D3
:10013C00008008BD00000000680000208C4C000806
:10014C00034613F8012B002AFBD1181A013870470B
:10015C0080B588B000AF07F1100300221A605A6016
:10016C009A60DA602E4B9B692D4A43F01003936121
:10017C002B4B9B6903F01003FB60FB68284B9B69BE
:10018C00274A43F020039361254B9B6903F020031E
:10019C00BB60BB68224B9B69214A43F00803936107
:1001AC001F4B9B6903F008037B607B681C4B9B69AE
:1001BC001B4A43F004039361194B9B6903F004033E
:1001CC003B603B6800224FF40051164802F002FEDF
:1001DC0000224FF48051144802F0FCFD4FF4005300
:1001EC003B6101237B610023BB610223FB6107F1AF
:1001FC00100319460B4802F069FC4FF480533B6125
:10020C0001237B610023BB610223FB6107F1100317
:10021C001946054802F05AFC00BF2037BD4680BD88
:10022C000010024000100140000C014080B500AFEE
:10023C000F4B1B78002B19D00E4B1B78002B15D1B4
:10024C00052002F05FFA0C4B1B881B0A9BB2DAB23A
:10025C00094B1B88DBB27521012001F0EDFE034632
:10026C00002B04D1024B00221A7000E000BF80BDAD
:10027C004F0100209F0000205001002080B582B06B
:10028C0000AF02F0DDF900F039F9FFF761FF02F081
:10029C00C5F802F0EDF800234FF480526D496E481A
:1002AC0001F086FE0346002B01D001F02DFE012249
:1002BC006A496B4803F091FA0346002B01D001F018
:1002CC0023FE684800F060F9674800F05DF9674864
:1002DC0000F05AF9664800F057F9664800F054F9F6
:1002EC00654800F051F9654800F04EF9644800F09B
:1002FC004BF9644800F048F9634800F045F963484D
:10030C0000F042F9624800F03FF9624800F03CF915
:10031C00614800F039F9614800F036F9604800F0A6
:10032C0033F9604800F030F95F4800F02DF95F4870
:10033C0000F02AF95E4800F027F95E4800F024F935
:10034C005D4800F021F95D4800F01EF901F016F847
:10035C005B4B1B78002B45D002F0CAF90246594B77
:10036C001B68D21A584B1B689A423BD3574B1B78CD
:10037C00272B03D0554B1B78162B01D1012300E002
:10038C000023FB71514B1B78142B09D1504B1B884C
:10039C00012B05D14F4B1B78002B01D0012300E022
:1003AC000023BB71464B00221A704B4B00221A7073
:1003BC00464B00221A70464B00221A80424B4FF4D7
:1003CC007A721A60BB79002B06D0424B00221A704D
:1003DC00424800F0D9F805E0FB79002B02D14048E7
:1003EC0000F0D2F800F0E2F900F02CFEFFF71EFF4F
:1003FC0000F050FE00F076FE00F0D4FE394B1B7876
:10040C00DBB2002B1CD02E4B1B78002B18D1364B9B
:10041C001B78002B14D1354B1B78002B10D1344B8F
:10042C001B78002B0CD12B4B1B78002B08D1314B9C
:10043C001B78002B04D12B4B00221A7000F0C8FA49
:10044C0000F004F92C4B1B78012B7FF47FAF00F0EC
:10045C000BFF7BE7000C0140DC0100208100002039
:10046C0094010020A44C0008C04C0008E84C000883
:10047C00044D0008244D00083C4D0008584D000860
:10048C00784D00089C4D0008B84D0008D84D000868
:10049C00F84D0008144E00082C4E0008444E00087D
:1004AC00704E0008884E0008A84E0008C44E000884
:1004BC00E04E0008FC4E0008184F00083C4F0008A6
:1004CC009F000020A400002000000020A1000020BC
:1004DC00A200002059010020A0000020584F000865
:1004EC00A04F00089E000020480100204F01002072
:1004FC00530100205A0100208000002080B590B0EC
:10050C0000AF07F1180328220021184603F022FF40
:10051C003B1D00221A605A609A60DA601A6101234E
:10052C00BB614FF48033FB6100233B620123BB6250
:10053C0002237B634FF48033BB634FF4E013FB6304
:10054C0007F11803184602F05DFC0346002B01D09E
:10055C0001F0DAFC0F237B600223BB600023FB60FD
:10056C004FF480633B6100237B613B1D02211846E5
:10057C0002F0CAFE0346002B01D001F0C5FC00BFFF
:10058C004037BD4680BD000080B582B000AF7860BA
:10059C007B68002B0AD07868FFF7D2FD03469AB22D
:1005AC0064237968034803F08DF800E000BF083736
:1005BC00BD4680BD9401002080B485B000AF78604A
:1005CC0039600023FB607B68002B06D03B68002B56
:1005DC0003D07B681B78002B28D100232FE07B688D
:1005EC001B782F2B03D97B681B78392B01D900235F
:1005FC0025E07B681B78303BBB60BB68C3F57F4351
:10060C00FF33114AA2FB0323DB08FA689A4201D993
:10061C00002314E0FA6813469B0013445B001A464F
:10062C00BB681344FB607B6801337B607B681B7881
:10063C00002BD4D1FB689AB23B681A800123184670
:10064C001437BD4680BC7047CDCCCCCC80B582B0C5
:10065C0000AF2E4B1B78022B4BD02D4B1B78002B55
:10066C0049D12C4B1B78DBB2002B46D102F040F861
:10067C003860294B1B683A68D31AB3F5FA7F3ED31E
:10068C00254A3B681360254B1B78022B04D10223AF
:10069C00FB711023BB7103E00123FB712023BB71A1
:1006AC00B979F8790023002201F0C6FC0346002B2F
:1006BC0027D1174B01221A70194AFB791370194A6A
:1006CC00BB791370184B00221A8002F011F8034604
:1006DC00164A1360164B64221A60104B1B78022BBF
:1006EC0003D10E4B01221A700CE00C4B02221A7033
:1006FC0008E000BF06E000BF04E000BF02E000BF5E
:10070C0000E000BF0837BD4680BD00BF8000002060
:10071C009F0000209E0000206001002005000020AA
:10072C00A0000020A1000020A2000020A4000020B6
:10073C000000002080B582B000AF7860134B1B78AE
:10074C00022B1ED0114B02221A70114B00221A7070
:10075C00104B00221A70104B00221A700F4B012202
:10076C001A700F48FFF710FF7B68002B0AD07B68CC
:10077C000C4AA0210C4803F0B7FD0B48FFF704FF0F
:10078C0000E000BF0837BD4680BD00BF80000020E0
:10079C00590100205A0100205B0100206401002057
:1007AC00C84F0008E84F0008A800002080B500AF33
:1007BC00364B1B78022B5FD1354B1B78002B5DD150
:1007CC00344B1B78032B50D0032B59DC012B02D05C
:1007DC00022B25D054E0002300221421022001F02A
:1007EC002BFC0346002B4DD1294B01221A702A4BAE
:1007FC0002221A70294B14221A70294B00221A80DB
:10080C0001F076FF0346274A1360274B4FF47A72A8
:10081C001A60204B02221A702448FFF7B5FE31E013
:10082C00002300222421012001F006FC0346002BAA
:10083C002AD1174B01221A70174B01221A70174B31
:10084C0024221A70164B00221A8001F051FF034625
:10085C00144A1360144B4FF47A721A600D4B032236
:10086C001A701348FFF790FE0EE00A4B00221A7024
:10087C001048FFF789FE08E000BF06E000BF04E067
:10088C0000BF02E000BF00E000BF80BD8000002080
:10089C009F00002064010020A0000020A100002087
:1008AC00A2000020A400002000000020F44F00084B
:1008BC00205000084050000890B585B000AF0446A9
:1008CC00084611461A462346FB710346BB710B467C
:1008DC007B7113463B71304B1B78002B03D02F4898
:1008EC00FFF752FE54E02E4B1B78002B0FD12D4BF3
:1008FC001B78002B0BD12C4B1B78002B07D12B4BCF
:10090C001B78002B03D12A4B1B78002B03D02948D2
:10091C00FFF73AFE3CE03B797A79B979F87901F046
:10092C008BFB0346FB73FB7B002B03D02248FFF7AA
:10093C002BFE2DE0184B01221A70204AFB79137004
:10094C001F4ABB7913707B791BB21B021AB23B791D
:10095C001BB213431BB29AB21A4B1A8001F0C8FE99
:10096C000346194A1360BB79222B02D0BB79232B87
:10097C0004D1164B43F698221A6003E0134B4FF444
:10098C007A721A603B6A002B02D0386AFFF7FCFDC2
:10099C001437BD4690BD00BF9F0000206C5000086E
:1009AC00480100204F010020530100205901002074
:1009BC005A010020A0500008D0500008A0000020D0
:1009CC00A1000020A2000020A400002000000020B4
:1009DC0080B586B002AF0023FB80A14B1B78002BA7
:1009EC0003D09F4B5B78002B03D19E48FFF7CCFDC7
:1009FC001AE39B4B1B78FB73994B5B78BB739A4B3D
:100A0C00BB60FB7B602B05D9FB7B7A2B02D8FB7B75
:100A1C00203BFB73BB7B602B05D9BB7B7A2B02D8AD
:100A2C00BB7B203BBB73FB7B542B06D0542B0DDCC8
:100A3C00432B05D04D2B06D008E002237B7309E035
:100A4C0001237B7306E000237B7303E08748FFF7E9
:100A5C009BFDE9E2BB7B413B132B00F2E18201A23F
:100A6C0052F823F0350D0008030F0008470E00085C
:100A7C00590F00082D100008C30E00082D10000897
:100A8C002D1000085D0C00082D1000082D1000081A
:100A9C002D100008650B0008ED0A00082D10000849
:100AAC00C10A00082D100008D50B0008950B000892
:100ABC00850E0008BB681B78002B03D06C48FFF731
:100ACC0063FDB1E27B7B022B01D16A4B00E06A4BE8
:100ADC00787B0093342312220121FFF7EDFEA3E271
:100AEC00BB681B78002B03D06448FFF74DFD9BE2DD
:100AFC007B7B022B08D1624B009300230022102138
:100B0C000220FFF7D9FE8FE27B7B012B08D15D4BD6
:100B1C0000930023002220210120FFF7CDFE83E269
:100B2C00594B1B78022B0ED0022B10DC002B02D061
:100B3C00012B04D00BE05548FFF726FD0BE0544881
:100B4C00FFF722FD07E05348FFF71EFD03E0524874
:100B5C00FFF71AFD00BF67E2BB681B78002B03D0C0
:100B6C004E48FFF711FD5FE27B7B022B03D04C4814
:100B7C00FFF70AFD58E24B4B009300230022112192
:100B8C000220FFF799FE4FE27B7B022B03D04648F5
:100B9C00FFF7FAFC48E2BB1D1946B868FFF70CFDDD
:100BAC000346002B03D14148FFF7EEFC3CE2FB88E7
:100BBC001B0A9BB2DAB2FB88DBB23D4900911221D1
:100BCC000220FFF779FE2FE27B7B002B20D1BB1D8F
:100BDC001946B868FFF7F0FC0346002B02D0FB88DF
:100BEC00012B03D03348FFF7CFFC1DE2264B1B78BB
:100BFC00022B03D03048FFF7C7FC15E22F4B002225
:100C0C001A70214B00221A702D48FFF7BDFC0BE225
:100C1C007B7B022B03D02B48FFF7B6FC04E2BB1DF9
:100C2C001946B868FFF7C8FC0346002B03D12648C9
:100C3C00FFF7AAFCF8E1FB881B0A9BB2DAB2FB882F
:100C4C00DBB22249009113210220FFF735FEEBE1C4
:100C5C007B7B022B3ED01E48FFF796FCE4E100BFE5
:100C6C0084000020FC500008860000201851000869
:100C7C003C5100086C510008845100089851000840
:100C8C00CC510008EC5100088000002008520008EC
:100C9C001C520008305200084452000864520008EC
:100CAC0094520008BC520008E85200081053000887
:100CBC002C530008505300086453000864010020B2
:100CCC0084530008B4530008DC530008F8530008A0
:100CDC001C540008BB1D1946B868FFF76DFC034691
:100CEC00002B02D0FB88012B03D99C48FFF74CFC4E
:100CFC009AE1FB88012B07D1994B1B78012B03D070
:100D0C009848FFF741FC8FE1FB88DAB2FB88012B96
:100D1C0001D1954B00E0954B009313460022142112
:100D2C000220FFF7C9FD7FE17B7B022B17D1BB1D96
:100D3C001946B868FFF740FC0346002B02D0FB882D
:100D4C00012B03D08A48FFF71FFC6DE1894B009300
:100D5C000123002215210220FFF7AEFD64E17B7B0D
:100D6C00012B29D1BB1D1946B868FFF725FC03469A
:100D7C00002B02D0FB88012B03D97F48FFF704FC22
:100D8C0052E1FB88012B07D1754B1B78012B03D04B
:100D9C007448FFF7F9FB47E1FB88DAB2FB88012BBB
:100DAC0001D1764B00E0764B0093134600222421B0
:100DBC000120FFF781FD37E1BB1D1946B868FFF72D
:100DCC00FBFB0346002B02D0FB88012B03D96D489B
:100DDC00FFF7DAFB28E1FB88002B17D1604B1B785F
:100DEC00022B03D16848FFF7CFFB1DE1674B0022B4
:100DFC001A70674B00221A70664B00221A70584BFF
:100E0C0000221A706448FFF7BFFB0DE1544B1B78AE
:100E1C00022B03D16148FFF7B7FB05E1504B0122D0
:100E2C001A7001F065FC03465D4A13605D4B0122AC
:100E3C001A705D48FFF7A8FBF6E07B7B012B03D013
:100E4C005A48FFF7A1FBEFE0BB1D1946B868FFF746
:100E5C00B3FB0346002B02D0FB88012B03D0544874
:100E6C00FFF792FBE0E0534B00930123002221217A
:100E7C000120FFF721FDD7E07B7B012B03D04E48EF
:100E8C00FFF782FBD0E0BB1D1946B868FFF794FB57
:100E9C000346002B02D0FB88012B03D04748FFF7F9
:100EAC0073FBC1E0464B0093012300222221012059
:100EBC00FFF702FDB8E07B7B012B03D04148FFF725
:100ECC0063FBB1E0BB1D1946B868FFF775FB034621
:100EDC00002B03D13C48FFF757FBA5E0FB881B0A0E
:100EEC009BB2DAB2FB88DBB2384900912321012096
:100EFC00FFF7E2FC98E07B7B012B03D03448FFF733
:100F0C0043FB91E0BB1D1946B868FFF755FB034640
:100F1C00002B02D0FB88022B03D92E48FFF734FBA1
:100F2C0082E0FB88002B07D00D4B1B78012B03D0E4
:100F3C000C48FFF729FB77E0FB88DBB2264A0092CE
:100F4C00002225210120FFF7B7FC6DE07B7B012BF4
:100F5C0046D02248FFF718FB66E000BF4454000857
:100F6C00800000206054000884540008AC54000831
:100F7C00D4540008E854000808550008245500080B
:100F8C003C550008585500087455000859010020BC
:100F9C005A0100205B010020B8550008D455000808
:100FAC005C01002004000020145600083056000894
:100FBC00585600086C56000894560008BC56000899
:100FCC00D0560008EC560008145700083C5700088F
:100FDC005C57000884570008A4570008C457000841
:100FEC00BB1D1946B868FFF7E7FA0346002B02D081
:100FFC00FB88012B03D00E48FFF7C6FA14E00D4B0B
:10100C001B78012B03D00C48FFF7BEFA0CE00B4BFE
:10101C0000930123002226210120FFF74DFC03E061
:10102C000748FFF7B1FA00BF1037BD4680BD00BFBF
:10103C00EC5700088000002060540008005800089D
:10104C002058000880B500AF0F4B1B78002B19D02F
:10105C000E4B1B78002B15D1052001F053FB0C4BCC
:10106C001B881B0A9BB2DAB2094B1B88DBB27121BD
:10107C00012000F0E1FF0346002B04D1024B0022BB
:10108C001A7000E000BF80BD480100209F000020C6
:10109C004A01002080B500AF0F4B1B78002B19D0F4
:1010AC000E4B1B78002B15D1052001F02BFB0C4BA4
:1010BC001B881B0A9BB2DAB2094B1B88DBB273216B
:1010CC00022000F0B9FF0346002B04D1024B002292
:1010DC001A7000E000BF80BD530100209F0000206B
:1010EC005401002080B582B000AF234B1B78012B3C
:1010FC0039D1224B1B78002B37D0214B1B78002B7E
:10110C0035D1204B1B78002B31D1052001F0FAFA98
:10111C00012300221421022000F08EFF0346FB71F4
:10112C00FB79002B06D0154B00221A701648FFF7DE
:10113C002BFA1DE0134B01221A70144B02221A7069
:10114C00134B14221A70134B01221A8001F0D0FA9F
:10115C000346114A1360114B4FF47A721A6010480F
:10116C00FFF712FA04E000BF02E000BF00E000BF8E
:10117C000837BD4680BD00BF80000020590100200B
:10118C00480100209F0000203C580008A0000020CF
:10119C00A1000020A2000020A400002000000020DC
:1011AC008458000880B582B000AF244B1B78012B0B
:1011BC003CD1234B1B78002B3AD0224B1B78002BB5
:1011CC0038D1214B1B78002B34D1052001F09AFA31
:1011DC00012300222621012000F02EFF0346FB7183
:1011EC00FB79002B06D0164B00221A701748FFF71C
:1011FC00CBF920E0124B00221A70134B01221A700B
:10120C00134B01221A70134B26221A70124B012217
:10121C001A8001F06DFA0346104A1360104B4FF41C
:10122C007A721A600F48FFF7AFF904E000BF02E0D2
:10123C0000BF00E000BF0837BD4680BD8000002025
:10124C005A010020530100209F000020B4580008D0
:10125C00A0000020A1000020A2000020A40000207B
:10126C0000000020F858000880B582B000AF354B64
:10127C001B78002B5AD1344B1B78002B58D1334B95
:10128C001B78002B54D1324B1B78002B50D1314B97
:10129C001B78002B4CD1304B1B78002B48D12F4B9B
:1012AC001B78DBB2002B45D101F022FA38602C4BB5
:1012BC001B683A68D31A312B3ED9294A3B68136014
:1012CC00284B1B78012B04D10123FB712723BB7105
:1012DC0003E00223FB711623BB71B979F879002363
:1012EC00002200F0A9FE0346002B27D1154B01224A
:1012FC001A701D4AFB7913701C4ABB7913701C4B76
:10130C0000221A8001F0F4F903461A4A13601A4BB2
:10131C0064221A60134B1B78012B03D1114B022250
:10132C001A700CE00F4B01221A7008E000BF06E0A7
:10133C0000BF04E000BF02E000BF00E000BF0837C0
:10134C00BD4680BD9F000020480100204F010020B9
:10135C0053010020590100205A0100209E0000205A
:10136C005C01002004000020A0000020A10000204F
:10137C00A2000020A400002000000020B0B588B01E
:10138C0004AF0023FB738E4B1B78DBB2002B00F0F9
:10139C004C838C4B1B78BB738B4B1B787B738B4BAD
:1013AC001B783B738A4B1B78FB72854B00221A709F
:1013BC00884B1B78002B0CD1BA7B7B7B009313469C
:1013CC00854AA021854802F08FFF8448FFF7DCF89E
:1013DC002CE3834B1B78BA7B9A420CD0BA7B7B7B79
:1013EC00009313467F4AA0217C4802F07DFF7B4886
:1013FC00FFF7CAF81AE3BB7B012B39D17A4B1B7868
:10140C00272B35D17B7B702B32D10123FB733B7B9C
:10141C001BB21B021AB2FB7A1BB213431BB23B81E9
:10142C00724B01221A70724A3B891380714B1B78E4
:10143C00002B05D0704B1B883A899A4200F0DC8255
:10144C006C4B01221A706C4A3B8913806B4B002247
:10145C001A706B4B1B78012B40F0CE82694B01222A
:10146C001A706948FFF790F86848FFF78DF8C3E2E7
:10147C00BB7B012B3CD15C4B1B78272B38D17B7B66
:10148C00742B35D10123FB733B7B1BB21B021AB2AD
:10149C00FB7A1BB213431BB2FB805D4B01221A700B
:1014AC005C4AFB881380554B1B78002B40F0A682BE
:1014BC00524B01221A70FB88574AA2FB0323DB080C
:1014CC009BB21846FA88544BA3FB0213D9080B465F
:1014DC009B000B445B00D31A9BB2009303464F4A0C
:1014EC00A0213E4802F000FF3C48FFF74DF885E292
:1014FC00BB7B022B36D13C4B1B78162B32D17B7B22
:10150C00722B2FD10123FB733B7B1BB21B021AB234
:10151C00FB7A1BB213431BB2BB80414B01221A70E6
:10152C00404ABB881380404B1B78002B05D03F4BA7
:10153C001B88BA889A4200F063823B4B01221A70D6
:10154C003A4ABB8813802E4B1B78012B40F05882F3
:10155C00374B01221A703748FFF716F83648FFF759
:10156C0013F84DE27B7B762B10D1BB7B012B03D187
:10157C001D4B1B78272B06D0BB7B022B06D11A4B9D
:10158C001B78162B02D10123FB733AE2164B1B7806
:10159C00012B57D17B7B812B54D13B7B122B51D10F
:1015AC00FB7A342B4ED10123FB73BB7B022B01D175
:1015BC00224B00E0224B1846FEF7E6FF21E200BF6B
:1015CC0087010020890100208A0100208B01002066
:1015DC008C0100209F00002024590008A800002046
:1015EC00A000002050590008A10000204801002054
:1015FC004A0100204E0100204C0100205201002025
:10160C00800000205901002078590008BC590008BE
:10161C004F01002050010020CDCCCCCCF05900085B
:10162C0053010020540100205801002056010020D5
:10163C005A010020185A0008485A0008945A000809
:10164C00B45A0008BB7B022B25D1A64B1B78102B60
:10165C0021D17B7B902B1ED10123FB73FC7A3B7B2E
:10166C00184600F0BDFA0346009323469E4AA0217B
:10167C009E4802F039FE9D48FEF786FF3B7B002B0F
:10168C0000F0BF813B7B184600F0AAFA03461846CF
:10169C00FFF750F8B5E1BB7B022B1DD1914B1B78AA
:1016AC00112B19D17B7B912B16D10123FB733B7B27
:1016BC00184600F0C1FA0446FB7A184600F0E8FA26
:1016CC000346009323468A4AA021884802F00CFE68
:1016DC008648FEF759FF94E1BB7B012B24D1814B4B
:1016EC001B78202B20D17B7B802B1DD10123FB73FE
:1016FC003B7B184600F0E8FA0446FB7A184600F0EB
:10170C000FFB0346009323467A4AA021774802F048
:10171C00EBFD7648FEF738FF3B7B032B40F07181E5
:10172C007548FFF707F86CE1BB7B022B03D0BB7B42
:10173C00012B40F050817B7BA02B03D07B7BA12B1A
:10174C0040F04981674B1B783A7B9A4240F04381C9
:10175C000123FB737B7BA02B40F0F8803B7B123B7F
:10176C00142B00F2B28001A252F823F0CD1700081E
:10177C00DD1700080B18000849180008D7180008D6
:10178C00D7180008D7180008D7180008D718000871
:10179C00D7180008D7180008D7180008D718000861
:1017AC00D7180008D7180008551800086118000849
:1017BC006D1800087D18000897180008CB18000851
:1017CC004E4B1B884E4AA021484802F08DFDFEE08E
:1017DC004C4B1B78002B0AD04B4B01221A70474BF9
:1017EC001B884A4AA021414802F07EFDEFE0434BA2
:1017FC001B88474AA0213D4802F076FDE7E0424BAA
:10180C0000221A703F4B00221A703C4B1B88002B95
:10181C0005D1404AA021354802F066FDD7E0FB7A9D
:10182C00012B05D13C4AA021304802F05DFDCEE0F1
:10183C003A4AA0212D4802F057FDC8E0384AA021B1
:10184C002A4802F051FDC2E0364AA021274802F096
:10185C004BFDBCE0344AA021244802F045FDB6E023
:10186C00264B1B88314AA021204802F03DFDAEE0FA
:10187C00224B1B88002B01D02D4B00E02D4B1A4620
:10188C00A0211A4802F030FDA1E01C4B1B88002B54
:10189C0005D1294AA021154802F026FD97E0174BE7
:1018AC001B88012B05D1254AA021104802F01CFDF4
:1018BC008DE0234AA0210D4802F016FD87E0214A55
:1018CC00A0210A4802F010FD81E0B97B3B7BFA7A3B
:1018DC00019200930B461C4AA021044802F004FD1F
:1018EC0075E000BFA1000020D45A0008A800002019
:1018FC00F45A0008145B0008345B0008A2000020B6
:10190C00405B00085B01002059010020605B00086F
:10191C00C45B0008E45B00080C5C0008305C000849
:10192C00585C00087C5C0008A05C0008C05C0008E7
:10193C00E45C0008005D00081C5D0008405D0008C8
:10194C00645D0008845D0008A85D0008BB7B022B69
:10195C0015D13B7B142B12D1FB7A052B0FD1354BB8
:10196C001B78002B0BD0334B00221A70324B012208
:10197C001A70324AA021324802F0B6FC27E0BB7B39
:10198C00022B0CD13B7B142B09D12A4B1B78002B3F
:10199C0005D0284B00221A70274B00221A70BB7BF3
:1019AC00022B01D1274C00E0274C3B7B184600F062
:1019BC005BF80546FB7A184600F0BCF80346019329
:1019CC0000952346214AA0211D4802F08DFC1C489D
:1019DC00FEF7DAFD15E0B87B7B7B3A7BF97A029156
:1019EC000192009303461A4AA021154802F07CFC90
:1019FC001348FEF7C9FD04E000BF02E000BF00E0A1
:101A0C0000BFFB7B002B11D0124B00221A70124B23
:101A1C0000221A70114B00221A70114B00221A80EE
:101A2C00104B4FF47A721A6000E000BF1037BD46BD
:101A3C00B0BD00BF590100205B010020D05D000843
:101A4C00A8000020185E0008205E0008285E000830
:101A5C00445E00089F000020A0000020A100002090
:101A6C00A20000200000002080B483B000AF034629
:101A7C00FB71FB79123B142B40D801A252F823F0D6
:101A8C00E11A0008E51A0008E91A0008ED1A000826
:101A9C00091B0008091B0008091B0008091B00088A
:101AAC00091B0008091B0008091B0008091B00087A
:101ABC00091B0008091B0008091B0008F11A000883
:101ACC00F51A0008F91A0008FD1A0008011B000895
:101ADC00051B00080C4B12E00C4B10E00C4B0EE0FD
:101AEC000C4B0CE00C4B0AE00C4B08E00C4B06E0EA
:101AFC000C4B04E00C4B02E00C4B00E00C4B18467A
:101B0C000C37BD4680BC7047805E00088C5E0008B8
:101B1C00945E0008A45E0008B45E0008C85E00086D
:101B2C00D05E0008DC5E0008EC5E0008FC5E00087D
:101B3C00105F000880B483B000AF0346FB71FB79E3
:101B4C00013B0A2B2ED801A252F823F0851B00086A
:101B5C00891B00088D1B0008911B0008951B0008B1
:101B6C00991B00089D1B0008A11B0008A51B000861
:101B7C00A91B0008AD1B00080D4B14E00D4B12E027
:101B8C000D4B10E00D4B0EE00D4B0CE00D4B0AE035
:101B9C000D4B08E00D4B06E00D4B04E00D4B02E045
:101BAC000D4B00E00D4B18460C37BD4680BC704702
:101BBC001C5F0008305F0008405F0008485F0008A9
:101BCC00585F0008645F0008745F00088C5F0008B1
:101BDC009C5F0008AC5F0008B85F0008CC5F000891
:101BEC0080B483B000AF0346FB71FB79032B13D891
:101BFC0001A252F823F000BF151C0008191C0008A4
:101C0C001D1C0008211C0008064B06E0064B04E0D6
:101C1C00064B02E0064B00E0064B18460C37BD465F
:101C2C0080BC7047E05F0008EC5F0008FC5F0008B8
:101C3C00046000081860000880B483B000AF03464D
:101C4C00FB71FB79032B13D801A252F823F000BFD0
:101C5C006D1C0008711C0008751C0008791C00081C
:101C6C00064B06E0064B04E0064B02E0064B00E098
:101C7C00064B18460C37BD4680BC70472C600008DC
:101C8C004060000854600008606000087060000844
:101C9C0080B483B000AF0346FB71FB79002B02D0FC
:101CAC00012B02D003E0054B02E0054B00E0054B95
:101CBC0018460C37BD4680BC704700BF84600008D6
:101CCC008C6000089860000880B483B000AF0346B5
:101CDC00FB71FB79032B13D801A252F823F000BF40
:101CEC00FD1C0008011D0008051D0008091D000849
:101CFC00064B06E0064B04E0064B02E0064B00E008
:101D0C00064B18460C37BD4680BC7047A4600008D3
:101D1C00B0600008C0600008CC600008706000086B
:101D2C0080B483B000AF0346FB71FB79062B1FD840
:101D3C0001A252F823F000BF611D0008651D0008C8
:101D4C00691D00086D1D0008711D0008751D000837
:101D5C00791D0008094B0CE0094B0AE0094B08E01F
:101D6C00094B06E0094B04E0094B02E0094B00E08B
:101D7C00094B18460C37BD4680BC7047D460000830
:101D8C00DC600008E4600008F060000804610008F2
:101D9C0010610008206100083461000880B584B02F
:101DAC0000AF78607B681B682D4A93424BD12D4B5A
:101DBC001B78FB73FB7B3A2B0CD12B4B00221A703C
:101DCC002A4B01221A702A4B00221A70294B00222E
:101DDC001A7032E0254B1B78DBB2002B2DD0FB7B2D
:101DEC000D2B02D0FB7B0A2B0DD11F4B1B78DBB2CA
:101DFC001A46204B002199541C4B00221A701C4B84
:101E0C0001221A7019E0184B1B78DBB2162B0BD879
:101E1C00154B1B78DBB25A1CD1B2134A1170194600
:101E2C00144AFB7B535408E00F4B00221A700F4BE3
:101E3C0000221A700E4B00221A70012209490E481A
:101E4C0001F0CBFC07E07B681B680C4A934202D183
:101E5C00786800F051F900BF1037BD4680BD00BF57
:101E6C0000380140810000209C0000209D000020D3
:101E7C009E000020840000209401002000480040B7
:101E8C0080B584B000AF78607B681B68184A9342B9
:101E9C0021D10023FB607B681B681B68FB607B689F
:101EAC001B685B68FB60FB687B6800225A647B687C
:101EBC00202283F842207B68002283F840200D4BBF
:101ECC0000221A700C4B00221A7001220B490C488C
:101EDC0001F083FC07E07B681B680A4A934202D13D
:101EEC00786800F0AFF900BF1037BD4680BD00BF69
:101EFC00003801409D0000209C0000208100002043
:101F0C00940100200048004080B400AF72B600BFBE
:101F1C0000BFFDE780B400AF044B00221A70044BE5
:101F2C0000221A7000BFBD4680BC7047850100209E
:101F3C008601002080B485B000AF78600B46FB7042
:101F4C000023FB737B68002B01D100232AE00023C4
:101F5C00BB7322E0BB7B7A6813441A78FB7B53403B
:101F6C00FB7300237B7312E097F90F30002B08DA18
:101F7C0097F90F305B005BB283F007035BB2FB7326
:101F8C0002E0FB7B5B00FB737B7B01337B737B7B16
:101F9C00072BE9D9BB7B0133BB73BA7BFB789A4225
:101FAC00D8D3FB7B18461437BD4680BC7047000065
:101FBC0080B584B000AFF860B96011461A460B4684
:101FCC00FB8013467B71FB68002B05D0BB68002B94
:101FDC0002D0FB88002B01D1012323E0134AFB68BC
:101FEC001360124ABB685360104AFB8813810F4A76
:101FFC007B7993720D4B0122DA72FFF78BFF0C4B3E
:10200C0000221A70094B5B68084A11890022184695
:10201C0000F0E0FE054B1B6801220649184601F052
:10202C00DCFB034618461037BD4680BD6801002016
:10203C00870100208401002090B585B000AF0446D4
:10204C00084611461A462346FB710346BB710B46E4
:10205C007B7113463B71254BDB7A002B07D0234B4E
:10206C001B68002B03D0214B5B68002B01D1012393
:10207C0037E01F4B3A221A701D4AFB7953701B4BE9
:10208C009A7A1B4B9A701A4ABB79D370184A7B798F
:10209C001371174A3B79537105211648FFF74AFF14
:1020AC0003461A46124B9A71114B0D22DA710F4BE3
:1020BC005B680E4A11890122184600F08BFE0B4B0F
:1020CC001868142308220A4901F0FCFA0346FB7332
:1020DC00064B5B68054A11890022184600F07AFE0F
:1020EC00FB7B18461437BD4690BD00BF680100202D
:1020FC00740100207501002080B584B000AF7860B9
:10210C00444BDB7A002B00F081807B68002B7DD068
:10211C00404B1B68002B79D07B681A683D4B1B68C1
:10212C001B689A4272D13C4B1B78002B15D13B4B50
:10213C001B783A2B62D13A4B00221A70384B1B7821
:10214C005A1CD1B2364A11701A46344B1978354B99
:10215C009954314B01221A7050E0314B1B78072BEC
:10216C000BD82F4B1B785A1CD1B22D4A11701A4622
:10217C002A4B19782B4B995401E0FFF7CBFE284BD7
:10218C001B78072B3AD9FFF7C5FE264B1B783A2B49
:10219C0034D1244BDB790D2B30D105212248FFF7AC
:1021AC00C9FE0346FB731F4B9B79FA7B9A4225D1E0
:1021BC001C4B5B78BB73174B9B7ABA7B9A4202D051
:1021CC00BB7BFF2B1AD1194B1B78DBB2002B15D123
:1021DC00174ABB7B1370134B9A78164B1A70114B22
:1021EC00DA78154B1A700F4B1A79144B1A700D4B79
:1021FC005A79134B1A700D4B01221A70054B1B6840
:10220C0001220649184601F0E8FA00E000BF103739
:10221C00BD4680BD6801002086010020840100209D
:10222C00850100207C0100207D0100208701002019
:10223C0088010020890100208A0100208B010020E8
:10224C008C01002080B584B000AF78601A4BDB7A2B
:10225C00002B2DD07B68002B2AD0174B1B68002B32
:10226C0026D07B681A68144B1B681B689A421FD1D6
:10227C00FFF750FE0023FB607B681B681B68FB604C
:10228C007B681B685B68FB60FB687B6800225A6498
:10229C007B68202283F842207B68002283F8402050
:1022AC00054B1B6801220549184601F096FA00E01F
:1022BC0000BF1037BD4680BD68010020840100209E
:1022CC0080B485B000AF154B9B69144A43F00103F1
:1022DC009361124B9B6903F00103BB60BB680F4B0E
:1022EC00DB690E4A43F08053D3610C4BDB6903F07E
:1022FC0080537B607B680A4B5B68FB60FB6823F058
:10230C00E063FB60FB6843F08063FB60044AFB689E
:10231C00536000BF1437BD4680BC704700100240AC
:10232C000000014080B400AF00BFFDE780B400AFF7
:10233C0000BFFDE780B400AF00BFFDE780B400AF85
:10234C0000BFFDE780B400AF00BFFDE780B400AF75
:10235C0000BFBD4680BC704780B400AF00BFBD4617
:10236C0080BC704780B400AF00BFBD4680BC7047D6
:10237C0080B500AF00F0AAF900BF80BD80B500AFFA
:10238C00024801F04FFA00BF80BD00BF940100204D
:10239C0080B500AF024801F045FA00BF80BD00BF18
:1023AC00DC01002080B586B000AF7860144A154B74
:1023BC00D31A7B617B693B61134B1B68002B02D1E9
:1023CC00114B124A1A60104B1A687B6813443A6915
:1023DC009A4207D201F0C6FF03460C221A604FF056
:1023EC00FF3309E0084B1B68FB60074B1A687B68DE
:1023FC001344054A1360FB6818461837BD4680BD68
:10240C000050002000040000900100207003002008
:10241C0080B400AF00BFBD4680BC704780B500AF34
:10242C00114B124A1A60104B4FF4E1325A600E4BAA
:10243C0000229A600C4B0022DA600B4B00221A61CE
:10244C00094B0C225A61084B00229A61064B002260
:10245C00DA61054801F0E6F80346002B01D0FFF7DE
:10246C0053FD00BF80BD00BF940100200038014027
:10247C0080B500AF114B124A1A60104B4FF4E13289
:10248C005A600E4B00229A600C4B0022DA600B4B08
:10249C0000221A61094B0C225A61084B00229A61E6
:1024AC00064B0022DA61054801F0BCF80346002B0C
:1024BC0001D0FFF729FD00BF80BD00BFDC0100206B
:1024CC000048004080B58AB000AF786007F118036F
:1024DC0000221A605A609A60DA607B681B68404A76
:1024EC0093423AD13F4B9B693E4A43F480439361FC
:1024FC003C4B9B6903F480437B617B69394B9B6943
:10250C00384A43F004039361364B9B6903F0040390
:10251C003B613B694FF40073BB610223FB610323F6
:10252C007B6207F1180319462F4800F0CFFA4FF4DD
:10253C008063BB610023FB6100233B6207F118033E
:10254C001946294800F0C2FA00220021252000F08B
:10255C00D4F9252000F0EDF93EE07B681B68234A96
:10256C00934239D11F4BDB691E4A43F48023D3615C
:10257C001C4BDB6903F48023FB60FB68194B9B69E4
:10258C00184A43F008039361164B9B6903F0080348
:10259C00BB60BB684FF48063BB610223FB61032308
:1025AC007B6207F118031946114800F08FFA4FF4BB
:1025BC000063BB610023FB6100233B6207F118033E
:1025CC0019460B4800F082FA00220021272000F067
:1025DC0094F9272000F0ADF900BF2837BD4680BD27
:1025EC000038014000100240000801400048004043
:1025FC00000C0140FFF70CFF0B480C490C4A002360
:10260C0002E0D458C4500433C4188C42F9D3094A9C
:10261C00094C002301E013600432A242FBD301F009
:10262C00A7FEFDF72BFE7047000000206400002081
:10263C00BC6100086400002070030020FEE700006D
:10264C0080B500AF084B1B68074A43F010031360BA
:10265C00032000F047F90F2000F008F8FFF730FED8
:10266C000023184680BD00BF0020024080B582B018
:10267C0000AF7860124B1A68124B1B7819464FF456
:10268C007A73B3FBF1F3B2FBF3F3184600F05FF986
:10269C000346002B01D001230EE07B680F2B0AD8D8
:1026AC00002279684FF0FF3000F027F9064A7B686A
:1026BC001360002300E0012318460837BD4680BD97
:1026CC0008000020100000200C00002080B400AF97
:1026DC00054B1B781A46054B1B681344034A1360C1
:1026EC0000BFBD4680BC70471000002024020020B3
:1026FC0080B400AF024B1B681846BD4680BC7047C7
:10270C002402002080B584B000AF7860FFF7F0FFA2
:10271C00B8607B68FB60FB68B3F1FF3F05D00A4BE8
:10272C001B781A46FB681344FB6000BFFFF7E0FF01
:10273C000246BB68D31AFA689A42F7D800BF00BFAA
:10274C001037BD4680BD00BF1000002080B485B09E
:10275C0000AF78607B6803F00703FB600C4BDB6811
:10276C00BB60BA684FF6FF031340BB60FB681A02EC
:10277C00BB68134343F0BF6343F40033BB60044AAC
:10278C00BB68D36000BF1437BD4680BC704700BF28
:10279C0000ED00E080B400AF044BDB681B0A03F0D3
:1027AC0007031846BD4680BC704700BF00ED00E033
:1027BC0080B483B000AF0346FB7197F90730002B50
:1027CC000BDBFB7903F01F02064997F907305B0915
:1027DC00012000FA02F241F8232000BF0C37BD465D
:1027EC0080BC704700E100E080B483B000AF0346CA
:1027FC003960FB7197F90730002B0ADB3B68DAB2C2
:10280C000C4997F907301201D2B20B4483F800231C
:10281C000AE03B68DAB20849FB7903F00F03043B8A
:10282C001201D2B20B441A7600BF0C37BD4680BCE5
:10283C00704700BF00E100E000ED00E080B489B01B
:10284C0000AFF860B9607A60FB6803F00703FB61C6
:10285C00FB69C3F10703042B28BF0423BB61FB698D
:10286C000433062B02D9FB69033B00E000237B6198
:10287C004FF0FF32BB6902FA03F3DA43BB681A402C
:10288C007B699A404FF0FF317B6901FA03F3D9431E
:10289C007B680B40134318462437BD4680BC7047F9
:1028AC0080B582B000AF78607B68013BB3F1807F6C
:1028BC0001D301230FE00A4A7B68013B53600F21CF
:1028CC004FF0FF30FFF790FF054B00229A60044B4E
:1028DC0007221A60002318460837BD4680BD00BF8A
:1028EC0010E000E080B582B000AF78607868FFF748
:1028FC002DFF00BF0837BD4680BD80B586B000AF48
:10290C000346B9607A60FB7300237B61FFF742FFDB
:10291C0078617A68B9687869FFF790FF024697F991
:10292C000F3011461846FFF75FFF00BF1837BD4642
:10293C0080BD80B582B000AF0346FB7197F90730BC
:10294C001846FFF735FF00BF0837BD4680BD80B580
:10295C0082B000AF78607868FFF7A2FF0346184694
:10296C000837BD4680BD80B485B000AF78600023C9
:10297C00FB737B6893F82130DBB2022B08D07B68A9
:10298C0004229A637B68002283F82020012320E034
:10299C007B681B681A687B681B6822F00E021A6041
:1029AC007B681B681A687B681B6822F001021A603E
:1029BC007B681A6C7B68DB6B012101FA02F25A60AE
:1029CC007B68012283F821207B68002283F8202079
:1029DC00FB7B18461437BD4680BC704780B584B06D
:1029EC0000AF78600023FB737B6893F82130DBB277
:1029FC00022B05D07B6804229A630123FB7351E000
:102A0C007B681B681A687B681B6822F00E021A60D0
:102A1C007B681B681A687B681B6822F001021A60CD
:102A2C007B681B68224A934229D07B681B68214A29
:102A3C00934222D07B681B681F4A93421AD07B6852
:102A4C001B681E4A934212D07B681B681C4A934237
:102A5C000AD07B681B681B4A934202D14FF4801347
:102A6C000EE04FF080730BE04FF4803308E04FF42E
:102A7C00805305E04FF4807302E0102300E0012343
:102A8C00114A53607B68012283F821207B68002265
:102A9C0083F820207B685B6B002B03D07B685B6B1F
:102AAC0078689847FB7B18461037BD4680BD00BF41
:102ABC00080002401C00024030000240440002406A
:102ACC00580002406C0002400000024080B48BB001
:102ADC0000AF7860396000237B6200233B6269E1C0
:102AEC0001227B6A02FA03F3FB613B681B68FA69FB
:102AFC001340BB61BA69FB699A4240F058813B684C
:102B0C005B689A4A93425ED0984A934275D8984A29
:102B1C00934258D0964A93426FD8964A934252D0D9
:102B2C00944A934269D8944A93424CD0924A934225
:102B3C0063D8924A934246D0904A93425DD8122B66
:102B4C002AD8122B59D801A252F823F0D32B000803
:102B5C00AD2B0008BF2B0008012C0008072C000827
:102B6C00072C0008072C0008072C0008072C00086D
:102B7C00072C0008072C0008072C0008072C00085D
:102B8C00072C0008072C0008072C0008072C00084D
:102B9C00B52B0008C92B0008794A934213D02CE0BE
:102BAC003B68DB683B6229E03B68DB6804333B62D3
:102BBC0024E03B68DB6808333B621FE03B68DB6862
:102BCC000C333B621AE03B689B68002B02D1042358
:102BDC003B6213E03B689B68012B05D108233B62E9
:102BEC007B68FA691A6109E008233B627B68FA6921
:102BFC005A6103E000233B6200E000BFBB69FF2B7E
:102C0C0001D87B6801E07B6804337B61BB69FF2BD7
:102C1C0002D87B6A9B0002E07B6A083B9B003B610D
:102C2C007B691A680F213B6901FA03F3DB431A40F5
:102C3C00396A3B6901FA03F31A437B691A603B68F2
:102C4C005B6803F08053002B00F0B1804D4B9B6907
:102C5C004C4A43F0010393614A4B9B6903F0010317
:102C6C00BB60BB68484A7B6A9B08023352F823302E
:102C7C00FB607B6A03F003039B000F2202FA03F351
:102C8C00DB43FA681340FB607B68404A934213D0E5
:102C9C007B683F4A93420DD07B683E4A934207D0F3
:102CAC007B683D4A934201D1032306E0042304E0F0
:102CBC00022302E0012300E000237A6A02F00302FF
:102CCC0092009340FA681343FB602F497B6A9B0880
:102CDC000233FA6841F823203B685B6803F48013E5
:102CEC00002B06D02D4B9A682C49BB6913438B6083
:102CFC0006E02A4B9A68BB69DB43284913408B607A
:102D0C003B685B6803F40013002B06D0234BDA6896
:102D1C002249BB691343CB6006E0204BDA68BB69E0
:102D2C00DB431E491340CB603B685B6803F4003304
:102D3C00002B06D0194B5A681849BB6913434B60DA
:102D4C0006E0164B5A68BB69DB43144913404B60D1
:102D5C003B685B6803F48033002B21D00F4B1A685F
:102D6C000E49BB6913430B6021E000BF0000321019
:102D7C000000311000002210000021100000121081
:102D8C00000011100010024000000140000801403A
:102D9C00000C0140001001400014014000040140EF
:102DAC000B4B1A68BB69DB43094913400B607B6A08
:102DBC0001337B623B681A687B6A22FA03F3002BAF
:102DCC007FF48EAE00BF00BF2C37BD4680BC704771
:102DDC000004014080B483B000AF78600B467B8068
:102DEC0013467B707B78002B03D07A887B681A6142
:102DFC0003E07B881A047B681A6100BF0C37BD4660
:102E0C0080BC704780B586B000AF78607B68002BC3
:102E1C0001D1012372E27B681B6803F00103002BD4
:102E2C0000F08780924B5B6803F00C03042B0CD0F2
:102E3C008F4B5B6803F00C03082B12D18C4B5B6837
:102E4C0003F48033B3F5803F0BD1894B1B6803F43B
:102E5C000033002B6CD07B685B68002B68D101239E
:102E6C004CE27B685B68B3F5803F06D1804B1B68F6
:102E7C007F4A43F4803313602EE07B685B68002B41
:102E8C000CD17B4B1B687A4A23F480331360784B4C
:102E9C001B68774A23F4802313601DE07B685B6812
:102EAC00B3F5A02F0CD1724B1B68714A43F48023ED
:102EBC0013606F4B1B686E4A43F4803313600BE056
:102ECC006B4B1B686A4A23F480331360684B1B6896
:102EDC00674A23F4802313607B685B68002B13D054
:102EEC00FFF706FC386108E0FFF702FC02463B697D
:102EFC00D31A642B01D9032300E25D4B1B6803F446
:102F0C000033002BF0D014E0FFF7F2FB386108E03F
:102F1C00FFF7EEFB02463B69D31A642B01D903235E
:102F2C00ECE1534B1B6803F40033002BF0D100E0B1
:102F3C0000BF7B681B6803F00203002B63D04C4B73
:102F4C005B6803F00C03002B0BD0494B5B6803F060
:102F5C000C03082B1CD1464B5B6803F48033002B0D
:102F6C0016D1434B1B6803F00203002B05D07B6882
:102F7C001B69012B01D00123C0E13D4B1B6823F0E1
:102F8C00F8027B685B69DB00394913430B603AE05C
:102F9C007B681B69002B20D0364B01221A60FFF78F
:102FAC00A7FB386108E0FFF7A3FB02463B69D31A85
:102FBC00022B01D90323A1E12D4B1B6803F0020363
:102FCC00002BF0D02A4B1B6823F0F8027B685B695E
:102FDC00DB00274913430B6015E0264B00221A60D7
:102FEC00FFF786FB386108E0FFF782FB02463B697E
:102FFC00D31A022B01D9032380E11D4B1B6803F06C
:10300C000203002BF0D17B681B6803F00803002B34
:10301C003AD07B689B69002B19D0174B01221A60A0
:10302C00FFF766FB386108E0FFF762FB02463B697D
:10303C00D31A022B01D9032360E10D4B5B6A03F019
:10304C000203002BF0D0012000F0CEFA1CE00A4B5A
:10305C0000221A60FFF74CFB38610FE0FFF748FBCA
:10306C0002463B69D31A022B08D9032346E100BF61
:10307C00001002400000424280044242924B5B6AC4
:10308C0003F00203002BE9D17B681B6803F00403F7
:10309C00002B00F0A6800023FB758B4BDB6903F043
:1030AC008053002B0DD1884BDB69874A43F080534A
:1030BC00D361854BDB6903F08053BB60BB68012394
:1030CC00FB75824B1B6803F48073002B18D17F4B6C
:1030DC001B687E4A43F480731360FFF709FB386169
:1030EC0008E0FFF705FB02463B69D31A642B01D9B4
:1030FC00032303E1754B1B6803F48073002BF0D0A2
:10310C007B68DB68012B06D16F4B1B6A6E4A43F060
:10311C00010313622DE07B68DB68002B0CD16A4B3A
:10312C001B6A694A23F001031362674B1B6A664AE8
:10313C0023F0040313621CE07B68DB68052B0CD1C5
:10314C00614B1B6A604A43F0040313625E4B1B6ABB
:10315C005D4A43F0010313620BE05B4B1B6A5A4A56
:10316C0023F001031362584B1B6A574A23F00403E4
:10317C0013627B68DB68002B15D0FFF7B9FA386156
:10318C000AE0FFF7B5FA02463B69D31A41F28832DE
:10319C00934201D90323B1E04B4B1B6A03F00203AA
:1031AC00002BEED014E0FFF7A3FA38610AE0FFF72A
:1031BC009FFA02463B69D31A41F28832934201D9F5
:1031CC0003239BE0404B1B6A03F00203002BEED160
:1031DC00FB7D012B05D13C4BDB693B4A23F0805333
:1031EC00D3617B68DB69002B00F08780364B5B6812
:1031FC0003F00C03082B61D07B68DB69022B46D1F2
:10320C00334B00221A60FFF773FA386108E0FFF7BE
:10321C006FFA02463B69D31A022B01D903236DE0E6
:10322C00294B1B6803F00073002BF0D17B681B6AE1
:10323C00B3F5803F08D1244B5B6823F400327B68E4
:10324C009B68214913434B601F4B5B6823F474123A
:10325C007B68196A7B685B6A0B431B4913434B60A1
:10326C001B4B01221A60FFF743FA386108E0FFF7A5
:10327C003FFA02463B69D31A022B01D903233DE0E6
:10328C00114B1B6803F00073002BF0D035E0104B92
:10329C0000221A60FFF72CFA386108E0FFF728FAD1
:1032AC0002463B69D31A022B01D9032326E0064BB5
:1032BC001B6803F00073002BF0D11EE07B68DB6908
:1032CC00012B07D1012319E00010024000700040CF
:1032DC00600042420B4B5B68FB60FB6803F480327E
:1032EC007B681B6A9A4206D1FB6803F470127B68F8
:1032FC005B6A9A4201D0012300E00023184618377C
:10330C00BD4680BD0010024080B584B000AF78602F
:10331C0039607B68002B01D10123D0E06A4B1B681C
:10332C0003F007033A689A4210D9674B1B6823F0E5
:10333C00070265493B6813430B60634B1B6803F042
:10334C0007033A689A4201D00123B8E07B681B68F6
:10335C0003F00203002B20D07B681B6803F00403EE
:10336C00002B05D0594B5B68584A43F4E06353601B
:10337C007B681B6803F00803002B05D0534B5B687C
:10338C00524A43F460535360504B5B6823F0F00295
:10339C007B689B684D4913434B607B681B6803F04B
:1033AC000103002B40D07B685B68012B07D1474B96
:1033BC001B6803F40033002B15D101237FE07B68DD
:1033CC005B68022B07D1414B1B6803F00073002B89
:1033DC0009D1012373E03D4B1B6803F00203002B62
:1033EC0001D101236BE0394B5B6823F003027B684E
:1033FC005B68364913434B60FFF77AF9F8600AE0D3
:10340C00FFF776F90246FB68D31A41F288329342F1
:10341C0001D9032353E02D4B5B6803F00C027B684E
:10342C005B689B009A42EBD1274B1B6803F00703A8
:10343C003A689A4210D2244B1B6823F007022249A7
:10344C003B6813430B60204B1B6803F007033A687F
:10345C009A4201D0012332E07B681B6803F004031D
:10346C00002B08D0194B5B6823F4E0627B68DB68A7
:10347C00164913434B607B681B6803F00803002B51
:10348C0009D0124B5B6823F460527B681B69DB002C
:10349C000E4913434B6000F021F802460B4B5B685E
:1034AC001B0903F00F030A49CB5C22FA03F3094A08
:1034BC001360094B1B681846FFF7D8F80023184611
:1034CC001037BD4680BD00BF0020024000100240F6
:1034DC004C610008080000200C00002080B487B06C
:1034EC0000AF0023FB600023BB6000237B61002343
:1034FC007B6000233B611E4B5B68FB60FB6803F049
:10350C000C03042B02D0082B03D027E0194B3B6192
:10351C0027E0FB689B0C03F00F03174AD35C7B601E
:10352C00FB6803F48033002B10D0114B5B685B0CF1
:10353C0003F00103114AD35CBB607B680D4A03FBAB
:10354C0002F2BB68B2FBF3F37B6104E07B680C4ACC
:10355C0002FB03F37B617B693B6102E0054B3B6142
:10356C0000BF3B6918461C37BD4680BC704700BF86
:10357C000010024000127A006461000874610008B7
:10358C0000093D0080B400AF024B1B681846BD46D5
:10359C0080BC70470800002080B500AFFFF7F2FF39
:1035AC000246054B5B681B0A03F007030349CB5C1F
:1035BC0022FA03F3184680BD001002405C6100083B
:1035CC0080B500AFFFF7DEFF0246054B5B68DB0AF8
:1035DC0003F007030349CB5C22FA03F3184680BDC2
:1035EC00001002405C61000880B485B000AF7860C8
:1035FC000A4B1B680A4AA2FB03235B0A7A6802FB8C
:10360C0003F3FB6000BFFB685A1EFA60002BF9D174
:10361C0000BF00BF1437BD4680BC704708000020B7
:10362C00D34D621080B582B000AF78607B68002B00
:10363C0001D1012342E07B6893F84130DBB2002BCF
:10364C0006D17B68002283F840207868FEF73AFFA9
:10365C007B68242283F841207B681B68DA687B68CE
:10366C001B6822F40052DA60786800F0AFFD7B68CA
:10367C001B681A697B681B6822F490421A617B688C
:10368C001B685A697B681B6822F02A025A617B68A6
:10369C001B68DA687B681B6842F40052DA607B684E
:1036AC0000225A647B68202283F841207B68202208
:1036BC0083F842207B6800225A630023184608379F
:1036CC00BD4680BD80B58AB002AFF860B9603B6082
:1036DC001346FB8000237B61FB6893F84130DBB21F
:1036EC00202B75D1BB68002B02D0FB88002B01D19D
:1036FC0001236EE0FB6800225A64FB68212283F8E8
:10370C004120FEF7F5FF7861FB68FA889A84FB6824
:10371C00FA88DA84FB689B68B3F5805F08D1FB6894
:10372C001B69002B04D10023FB61BB68BB6103E068
:10373C00BB68FB610023BB612EE03B6800937B6997
:10374C0000228021F86800F013FB0346002B05D003
:10375C00FB68202283F8412003233AE0FB69002B0D
:10376C000BD1BB691B881A46FB681B68C2F30802A5
:10377C005A60BB690233BB6107E0FB691A78FB68CE
:10378C001B685A60FB690133FB61FB68DB8C9BB2E5
:10379C00013B9AB2FB68DA84FB68DB8C9BB2002B92
:1037AC00CBD13B6800937B6900224021F86800F084
:1037BC00DFFA0346002B05D0FB68202283F841205A
:1037CC00032306E0FB68202283F84120002300E05D
:1037DC00022318462037BD4680BD80B584B000AFAB
:1037EC00F860B9601346FB80FB6893F84230DBB29B
:1037FC00202B12D1BB68002B02D0FB88002B01D1EF
:10380C0001230BE0FB6800221A63FB881A46B96897
:10381C00F86800F006FB034600E002231846103758
:10382C00BD4680BD80B5BAB000AF78607B681B68C0
:10383C001B68C7F8E4307B681B68DB68C7F8E030AE
:10384C007B681B685B69C7F8DC300023C7F8D8308D
:10385C000023C7F8D430D7F8E43003F00F03C7F8CF
:10386C00D830D7F8D830002B0FD1D7F8E43003F08C
:10387C002003002B09D0D7F8E03003F02003002BF5
:10388C0003D0786800F0E3FB5BE2D7F8D830002B6C
:10389C0000F0DE80D7F8DC3003F00103002B06D1FA
:1038AC00D7F8E03003F49073002B00F0D180D7F8F8
:1038BC00E43003F00103002B0BD0D7F8E03003F415
:1038CC008073002B05D07B685B6C43F001027B6836
:1038DC005A64D7F8E43003F00403002B0BD0D7F86C
:1038EC00DC3003F00103002B05D07B685B6C43F0EC
:1038FC0002027B685A64D7F8E43003F00203002B11
:10390C000BD0D7F8DC3003F00103002B05D07B681B
:10391C005B6C43F004027B685A64D7F8E43003F024
:10392C000803002B11D0D7F8E03003F02003002B54
:10393C0005D1D7F8DC3003F00103002B05D07B68F0
:10394C005B6C43F008027B685A647B685B6C002BF1
:10395C0000F0F281D7F8E43003F02003002B08D0FC
:10396C00D7F8E03003F02003002B02D0786800F089
:10397C006EFB7B681B685B6903F04003002B14BF74
:10398C0001230023DBB2C7F8D4307B685B6C03F0F7
:10399C000803002B03D1D7F8D430002B4FD0786814
:1039AC0000F078FA7B681B685B6903F04003002B1E
:1039BC0041D07B681B681433C7F89C30D7F89C3017
:1039CC0053E8003FC7F89830D7F8983023F04003FD
:1039DC00C7F8D0307B681B681433D7F8D020C7F8F1
:1039EC00A820C7F8A430D7F8A410D7F8A82041E82D
:1039FC000023C7F8A030D7F8A030002BD9D17B68B2
:103A0C00DB6B002B13D07B68DB6B7E4A5A637B68C5
:103A1C00DB6B1846FEF7E2FF0346002B16D07B68E3
:103A2C00DB6B5B6B7A68D26B104698470EE078685C
:103A3C00FEF726FA0AE07868FEF722FA06E07868C4
:103A4C00FEF71EFA7B6800225A6475E100BF73E131
:103A5C007B681B6B012B40F04F81D7F8E43003F0EF
:103A6C001003002B00F04881D7F8E03003F010036E
:103A7C00002B00F041810023BB607B681B681B6836
:103A8C00BB607B681B685B68BB60BB687B681B6842
:103A9C005B6903F04003002B00F0B6807B68DB6BA6
:103AAC001B685B68A7F8BE30B7F8BE30002B00F07F
:103ABC0045817B689B8DB7F8BE209A4280F03E8191
:103ACC007B68B7F8BE20DA857B68DB6B9B69202BA3
:103ADC0000F088807B681B680C33C7F88830D7F8F7
:103AEC00883053E8003FC7F88430D7F8843023F48B
:103AFC008073C7F8B8307B681B680C33D7F8B820D4
:103B0C00C7F89420C7F89030D7F89010D7F89420C5
:103B1C0041E80023C7F88C30D7F88C30002BD9D172
:103B2C007B681B6814337B677B6F53E8003F3B67F4
:103B3C003B6F23F00103C7F8B4307B681B68143368
:103B4C00D7F8B420C7F88020FB67F96FD7F880202E
:103B5C0041E80023BB67BB6F002BE1D17B681B687E
:103B6C0014333B663B6E53E8003FFB65FB6D23F063
:103B7C004003C7F8B0307B681B681433D7F8B0200B
:103B8C00FA66BB66B96EFA6E41E800237B667B6E03
:103B9C00002BE3D17B68202283F842207B68002233
:103BAC001A637B681B680C33FB64FB6C53E8003FA7
:103BBC00BB64BB6C23F01003C7F8AC307B681B688C
:103BCC000C33D7F8AC20BA657B65796DBA6D41E8DA
:103BDC0000233B653B6D002BE3D17B68DB6B184608
:103BEC00FEF7C1FE7B6802225A637B689A8D7B6864
:103BFC00DB8D9BB2D31A9BB21946786800F0ADF8F6
:103C0C009CE000BF653F00087B689A8D7B68DB8D6C
:103C1C009BB2D31AA7F8CE307B68DB8D9BB2002BFE
:103C2C0000F08E80B7F8CE30002B00F089807B68D6
:103C3C001B680C33BB63BB6B53E8003F7B637B6B34
:103C4C0023F49073C7F8C8307B681B680C33D7F823
:103C5C00C8207A643B64396C7A6C41E80023FB63BE
:103C6C00FB6B002BE3D17B681B6814337B627B6A94
:103C7C0053E8003F3B623B6A23F00103C7F8C430B2
:103C8C007B681B681433D7F8C4203A63FB62F96A6B
:103C9C003A6B41E80023BB62BB6A002BE3D17B6823
:103CAC00202283F842207B6800221A637B681B6801
:103CBC000C333B613B6953E8003FFB60FB6823F02E
:103CCC001003C7F8C0307B681B680C33D7F8C020D2
:103CDC00FA61BB61B969FA6941E800237B617B69D0
:103CEC00002BE3D17B6802225A63B7F8CE30194619
:103CFC00786800F032F823E0D7F8E43003F0800362
:103D0C00002B09D0D7F8E03003F08003002B03D050
:103D1C00786800F035F914E0D7F8E43003F040038C
:103D2C00002B0ED0D7F8E03003F04003002B08D066
:103D3C00786800F074F904E000BF02E000BF00E016
:103D4C0000BFE837BD4680BD80B483B000AF78605B
:103D5C0000BF0C37BD4680BC704780B483B000AF49
:103D6C0078600B467B8000BF0C37BD4680BC70472B
:103D7C0080B586B000AFF860B9603B601346FB714C
:103D8C003BE03B6AB3F1FF3F37D0FEF7B1FC024694
:103D9C003B68D31A3A6A9A4202D33B6A002B01D190
:103DAC0003233AE0FB681B68DB6803F00403002B79
:103DBC0023D0BB68802B20D0BB68402B1DD0FB6868
:103DCC001B681B6803F00803082B16D100237B61CA
:103DDC00FB681B681B687B61FB681B685B687B610D
:103DEC007B69F86800F056F8FB6808225A64FB6897
:103DFC00002283F8402001230FE0FB681B681A683F
:103E0C00BB681340BA689A420CBF01230023DBB293
:103E1C001A46FB799A42B4D0002318461837BD468F
:103E2C0080BD80B485B000AFF860B9601346FB80EC
:103E3C00FB68BA689A62FB68FA889A85FB68FA880C
:103E4C00DA85FB6800225A64FB68222283F8422040
:103E5C00FB681B69002B07D0FB681B68DA68FB68E2
:103E6C001B6842F48072DA60FB681B685A69FB6855
:103E7C001B6842F001025A61FB681B68DA68FB6838
:103E8C001B6842F02002DA60002318461437BD4646
:103E9C0080BC704780B495B000AF78607B681B68BD
:103EAC000C337B637B6B53E8003F3B633B6B23F42E
:103EBC009073FB647B681B680C33FA6C3A64FB638D
:103ECC00F96B3A6C41E80023BB63BB6B002BE5D16B
:103EDC007B681B6814333B623B6A53E8003FFB6111
:103EEC00FB6923F00103BB647B681B681433BA6C59
:103EFC00FA62BB62B96AFA6A41E800237B627B6AA8
:103F0C00002BE5D17B681B6B012B19D17B681B68DF
:103F1C000C33FB60FB6853E8003FBB60BB6823F0CD
:103F2C0010037B647B681B680C337A6CBA617B6111
:103F3C007969BA6941E800233B613B69002BE5D103
:103F4C007B68202283F842207B6800221A6300BF22
:103F5C005437BD4680BC704780B584B000AF7860E4
:103F6C007B685B6AFB60FB680022DA85FB680022D9
:103F7C00DA84F868FDF784FF00BF1037BD4680BDBA
:103F8C0080B485B000AF78607B6893F84130DBB2C9
:103F9C00212B3ED17B689B68B3F5805F14D17B6885
:103FAC001B69002B10D17B681B6AFB60FB681B88AC
:103FBC001A467B681B68C2F308025A607B681B6A4E
:103FCC009A1C7B681A6208E07B681B6A591C7A6829
:103FDC0011621A787B681B685A607B68DB8C9BB219
:103FEC00013B9BB27A681946D184002B0FD17B68B8
:103FFC001B68DA687B681B6822F08002DA607B68D9
:10400C001B68DA687B681B6842F04002DA600023A8
:10401C0000E0022318461437BD4680BC704780B5BB
:10402C0082B000AF78607B681B68DA687B681B68BD
:10403C0022F04002DA607B68202283F84120786805
:10404C00FFF782FE002318460837BD4680BD80B5B9
:10405C008CB000AF78607B6893F84230DBB2222BD7
:10406C0040F0AE807B689B68B3F5805F17D17B68AE
:10407C001B69002B13D10023FB627B689B6ABB621C
:10408C007B681B685B689BB2C3F308039AB2BB6A7C
:10409C001A807B689B6A9A1C7B689A6226E07B6814
:1040AC009B6AFB620023BB627B689B68B3F5805FF5
:1040BC0007D07B689B68002B0AD17B681B69002B9F
:1040CC0006D17B681B685B68DAB2FB6A1A7008E081
:1040DC007B681B685B68DBB203F07F03DAB2FB6AB8
:1040EC001A707B689B6A5A1C7B689A627B68DB8DB2
:1040FC009BB2013B9BB27A681946D185002B5DD1EE
:10410C007B681B68DA687B681B6822F02002DA6027
:10411C007B681B68DA687B681B6822F48072DA6043
:10412C007B681B685A697B681B6822F001025A6124
:10413C007B68202283F842207B6800225A637B68CC
:10414C001B6B012B35D17B6800221A637B681B68C3
:10415C000C337B617B6953E8003F3B613B6923F087
:10416C0010037B627B681B680C337A6A3A62FB61D2
:10417C00F9693A6A41E80023BB61BB69002BE5D1C0
:10418C007B681B681B6803F01003102B0AD10023FB
:10419C00FB607B681B681B68FB607B681B685B684B
:1041AC00FB60FB687B689B8D19467868FFF7D5FD33
:1041BC0002E07868FDF7F2FD002302E0002300E046
:1041CC00022318463037BD4680BD000080B584B050
:1041DC0000AF78607B681B681B6923F440517B68D7
:1041EC00DA687B681B680A431A617B689A687B688B
:1041FC001B691A437B685B691343BB607B681B6854
:10420C00DB6823F4B05323F00C037A681268B968A6
:10421C000B43D3607B681B685B6923F440717B683C
:10422C009A697B681B680A435A617B681B682C4A35
:10423C00934203D1FFF7C4F9F86002E0FFF7ACF941
:10424C00F860FA6813469B0013449A001A447B6882
:10425C005B689B00B2FBF3F3224AA2FB03235B09CE
:10426C001901FA6813469B0013449A001A447B68A0
:10427C005B689B00B2FBF3F21A4BA3FB02035B09D6
:10428C00642000FB03F3D31A1B013233154AA2FB43
:10429C0003235B0903F0F0031944FA6813469B00EF
:1042AC0013449A001A447B685B689B00B2FBF3F2E0
:1042BC000C4BA3FB02035B09642000FB03F3D31A32
:1042CC001B013233074AA2FB03235B0903F00F02E5
:1042DC007B681B680A449A6000BF1037BD4680BDDE
:1042EC00003801401F85EB510CB430B5184B0C1E37
:1042FC001D689DB008DA8B234FF0FF302B601DB08A
:10430C00BDE8304002B070474FF40273ADF8143082
:10431C004FF000031B930CBF234604F1FF330493AF
:10432C0007934FF6FF7302900690ADF816302846AF
:10433C0021AB209A02A9019300F096F9431CBCBF53
:10434C008B232B60002CDAD00022029B1A70D6E74C
:10435C001400002003460244934200D1704703F836
:10436C00011BF9E7014B1868704700BF14000020CF
:10437C0070B500260C4D0D4B5B1B9C10A64209D151
:10438C00002600F07DFC0A4D0A4B5B1B9C10A642DC
:10439C0005D170BD55F8043B98470136EEE755F84A
:1043AC00043B98470136F2E7B4610008B461000899
:1043BC00B4610008B86100087047704738B505460D
:1043CC00002940D051F8043C0C1F002BB8BFE41856
:1043DC0000F0DEF81C4A136833B963601460284699
:1043EC00BDE8384000F0DAB8A34208D9206821189B
:1043FC008B4201BF19685B6809182160EDE71A460A
:10440C005B680BB1A342FAD911685018A0420BD1CA
:10441C0020680144501883421160E0D118685B6831
:10442C00084410605360DAE702D90C232B60D6E7FE
:10443C00206821188B4201BF19685B68091821603C
:10444C0063605460CBE738BD6C03002070B50F4E31
:10445C000C463168054611B900F0B0FB30602146BE
:10446C00284600F0ABFB431C03D14FF0FF34204631
:10447C0070BDC41C24F00304A042F8D0211A2846B5
:10448C0000F09CFB0130F2D1EFE700BF6803002085
:10449C002DE9F843CD1C25F0030508350C2D38BF4C
:1044AC000C25002D064601DBA94204D90C233360F0
:1044BC000020BDE8F883DFF8D48000F069F8D8F864
:1044CC0000301C4644BB29463046FFF7BFFF431C57
:1044DC00044658D1D8F800402746002F43D1002C71
:1044EC004BD023683946304604EB030900F066FBD9
:1044FC00814542D1216830466D1A2946FFF7A6FF47
:10450C0001303AD023682B442360D8F800305A6825
:10451C0062BBC8F800700FE02268521B20D40B2A33
:10452C0017D96119A342256018BF5960636808BF89
:10453C00C8F8001062514B60304600F02FF804F1BF
:10454C000B00231D20F00700C21A1CBF1B1AA3501E
:10455C00AFE76268A3420CBFC8F800205A60EBE7D3
:10456C0023466468AEE73C467F68B6E71A465B684C
:10457C00A342FBD100235360DEE70C2330463360AB
:10458C0000F00CF894E70560D6E700BF6C03002040
:10459C000148FFF711BF00BF640300200148FFF77B
:1045AC000CBF00BF640300202DE9F0471F468E6846
:1045BC008246BE420C469046334653D8B1F90C00A5
:1045CC0010F4906F2BD065692368096905EB4505DC
:1045DC00A3EB010905EBD5757B1C6D104B44AB426D
:1045EC002A4684BF1D462A46430527D51146504608
:1045FC00FFF74EFF064658B34A46216900F0FCFA15
:10460C00A38923F4906343F08003A38126614E4475
:10461C0026603B463E466561A5EB0905A5601F4635
:10462C003A464146206800F0AFFA0020A3689B1B75
:10463C00A36023683B442360BDE8F087504600F03C
:10464C00E9FA06460028E1D150462169FFF7B6FE8B
:10465C000C23CAF80030A3894FF0FF3043F040031D
:10466C00A381E9E73E46DBE72DE9F0471F468B893E
:10467C0006461B060D4614469CB010D50B6973B943
:10468C004021FFF705FF2860286130B90C23336007
:10469C004FF0FF301CB0BDE8F08740236B61002366
:1046AC00099320238DF8293030234FF0010803970C
:1046BC00644F8DF82A302346994613F8012B0AB122
:1046CC00252AF9D1B9EB040A0BD0534622462946C8
:1046DC003046FFF769FF013000F0A480099A52447C
:1046EC00099299F80030002B00F09C8000234FF0C9
:1046FC00FF32CDE9052309F10109049307938DF8E5
:10470C0053301A934C46052214F8011B4D4800F007
:10471C0065FA049BD0B9D80644BF20228DF85320EB
:10472C00190744BF2B228DF8532099F800202A2A10
:10473C0013D04C4600204FF00A0C079A214611F872
:10474C00013B303B092B49D968B913E0C01B08FA6F
:10475C0000F01843A1460490D4E7039A111D126887
:10476C000391002A01DB079204E0524243F002035A
:10477C000792049323782E2B0AD163782A2B32D1FB
:10478C00039B02341A1D1B68039243EAE3730593DF
:10479C00DFF8B49003224846217800F01FFA38B1B4
:1047AC004022049BA0EB0900824013430134049384
:1047BC0014F8011B062225488DF8281000F00EFA7B
:1047CC00002835D0224818BB039B073323F007037E
:1047DC0008330393099B034409936CE70C460120AF
:1047EC000CFB0232AAE700234FF00A0C19460134E5
:1047FC000593204610F8012B303A092A03D9002BD7
:10480C00C6D00591C4E7044601230CFB0121F0E757
:10481C0003AB00932A4630460E4B04A9AFF300803D
:10482C00421CD7D1AB895B063FF532AF099831E713
:10483C0003AB00932A463046064B04A900F07EF8E1
:10484C00EEE700BF766100087C610008806100081B
:10485C0000000000B54500082DE9F04716469846C3
:10486C008A680B6907469342B8BF1346336091F8C8
:10487C0043200C46DDF820900AB1013333602368E5
:10488C00990642BF336802333360256815F006057C
:10489C0006D104F1190AE36832689B1AAB422BDC8F
:1048AC0094F843302268003B18BF0123920630D4A1
:1048BC004146384604F14302C847013023D02368EF
:1048CC00226903F00603042B14BF002533684FF054
:1048DC00000608BFE56804F11A0408BFED1A54F885
:1048EC00123C08BF25EAE5759342C4BF9B1AED182C
:1048FC00B5421AD1002008E0012352464146384601
:10490C00C847013003D14FF0FF30BDE8F0870135C7
:10491C00C1E73020E11881F843005A1C94F8451087
:10492C002244023382F84310C2E701232246414657
:10493C003846C8470130E6D00136D9E72DE9F043B7
:10494C000D7E85B0782D904607460C4699460C9EF8
:10495C0001F1430207D8622D0AD8002D00F0D78050
:10496C00582D00F0BC8004F1420684F842503BE024
:10497C00A5F16303152BF6D801A151F823F000BF64
:10498C00E5490008F9490008734900087349000813
:10499C007349000873490008F94900087349000875
:1049AC00734900087349000873490008014B00085B
:1049BC00234A0008B34A00087349000873490008E9
:1049CC00234B000873490008234A00087349000868
:1049DC0073490008BB4A000833681A1D1B68326013
:1049EC0004F1420684F842300123A1E033682068C8
:1049FC00191D3160060601D51D6803E04506FBD57F
:104A0C00B3F90050002D03DA2D236D4284F84330A6
:104A1C000A235B4811E021683368080653F8045BED
:104A2C0002D4490648BFADB23360237E54486F2B85
:104A3C005CD10823002184F843106668002EA66020
:104A4C0005DB21682E4321F00401216050D016466D
:104A5C00B5FBF3F103FB115C10F80CC006F801CDAB
:104A6C00AC4663450D46F3D9082B0BD12368DB0705
:104A7C0008D5236961689942DEBF302306F8013CF2
:104A8C0006F1FF36921B2261434621463846CDF88B
:104A9C00009003AAFFF7E0FE01304ED14FF0FF303B
:104AAC0005B0BDE8F083236843F02003236078252C
:104ABC00344884F845502368316813F0800F51F85E
:104ACC00045B03D113F0400F18BFADB23160D907AE
:104ADC0044BF43F0200323601DB11023AAE72848EC
:104AEC00E7E7236823F020032360F6E70A23A1E716
:104AFC001646B9E733682568181D616930602E06C3
:104B0C001B6801D5196002E06806FBD519800023EB
:104B1C0016462361B8E7336800211A1D32601E68FF
:104B2C006268304600F05AF808B1801B6060636818
:104B3C002361002384F84330A6E7324641463846C9
:104B4C002369C8470130A9D023689B0713D4E068B8
:104B5C00039B9842B8BF1846A2E701233246414650
:104B6C003846C847013099D00135E36803995B1A80
:104B7C00AB42F2DCEBE7002504F11906F5E700BFC8
:104B8C008761000898610008884210B501EB0204A7
:104B9C0002D98442234607D8431EA14207D011F8FC
:104BAC00012B03F8012FF8E70244824200D110BD1B
:104BBC0013F8011D02F8011DF7E7000038B50023BA
:104BCC00054D044608462B60FDF7ECFB431C02D157
:104BDC002B6803B1236038BD60030020034610B579
:104BEC00C9B202449342184601D1002003E0047874
:104BFC0001338C42F6D110BD0A44914200F1FF33CF
:104C0C0000D1704710B511F8014B914203F8014FD8
:104C1C00F9D110BD2DE9F041074614460D4621B9D6
:104C2C001146BDE8F041FFF733BC2AB9FFF7C6FBCC
:104C3C0025462846BDE8F08100F01AF88442064665
:104C4C0002D8B4EB500FF4D821463846FFF720FCBD
:104C5C00804608B94546ECE7B4422246294628BFAF
:104C6C003246FFF7C9FF29463846FFF7A7FBF1E7A5
:104C7C0051F8043C181F002BBCBF0B58C0187047D0
:104C8C00F8B500BFF8BC08BC9E467047F8B500BF2D
:084C9C00F8BC08BC9E467047FD
:104CA4000D0A4D41455354524F2052533438352048
:104CB400494E49434941444F0D0A00003A4D4E20A4
:104CC4002020203D2045535441444F2047454E4524
:104CD40052414C2044454C204D41455354524F0DB4
:104CE4000A0000003A4D41312020203D2041435428
:104CF400495641522053495354454D410D0A000031
:104D04003A4D41302020203D2044455341435449ED
:104D14005641522053495354454D410D0A00000059
:104D24003A5450202020203D2050494E47205441E1
:104D34004E5155450D0A00003A544E202020203D86
:104D44002045535441444F2054414E5155450D0A7A
:104D5400000000003A544D202020203D20455354AB
:104D640041444F20444F534946494341444F520D17
:104D74000A0000003A5453313520203D2053455455
:104D8400504F494E542054414E5155452031352001
:104D9400636D0D0A000000003A5452353030203D56
:104DA4002052454345544120353030206D6C0D0A66
:104DB400000000003A5449312020203D20494E494A
:104DC4004349415220444F53494649434143494F83
:104DD4004E0D0A003A5449302020203D2041424FD4
:104DE4005254415220444F53494649434143494F49
:104DF4004E0D0A003A5441312020203D20524553A3
:104E0400455445415220414C41524D410D0A000048
:104E14003A4350202020203D2050494E472043490A
:104E24004E54410D0A0000003A434E202020203DFC
:104E34002045535441444F2043494E54410D0A00E8
:104E44003A4343312020203D20454E5452415220C4
:104E5400454E20434F4E46494755524143494F4ED4
:104E64002043494E54410D0A000000003A43543196
:104E74002020203D20484143455220544152410DB9
:104E84000A0000003A4346353030203D2043414C6F
:104E9400494252415220434F4E2035303020670D55
:104EA4000A0000003A4341312020203D2041435470
:104EB400495641522043494E54410D0A0000000016
:104EC4003A4341302020203D204445534143544936
:104ED4005641522043494E54410D0A003A4342314F
:104EE4002020203D20415252414E43415220424114
:104EF4004E44410D0A0000003A4342302020203D38
:104F040020444554454E45522042414E44410D0AE9
:104F1400000000003A4342322020203D20494E49FF
:104F24004349415220504553414A45204D414E5535
:104F3400414C0D0A000000003A4344312020203D3A
:104F440020434F4E54494E55415220504553414AF7
:104F5400450D0A004552524F523A2054494D454F8F
:104F6400555420414C20494E494349415220415512
:104F7400544F4D41544943414D454E544520454CB1
:104F840020444F534946494341444F522E205553E0
:104F940045203A5449310D0A000000004552524F51
:104FA400523A2054494D454F55542C20454C204EDF
:104FB4004F444F204E4F20524553504F4E44494F7B
:104FC4000D0A00000D0A2A2A2A2053495354454D3C
:104FD4004120454E20414C41524D41202A2A2A0D60
:104FE4000A00000043415553413A2025730D0A003D
:104FF400504152414441202D3E2054414E5155458B
:105004003A2041424F5254415220444F5349464959
:10501400434143494F4E0D0A0000000050415241A4
:105024004441202D3E2043494E54413A20444553A7
:10503400414354495641520D0A0000002A2A2A20AD
:1050440053454355454E4349412044452050415220
:105054004144412046494E414C495A414441202A49
:105064002A2A0D0A000000004552524F523A20529B
:1050740053343835204F43555041444F2C20455329
:1050840050455245204C41205245535055455354A8
:10509400412041435455414C0D0A00004552524FA2
:1050A400523A20414343494F4E204155544F4D41BC
:1050B400544943412050454E4449454E54452C20C3
:1050C4004553504552450D0A000000004552524FC9
:1050D400523A204E4F205345205055444F205452AD
:1050E400414E534D4954495220504F52205253344B
:1050F40038350D0A000000004552524F523A204301
:105104004F4D414E444F20494E434F4D504C455412
:105114004F0D0A004552524F523A204E4F444F20F1
:10512400494E56414C49444F2E2055534520542056
:105134004F20430D0A0000004552524F523A204579
:105144004C20434F4D414E444F2050494E47204E32
:105154004F2052454349424520504152414D455408
:10516400524F530D0A0000005458202D3E20544144
:105174004E5155453A2050494E470D0A0000000053
:105184005458202D3E2043494E54413A2050494E14
:10519400470D0A004552524F523A20454C20434F86
:1051A4004D414E444F20434F4E53554C5441204E95
:1051B4004F2052454349424520504152414D4554A8
:1051C400524F530D0A0000005458202D3E205441E4
:1051D4004E5155453A205045444952204553544177
:1051E400444F0D0A000000005458202D3E2043492E
:1051F4004E54413A20504544495220455354414469
:105204004F0D0A004D41455354524F3A20494E41E7
:10521400435449564F0D0A004D41455354524F3A99
:105224002041435449564F0D0A0000004D41455357
:1052340054524F3A20414C41524D410D0A00000056
:105244004D41455354524F3A2045535441444F2005
:10525400444553434F4E4F4349444F0D0A00000009
:105264004552524F523A20454C20434F4D414E44F3
:105274004F203A544D204E4F205245434942452039
:10528400504152414D4554524F530D0A0000000005
:105294004552524F523A203A4D20534F4C4F2045DD
:1052A4005849535445205041524120454C205441C3
:1052B4004E5155450D0A00005458202D3E205441AE
:1052C4004E5155453A205045444952204553544186
:1052D400444F20444F534946494341444F520D0AD9
:1052E400000000004552524F523A203A5320534F87
:1052F4004C4F204558495354452050415241204574
:105304004C2054414E5155450D0A00004552524F10
:10531400523A20534554504F494E5420494E564119
:105324004C49444F0D0A00005458202D3E2054414E
:105334004E5155453A20434F4E46494755524152E6
:1053440020534554504F494E540D0A004552524F74
:10535400523A20555345203A4D52310D0A0000006F
:105364004D41455354524F3A204E4F204841592005
:10537400414C41524D41204143544956410D0A008C
:105384004D41455354524F3A20414C41524D4120D6
:105394005245534554454144412E205349535445A5
:1053A4004D4120494E41435449564F0D0A000000D7
:1053B4004552524F523A203A52204E4F2056414CB9
:1053C40049444F20504152412045535445204E4FAB
:1053D400444F0D0A000000004552524F523A2052E9
:1053E400454345544120494E56414C4944410D0AD8
:1053F400000000005458202D3E2054414E51554584
:105404003A20434F4E464947555241522052454354
:105414004554410D0A0000004552524F523A203A79
:105424004920534F4C4F204558495354452050412F
:10543400524120454C2054414E5155450D0A00001F
:105444004552524F523A20555345203A5449302040
:105454004F203A5449310D0A000000004552524F82
:10546400523A20454C2053495354454D41204E4F08
:1054740020455354412041435449564F0D0A0000DE
:105484005458202D3E2054414E5155453A20494E02
:10549400494349415220444F5349464943414349B2
:1054A4004F4E0D0A000000005458202D3E20544158
:1054B4004E5155453A2041424F5254415220444F97
:1054C40053494649434143494F4E0D0A00000000E9
:1054D4004552524F523A20555345203A5441310DCA
:1054E4000A0000005458202D3E2054414E51554589
:1054F4003A20524553455445415220414C41524D66
:10550400410D0A004552524F523A20555345203A14
:10551400434130204F203A4341310D0A000000003E
:105524005458202D3E2043494E54413A204143547F
:10553400495641520D0A00005458202D3E2043493B
:105544004E54413A20444553414354495641520D27
:105554000A0000004552524F523A20555345203A12
:105564004D4130204F203A4D41310D0A00000000DA
:105574004552524F523A2053495354454D412045C8
:105584004E20414C41524D412E20434F5252494AE4
:1055940041204C4120434155534120592052455309
:1055A4004554454520454C204D41455354524F0DDB
:1055B4000A0000004D41455354524F3A2053495379
:1055C40054454D4120494E41435449564F0D0A001C
:1055D4004552524F523A2053495354454D41204568
:1055E4004E20414C41524D412E2052455345544585
:1055F40045204C4120414C41524D4120414E54459F
:105604005320444520414354495641520D0A000059
:105614004D41455354524F3A2053495354454D41FB
:105624002041435449564F0D0A0000004552524F41
:10563400523A203A4320534F4C4F20455849535433
:10564400452050415241204C412043494E54410D84
:105654000A0000004552524F523A20555345203A11
:105664004343310D0A0000005458202D3E20434985
:105674004E54413A20454E5452415220454E204307
:105684004F4E46494755524143494F4E0D0A00007B
:105694004552524F523A203A5420534F4C4F2045D2
:1056A40058495354452050415241204C41204349CC
:1056B4004E54410D0A0000004552524F523A2055B3
:1056C4005345203A4354310D0A0000005458202D0C
:1056D4003E2043494E54413A2048414345522054C8
:1056E4004152410D0A0000004552524F523A203AAD
:1056F4004620534F4C4F2045584953544520504160
:105704005241204C412043494E54410D0A000000AF
:105714004552524F523A205045534F20444520435E
:10572400414C4942524143494F4E20494E56414C07
:1057340049444F0D0A0000005458202D3E2043498F
:105744004E54413A2043414C494252415220485818
:105754003731310D0A0000004552524F523A203A77
:105764004220534F4C4F20455849535445205041F3
:105774005241204C412043494E54410D0A0000003F
:105784004552524F523A20555345203A4342302C09
:10579400203A434231204F203A4342320D0A00005E
:1057A4005458202D3E2043494E54413A20434F4EF5
:1057B40054524F4C2044452042414E44410D0A006E
:1057C4004552524F523A203A4420534F4C4F2045B1
:1057D40058495354452050415241204C412043499B
:1057E4004E54410D0A0000004552524F523A205582
:1057F4005345203A4344310D0A0000005458202DEB
:105804003E2043494E54413A20434F4E54494E554D
:10581400415220504553414A450D0A004552524FCA
:10582400523A20434F4D414E444F20494E56414C2D
:1058340049444F0D0A0000004552524F523A204E3F
:105844004F205345205055444F20494E4943494128
:1058540052204155544F4D41544943414D454E54B6
:105864004520454C20444F534946494341444F52F7
:105874002E20555345203A5449310D0A00000000AA
:105884005458204155544F4D415449434F202D3EC7
:105894002054414E5155453A20494E4943494152BD
:1058A40020444F53494649434143494F4E0D0A0052
:1058B4004552524F523A204E4F20534520505544A2
:1058C4004F20434F4E54494E554152204155544F59
:1058D4004D41544943414D454E5445204C4120438C
:1058E400494E54412E20555345203A4344310D0A24
:1058F400000000005458204155544F4D4154494331
:105904004F202D3E2043494E54413A20434F4E549C
:10591400494E55415220504553414A450D0A000015
:105924005258204E4F20534F4C4943495441444F01
:105934003A204F524947454E3D257520434D443D3D
:105944003078253032580D0A0000000052544120AE
:10595400494E45535045524144413A204F524947DC
:10596400454E3D257520434D443D30782530325811
:105974000D0A00000D0A2A2A2A20415649534F20B5
:1059840043494E54413A204F424A45544F204445DE
:105994005445435441444F2C204553504552414EA5
:1059A400444F20414C20444F534946494341444FBE
:1059B40052202A2A2A0D0A00456C206D61657374F1
:1059C400726F20696E696369617261206175746FB9
:1059D4006D61746963616D656E746520656C206CBE
:1059E4006C656E61646F2E0D0A0000000D0A2A2A90
:1059F4002A20504553414A4520434F4D504C45546D
:105A040041444F3A2025752C25752067202A2A2ADF
:105A14000D0A00000D0A2A2A2A20415649534F2014
:105A240054414E5155453A204C4C454E41444F202B
:105A3400434F4D504C455441444F202A2A2A0D0AC5
:105A440000000000456C206D61657374726F206FF7
:105A54007264656E617261206175746F6D617469E1
:105A640063616D656E74652061206C612063696E8D
:105A7400746120636F6E74696E75617220636F6EFA
:105A840020656C20706573616A652E0D0A00000044
:105A94005258203C2D2054414E5155453A20504FE8
:105AA4004E4720434F52524543544F0D0A000000C5
:105AB4005258203C2D2043494E54413A20504F4ED9
:105AC4004720434F52524543544F0D0A00000000F3
