:020000040800F2
:1000000000500020BD200008151B00081D1B000823
:10001000251B00082D1B0008351B000800000000F0
:100020000000000000000000000000003D1B000870
:10003000491B000800000000551B0008611B000858
:1000400005210008052100080521000805210008F8
:100050000521000805210008052100086D1B000886
:1000600005210008052100080521000805210008D8
:1000700005210008052100080521000805210008C8
:1000800005210008052100080521000805210008B8
:1000900005210008052100080521000805210008A8
:1000A0000521000805210008052100087D1B000826
:1000B0000521000805210008052100080521000888
:1000C0000521000805210008052100080521000878
:1000D00005210008911B000805210008A51B000848
:1000E0000521000805210008052100080000000086
:1000F0000000000000000000000000000000000000
:0C01000000000000000000005FF808F1A3
:10010C0010B5054C237833B9044B13B10448AFF345
:10011C0000800123237010BD60000020000000004F
:10012C001059000808B5034B1BB103490348AFF342
:10013C00008008BD00000000640000201059000879
:10014C00034613F8012B002AFBD1181A013870470B
:10015C0080B588B000AF07F1100300221A605A6016
:10016C009A60DA60494B9B69484A43F010039361EB
:10017C00464B9B6903F01003FB60FB68434B9B6988
:10018C00424A43F020039361404B9B6903F02003E8
:10019C00BB60BB683D4B9B693C4A43F004039361D5
:1001AC003A4B9B6903F004037B607B68374B9B697C
:1001BC00364A43F008039361344B9B6903F0080300
:1001CC003B603B6800224FF40051314802F077FB52
:1001DC0000224FF201012F4802F071FB00224FF474
:1001EC00C0612D4802F06BFB4FF400533B610123BF
:1001FC007B610023BB610223FB6107F110031946ED
:10020C00234802F0C1F902233B6100237B610123E7
:10021C00BB6107F1100319461F4802F0B5F94FF204
:10022C0001033B6101237B610023BB610223FB6162
:10023C0007F110031946174802F0A6F902233B6197
:10024C00164B7B610023BB6107F110031946114863
:10025C0002F09AF94FF4C0633B6101237B610023E8
:10026C00BB610223FB6107F1100319460A4802F037
:10027C008BF900220221072002F09DF8072002F0E2
:10028C00B6F800BF2037BD4680BD00BF001002404D
:10029C0000100140000C014000080140000011104A
:1002AC0080B582B000AF78607B681B68384A934297
:1002BC006AD17B681B7F012B66D1364B1B78DBB276
:1002CC00002B1AD10021786803F0EEFB0346324A6A
:1002DC001360304B01221A707B681B681A6A7B68AA
:1002EC001B6822F00A021A627B681B681A6A7B6818
:1002FC001B6842F002021A6246E00021786803F0A3
:10030C00D3FB0346254A1360244B1A68224B1B6807
:10031C009A4207D3214B1A681F4B1B68D31A204AE9
:10032C00136008E01D4B1A681B4B1B68D31A03F5AE
:10033C0080331B4A13601A4B1B6840F2571202FBA6
:10034C0003F3184AA2FB03239B0B9AB2164B1A8099
:10035C00164B01221A700F4B00221A707B681B6817
:10036C001A6A7B681B6822F00A021A627B681A6898
:10037C007B681B68126A1A627B681B68DA687B6888
:10038C001B6822F00202DA6000BF0837BD4680BD50
:10039C00002C01408A0000207C00002080000020FE
:1003AC00840000205917B7D1880000208B00002052
:1003BC0080B500AF00224FF40071164802F07FFAAE
:1003CC00154B00221A70154B00221A70144B002288
:1003DC001A80144B1B681A6A124B1B6822F00A0213
:1003EC001A62104B1A680F4B1B68126A1A620021B2
:1003FC000C4802F0FFFF0346002B01D001F058F926
:10040C00084B1B68DA68074B1B6822F00202DA60A3
:10041C0000BF80BD000801408A0000208B00002036
:10042C0088000020B801002080B582B000AF3E4BA0
:10043C001B68DA683C4B1B6822F00202DA603B4B0B
:10044C0000221A703A4B00221A703A4B00221A8082
:10045C00354B1B681A6A344B1B6822F00A021A626D
:10046C00314B1A68304B1B68126A1A622E4B1B6890
:10047C0000225A6201224FF400712F4802F01FFA39
:10048C0000BF294B1B685B6A092BFAD900224FF479
:10049C000071294802F013FA234B1B6800225A62A0
:1004AC00214B1B686FF002021A611F4B1B68DA6844
:1004BC001D4B1B6842F00202DA6001F077FE786097
:1004CC0026E001F073FE02467B68D31A1D2B1FD960
:1004DC00154B1B68DA68144B1B6822F00202DA60B9
:1004EC00114B1B686FF002021A61104B00221A703C
:1004FC000D4B1B681A6A0C4B1B6822F00A021A621D
:10050C00094B1A68084B1B68126A1A62002307E031
:10051C00074B1B78DBB2002BD3D0064B1B889BB24E
:10052C0018460837BD4680BDB80100208A0000205F
:10053C008B0000208800002000080140B0B58AB074
:10054C0006AF01F0DBFD00F0DBF8FFF701FE01F078
:10055C0069FB01F0BDFB01F0B3FC01F0DBFC0021F9
:10056C00534802F055FE0346002B01D001F0A0F8D1
:10057C0008214F4802F04CFE0346002B01D001F03D
:10058C0097F800F005FE00F021FE00224FF4806188
:10059C00484802F094F9FFF70BFF012246494748FF
:1005AC0003F05DFF0346002B01D001F081F802231C
:1005BC0001224349434801F0D3F80346002B01D0F4
:1005CC0001F076F8404800F035FB404800F032FB73
:1005DC0001F0ECFD03463E4A136001F0E7FD0346D3
:1005EC003C4A136000F02AF93B4B1B78DBB2002B22
:1005FC0007D000F04BFE394B00221A70364B00220C
:10060C001A7000F04DFC01F0D1FD0246304B1B6816
:10061C00D31A452B06D901F0C9FD03462C4A1360A9
:10062C0000F0E0FC01F0C2FD02462A4B1B68D31A15
:10063C00B3F57A7FD6D32A4B1B68FB6001F0B6FD6D
:10064C000346244A1360274B1B78DBB21D46264B0E
:10065C001B78DBB21C4600F075FB03461946234B96
:10066C001B889BB21846224B1B68224A1278D2B2C6
:10067C0005920493FB6803930290019100942B461E
:10068C001D4A80211D4804F071FCB860BB68002B2A
:10069C00A8DDBB687F2B02DCBB689BB200E07F232C
:1006AC00FB80FA8864231549044803F04DFE99E752
:1006BC000002002000080140300100204802002008
:1006CC00000C0140900200202859000838590008FD
:1006DC0094000020980000203201002033010020FB
:1006EC002C0100209000002001000020220100209D
:1006FC002801002091000020705900089C00002067
:10070C0080B590B000AF07F11803282200211846DD
:10071C0004F062FC3B1D00221A605A609A60DA6099
:10072C001A610123BB614FF48033FB6100233B62F0
:10073C000123BB6202237B634FF48033BB634FF412
:10074C00E013FB6307F11803184602F001F90346A6
:10075C00002B01D000F0ACFF0F237B600223BB60A9
:10076C000023FB604FF480633B6100237B613B1DE6
:10077C000221184602F06EFB0346002B01D000F05C
:10078C0097FF00BF4037BD4680BD90B583B000AF2A
:10079C000446084611461A462346FB710346BB71B4
:1007AC000B467B7113463B71052001F009FD3B792B
:1007BC007A79B979F87901F01FF8034618460C37A5
:1007CC00BD4690BD90B583B000AF044608461146B7
:1007DC001A462346FB710346BB710B467B711346CD
:1007EC003B713B797A79B979F879FFF7CEFF0346FB
:1007FC00002B02D0034800F01DFA00BF0C37BD4699
:10080C0090BD00BFB859000880B400AF094B1B88DD
:10081C0001339AB2074B1A80064B1B88002B02D16E
:10082C00044B01221A80044B01221A7000BFBD46F2
:10083C0080BC70477A0100207801002090B583B00D
:10084C0000AFAD4B1B78DBB2002B00F0DA81AB4B69
:10085C001B78FB71AA4B1B78BB71AA4B1B787B7165
:10086C00A94B1B783B71A44B00221A70FB79002B0F
:10087C0040F0C9817B791BB21B021AB23B791BB2C7
:10088C0013431BB27B80BB79162B35DC002B40F35A
:10089C00B181013B152B00F2AD8101A252F823F07E
:1008AC000D090008010C0008010C0008010C0008DF
:1008BC00010C0008010C0008010C0008010C0008D8
:1008CC00010C0008010C0008010C0008010C0008C8
:1008DC00010C0008010C0008010C00082909000893
:1008EC004D090008BF090008E90900085D0A000865
:1008FC00D50B000873090008732B00F04F8179E1C8
:10090C003B797A79F8798121FFF73FFF0346002B79
:10091C0000F07B817D4800F08DF976E17C4B1B78F3
:10092C00DAB27C4B1B78DBB2F8799021FFF72DFF04
:10093C000346002B00F06B81774800F07BF966E1F1
:10094C00764B1B78DCB200F0FDF90346F8792246B1
:10095C009121FFF71AFF0346002B00F05A817048D3
:10096C0000F068F955E16F4B1B78002B13D06E4BE0
:10097C001B881B0A9BB2DAB26B4B1B88DBB2F87973
:10098C007221FFF702FF0346002B00F044816748F9
:10099C0000F050F93FE1F879002300227621FFF7AF
:1009AC00F4FE0346002B00F03681614800F042F95A
:1009BC0031E17B88182B06D9BA79F8790223A12169
:1009CC00FFF700FF2AE17B88DAB25A4B1A70BA792A
:1009DC00F8790023A021FFF7F5FE1FE17B88002B9F
:1009EC0004D07B8842F21072934206D9BA79F87916
:1009FC000223A121FFF7E6FE29E0484B1B78DBB26E
:100A0C00022B04D0454B1B78DBB2002B06D1BA79F4
:100A1C00F8790323A121FFF7D5FE18E0464A7B881D
:100A2C0013807B884FF4217202FB03F33233434A69
:100A3C00A2FB03235B09424A1360424B01221A704A
:100A4C00BA79F8790023A021FFF7BCFEE6E0E5E0D7
:100A5C007B79002B02D13B79012B06D9BA79F87935
:100A6C000123A121FFF7AEFE97E03B79002B08D1C3
:100A7C0000F0DEF9BA79F8790023A021FFF7A2FE85
:100A8C00CCE0314B1B78DBB2012B06D1BA79F8796B
:100A9C000423A121FFF796FEC0E02A4B1B78DBB2A2
:100AAC00002B06D1BA79F8790523A121FFF78AFE2C
:100ABC00B4E01A4B1B78DBB2022B04D0174B1B781B
:100ACC00DBB2002B06D1BA79F8790323A121FFF709
:100ADC0079FE62E0114B1B78DBB2032B36D100F0B0
:100AEC0031F90346002B31D0BA79F8790623A121CC
:100AFC00FFF768FE51E000BFAB010020AD01002004
:100B0C00AE010020AF010020B0010020E059000828
:100B1C009100002090000020045A000800000020E2
:100B2C00305A0008780100207A0100205C5A000835
:100B3C00885A000801000020220100201F85EB517B
:100B4C0028010020240100208C000020354B1B784C
:100B5C00002B06D0BA79F8790323A121FFF732FED6
:100B6C005CE0314B00221A6000F0ECF80346002BDD
:100B7C0009D02E4B02221A70BA79F8790023A021E1
:100B8C00FFF720FE4AE0294B00221A70BA79F87957
:100B9C000123A021FFF716FE40E03FE07B791BB25A
:100BAC001B021AB23B791BB213431BB23B801D4B89
:100BBC001B78002B31D01E4B1B883A889A422CD1C3
:100BCC00184B00221A7028E07B79002B02D13B795C
:100BDC00012B06D0BA79F8790123A121FFF7F2FD98
:100BEC001CE000F03BF9BA79F8790023A021FFF75B
:100BFC00E9FD13E0BA79F8790723A121FFF7E2FDAB
:100C0C000CE000BF0AE000BF08E000BF06E000BF38
:100C1C0004E000BF02E000BF00E000BF0C37BD469F
:100C2C0090BD00BF780100202C01002000000020A6
:100C3C007A01002080B582B000AF78607B68002B11
:100C4C000AD07868FFF77CFA03469AB26423796875
:100C5C00034803F079FB00E000BF0837BD4680BDB8
:100C6C004802002080B588B002AFF860B9607A60A5
:100C7C007B680093BB68FA6880210C4804F076F915
:100C8C0078617B69002B0DDD7B697F2B02DC7B6936
:100C9C009BB200E07F237B827A8A64230349044859
:100CAC0003F052FB00BF1837BD4680BD9C000020EE
:100CBC004802002080B485B000AF78603960002312
:100CCC00FB607B68002B06D03B68002B03D07B6855
:100CDC001B78002B26D100232CE07B681B782F2B54
:100CEC0003D97B681B78392B01D9002322E07B6860
:100CFC001B78303BBB60BB68DB43114AA2FB032370
:100D0C00DB08FA689A4201D9002313E0FA6813460B
:100D1C009B0013445B001A46BB681344FB607B6862
:100D2C0001337B607B681B78002BD6D13B68FA685B
:100D3C001A60012318461437BD4680BC704700BFAB
:100D4C00CDCCCCCC80B500AF0221054801F0A0FD84
:100D5C000346002B0CBF01230023DBB2184680BDD9
:100D6C000008014080B500AF254B1B78DBB2012B8E
:100D7C0003D12448FFF75EFF41E0234B1B78DBB225
:100D8C00002B03D12148FFF755FF38E0204B1B788F
:100D9C00DBB2022B04D01E4B1B78DBB2002B03D131
:100DAC001C48FFF747FF2AE0194B1B78DBB2032BDB
:100DBC0008D1FFF7C7FF0346002B03D01648FFF7F7
:100DCC0039FF1CE0154B1B78002B03D01448FFF7A0
:100DDC0031FF14E0134B00221A60FFF7B3FF0346F8
:100DEC00002B06D00A4B02221A700F48FFF722FF85
:100DFC0005E0074B00221A700C48FFF71BFF80BD63
:100E0C008C000020B45A000824010020CC5A0008A1
:100E1C0000000020E05A0008005B00087801002068
:100E2C00245B00082C0100204C5B0008685B000868
:100E3C0080B500AF00F0CAF9054B01221A70054BC2
:100E4C0000221A70044B00221A6000BF80BD00BF44
:100E5C0000000020780100202C01002080B500AF9C
:100E6C0000F096F9094B00221A70094B00221A70F7
:100E7C00084B00221A70084B00221A7000224FF403
:100E8C008061064801F01BFD00BF80BD21010020E0
:100E9C0092000020910000208C00002000080140EE
:100EAC0080B582B000AFFFF74DFF0346FB71424B9C
:100EBC001B78DBB2032B74D801A252F823F000BFCD
:100ECC00DD0E0008F50E0008FB0E00089D0F000853
:100EDC0000F07CF9FB79002B66D0374B02221A709C
:100EEC003648FFF7A7FE5FE000F070F95FE0FB7992
:100EFC00002B05D1FFF79CFF3148FFF79BFE56E016
:100F0C00304B1B68002B05D1FFF792FF2E48FFF7E3
:100F1C0091FE4CE02B4B1A6813469B0013441B01AB
:100F2C001A462A4BA3FB02235B093B60284B1A6829
:100F3C00244B1B689A4210D300F048F91E4B032235
:100F4C001A70FFF761FC224B1B68224A128892B27E
:100F5C0019462148FFF786FE29E001224FF4804113
:100F6C001E4801F0ACFC00224FF400411B4801F07C
:100F7C00A6FC174B1B683A689A4204D9184B1B689D
:100F8C006222DA6313E0164B1B684B22DA630EE025
:100F9C0000F01CF9FB79002B08D1074B01221A70C9
:100FAC0004E0FFF745FF02E000BF00E000BF00BF18
:100FBC000837BD4680BD00BF00000020805B0008E4
:100FCC00AC5B000828010020C85B00081F85EB51B2
:100FDC002C01002022010020E45B0008000C0140E1
:100FEC000002002080B582B000AF00F049FA034641
:100FFC00BB80BB88012B02D9BB881C2B1AD900F0F3
:10100C00C7F8584B1B78FF2B05D0564B1B78013378
:10101C00DAB2544B1A70534B1B780E2B40F29D8056
:10102C00514B1B78DBB2012B00F09780032000F0B2
:10103C00E5F892E04B4B00221A704C4ABB881380A7
:10104C004A4B1B88DBB2C3F11C03DAB2484B1A7053
:10105C00454B1B78DBB2012B41D0454B1B78DBB2E7
:10106C00182B03D9022000F0C9F838E0414B1B784B
:10107C00002B31D0404B1B78002B0DD13E4B012265
:10108C001A7001F093F803463C4A1360384B1B78F6
:10109C00DAB23B4B1A7022E001F088F80246374B6B
:1010AC001B68D31A43F69722934218D9304B1B78FE
:1010BC00DAB2334B1B789A4203D8012000F09EF829
:1010CC000DE001F073F803462C4A1360284B1B7893
:1010DC00DAB22B4B1A7002E0274B00221A70224B0B
:1010EC001B78DBB2002B35D1264B1B78DBB21A46B2
:1010FC001F4B1B78DBB2D31A9BB27B80B7F9023043
:10110C00002B24DD1B4B01221A70B7F90230072B80
:10111C0002DD6323FB7109E0B7F9022013461B01C2
:10112C0013445B00DB08DBB24133FB7101224FF44B
:10113C008051154801F0C3FB00224FF400511248B6
:10114C0001F0BDFB114B1B68FA795A6306E000F005
:10115C001FF803E000F01CF800E000BF0837BD46A4
:10116C0080BD00BF920000208C0000208E0000206B
:10117C009000002093000020210100201C01002081
:10118C002001002001000020000C01400002002082
:10119C0080B500AF0A4B00221A700A4B1B68002264
:1011AC005A6300224FF48051074801F088FB00225B
:1011BC004FF40051044801F082FB00BF80BD00BF1A
:1011CC009300002000020020000C014080B500AF0D
:1011DC00084B1B680022DA6300224FF4804106485A
:1011EC0001F06DFB00224FF40041034801F067FB56
:1011FC0000BF80BD00020020000C014080B582B011
:10120C0000AF0346FB710E4B01221A700D4AFB799D
:10121C0013700D4B00221A70FFF7BAFFFFF708FE90
:10122C0001224FF48061094801F049FBFB7900224F
:10123C0019460748FFF716FD00BF0837BD4680BDAD
:10124C008C000020910000202101002000080140AA
:10125C000C5C000880B483B000AF0346FB80FB88B5
:10126C00022B09D1074B1B78DBB2022B04D1064BA6
:10127C001B680133044A136000BF0C37BD4680BCA9
:10128C00704700BF000000202C01002080B582B008
:10129C0000AF654B1B78DBB2002B03D06348FFF724
:1012AC00C9FCBDE0624B1B78002B03D16148FFF7F2
:1012BC00C1FCB5E05E4B1B78FB71FB79602B05D94B
:1012CC00FB797A2B02D8FB79203BFB713B46194604
:1012DC005948FFF7EFFC0346002B03D15748FFF7A3
:1012EC00A9FC9DE0FB79413B122B00F2958001A2F9
:1012FC0052F823F00B1400082514000825140008DC
:10130C0025140008251400082514000825140008CD
:10131C0025140008E51300082514000825140008FE
:10132C0025140008251400082514000825140008AD
:10133C002514000825140008751300084D13000827
:10134C003B68182B05D9002218213D48FFF78AFC71
:10135C0066E03B68DAB23B4B1A703B6800221946D8
:10136C003948FFF77FFC5BE03B68002B04D03B68FF
:10137C0042F21072934206D9002242F210713348A5
:10138C00FFF770FC4CE0324B1B78DBB2022B04D025
:10139C002F4B1B78DBB2002B03D12E48FFF74AFCF6
:1013AC003EE03B689AB22C4B1A803B684FF421729A
:1013BC0002FB03F33233294AA2FB03235B09284ABD
:1013CC001360284B01221A703B68254A1268194693
:1013DC002548FFF747FC23E03B68012B02D1FFF7C0
:1013EC00C1FC1DE03B68002B05D1FFF721FD1F4818
:1013FC00FFF720FC14E01E48FFF71CFC10E03B68D4
:10140C00012B05D1FFF72AFD1A48FFF713FC07E063
:10141C001948FFF70FFC03E01848FFF70BFC00BF5F
:10142C000837BD4680BD00BF33010020285C000892
:10143C0038010020485C0008390100205C5C000881
:10144C00785C000801000020905C00089C5C00089F
:10145C0000000020B45C0008220100201F85EB5125
:10146C002801002024010020D05C0008EC5C00085E
:10147C00FC5C0008105D0008245D0008345D000869
:10148C0080B582B000AFFEF7CFFF03463B80002350
:10149C007B603B88012B02D93B881E2B01D9002392
:1014AC003AE01F4B1B7819461E4A3B8822F8113034
:1014BC001B4B1B785A1C1C4B83FB02135910D31764
:1014CC00C91A0B469B000B44D11ACAB2144B1A70A2
:1014DC00164B1B78042B05D8144B1B780133DAB24E
:1014EC00124B1A700023FB700AE0FB780D4A32F89D
:1014FC0013301A467B6813447B60FB780133FB7016
:10150C000A4B1B78FA789A42EFD3084B1B781A4691
:10151C007B68B3FBF2F39BB218460837BD4680BD1F
:10152C007C01002080010020676666668A0100202D
:10153C0080B584B000AF78607B681B682F4A9342FB
:10154C004FD12F4B1B78FB73FB7B3A2B11D12D4BBF
:10155C001B78DBB2002B0CD12B4B01221A702B4BBE
:10156C0000221A702A4B00221A702A4B00221A7081
:10157C0031E0254B1B78DBB2002B2CD0214B1B7898
:10158C00DBB2002B27D1FB7B0A2B02D0FB7B0D2B74
:10159C000DD11E4B1B78DBB21A461E4B0021995401
:1015AC00194B00221A70174B01221A7013E0174BBB
:1015BC001B78DBB23E2B0BD8144B1B78DBB25A1CBE
:1015CC00D1B2124A11701946124AFB7B535402E0F5
:1015DC000F4B01221A70012209490F4802F03FFFFC
:1015EC0007E07B681B680D4A934202D1786800F0D3
:1015FC0063F900BF1037BD4680BD00BF0038014005
:10160C003001002032010020310100203401002083
:10161C00330100203801002048020020004800401F
:10162C0080B584B000AF78607B681B68194A934220
:10163C0024D10023FB607B681B681B68FB607B6804
:10164C001B685B68FB60FB68134B00221A70134B22
:10165C0000221A70124B00221A707B6800225A6406
:10166C007B68202283F842207B68002283F840208C
:10167C0001220C490C4802F0F2FE07E07B681B6863
:10168C000A4A934202D1786800F0C6F900BF1037BD
:10169C00BD4680BD003801403101002034010020DE
:1016AC003301002030010020480200200048004097
:1016BC0080B582B000AF72B600BF4FF4005107483E
:1016CC0001F015F900237B6002E07B6801337B603D
:1016DC007B68034A9342F8DDEFE700BF001001403E
:1016EC003F420F0080B485B000AF78600B46FB70B2
:1016FC000023FB737B68002B01D100232AE000231D
:10170C00BB7322E0BB7B7A6813441A78FB7B534093
:10171C00FB7300237B7312E097F90F30002B08DA70
:10172C0097F90F305B005BB283F007035BB2FB737E
:10173C0002E0FB7B5B00FB737B7B01337B737B7B6E
:10174C00072BE9D9BB7B0133BB73BA7BFB789A427D
:10175C00D8D3FB7B18461437BD4680BC70470000BD
:10176C0080B584B000AFF860B96011461A460B46DC
:10177C00FB8013467B71FB68002B05D0BB68002BEC
:10178C0002D0FB88002B01D1012327E0154AFB680E
:10179C001360144ABB685360124AFB881381114AC8
:1017AC007B7993720F4B0122DA720F4B00221A7065
:1017BC000E4B00221A700E4B00221A70094B5B68FC
:1017CC00084A11890022184601F079F8054B1B686C
:1017DC0001220849184602F042FE0346184610370B
:1017EC00BD4680BD8C010020A9010020AA0100206B
:1017FC00AB010020A801002090B585B000AF0446D5
:10180C00084611461A462346FB710346BB710B462C
:10181C007B7113463B71254BDB7A002B07D0234B96
:10182C001B68002B03D0214B5B68002B01D10123DB
:10183C0037E01F4B3A221A701D4AFB7953701B4B31
:10184C009A7A1B4B9A701A4ABB79D370184A7B79D7
:10185C001371174A3B79537105211648FFF742FF64
:10186C0003461A46124B9A71114B0D22DA710F4B2B
:10187C005B680E4A11890122184601F020F80B4BC7
:10188C001868142308220A4902F05EFD0346FB7314
:10189C00064B5B68054A11890022184601F00FF8C7
:1018AC00FB7B18461437BD4690BD00BF8C01002051
:1018BC00980100209901002080B584B000AF7860B9
:1018CC00494BDB7A002B00F08B807B68002B00F0FF
:1018DC008780454B1B68002B00F082807B681A6860
:1018EC00414B1B681B689A427AD1404B1B78002BEA
:1018FC0015D13F4B1B783A2B6AD13E4B00221A7004
:10190C003C4B1B785A1CD1B23A4A11701A46384BD0
:10191C001978394B9954354B01221A7058E0354BD4
:10192C001B78072B0BD8334B1B785A1CD1B2314A7E
:10193C0011701A462E4B19782F4B995405E02D4BEC
:10194C0000221A70294B00221A702A4B1B78072B85
:10195C003ED9284B00221A70244B00221A70264BB9
:10196C001B783A2B34D1244BDB790D2B30D105214C
:10197C002248FFF7B7FE0346FB731F4B9B79FA7B9C
:10198C009A4225D11C4B5B78BB73174B9B7ABA7B65
:10199C009A4202D0BB7BFF2B1AD1194B1B78DBB2BE
:1019AC00002B15D1174ABB7B1370134B9A78164B2F
:1019BC001A70114BDA78154B1A700F4B1A79144BAD
:1019CC001A700D4B5A79134B1A700D4B01221A7069
:1019DC00054B1B6801220649184602F040FD00E049
:1019EC0000BF1037BD4680BD8C010020AA0100202D
:1019FC00A8010020A9010020A0010020A1010020C5
:101A0C00AB010020AC010020AD010020AE01002094
:101A1C00AF010020B001002080B584B000AF786029
:101A2C001C4BDB7A002B31D07B68002B2ED0194B52
:101A3C001B68002B2AD07B681A68164B1B681B6826
:101A4C009A4223D1144B00221A70144B00221A70A4
:101A5C000023FB607B681B681B68FB607B681B6852
:101A6C005B68FB60FB687B6800225A647B68202201
:101A7C0083F842207B68002283F84020054B1B68CA
:101A8C0001220749184602F0EAFC00E000BF1037BB
:101A9C00BD4680BD8C010020A9010020AA010020B8
:101AAC00A801002080B485B000AF154B9B69144A87
:101ABC0043F001039361124B9B6903F00103BB607C
:101ACC00BB680F4BDB690E4A43F08053D3610C4B60
:101ADC00DB6903F080537B607B680A4B5B68FB60BF
:101AEC00FB6823F0E063FB60FB6843F08063FB6002
:101AFC00044AFB68536000BF1437BD4680BC704776
:101B0C00001002400000014080B400AF00BFFDE7B0
:101B1C0080B400AF00BFFDE780B400AF00BFFDE7AD
:101B2C0080B400AF00BFFDE780B400AF00BFFDE79D
:101B3C0080B400AF00BFBD4680BC704780B400AF1E
:101B4C0000BFBD4680BC704780B400AF00BFBD462F
:101B5C0080BC704780B500AF00F016FB00BF80BDA5
:101B6C0080B500AF022000F0DBFE00BF80BD00009E
:101B7C0080B500AF024801F049FD00BF80BD00BF39
:101B8C00B801002080B500AF024802F08DFC00BF08
:101B9C0080BD00BF4802002080B500AF024802F0B3
:101BAC0083FC00BF80BD00BF9002002080B586B0D2
:101BBC0000AF7860144A154BD31A7B617B693B618B
:101BCC00134B1B68002B02D1114B124A1A60104B9D
:101BDC001A687B6813443A699A4207D203F004FAF4
:101BEC0003460C221A604FF0FF3309E0084B1B68C8
:101BFC00FB60074B1A687B681344054A1360FB684B
:101C0C0018461837BD4680BD005000200004000067
:101C1C00B40100202804002080B400AF00BFBD46F2
:101C2C0080BC704780B586B000AF07F1100300226E
:101C3C001A605A603B4600221A605A609A60DA6059
:101C4C00214B224A1A60204B47225A601E4B00221D
:101C5C009A601D4B4FF6FF72DA601B4B00221A6123
:101C6C00194B00225A61184B00229A61164801F058
:101C7C0071FB0346002B01D0FFF71AFD00233B61DB
:101C8C0000237B6107F1100319460F4802F09CFA00
:101C9C000346002B01D0FFF70BFD00233B60012313
:101CAC007B600023BB600023FB603B46002219468F
:101CBC00054801F09BFD0346002B01D0FFF7F8FC13
:101CCC0000BF1837BD4680BDB8010020002C014074
:101CDC0080B58AB000AF07F1200300221A605A6069
:101CEC003B1D00221A605A609A60DA601A615A61D0
:101CFC009A61284B4FF080421A60264B40F2CF225B
:101D0C005A60244B00229A60224B6322DA60214BEA
:101D1C0000221A611F4B00229A611E4801F028FA1A
:101D2C000346002B01D0FFF7C3FC00233B620023CA
:101D3C007B6207F120031946164802F045FA034668
:101D4C00002B01D0FFF7B4FC60237B600023BB6049
:101D5C000023FB6000237B613B1D002219460D48CC
:101D6C0001F0E0FD0346002B01D0FFF7A1FC3B1D69
:101D7C0008221946074801F0D5FD0346002B01D077
:101D8C00FFF796FC034800F06BF800BF2837BD4600
:101D9C0080BD00BF0002002080B588B000AF786025
:101DAC0007F1100300221A605A609A60DA607B68AF
:101DBC001B681A4A93422CD1194B9B69184A43F45D
:101DCC0000639361164B9B6903F40063FB60FB6833
:101DDC00134B9B69124A43F004039361104B9B69AC
:101DEC0003F00403BB60BB684FF480733B610023BA
:101DFC007B610023BB6107F110031946094800F011
:101E0C00C3FB002200211B2000F0D5FA1B2000F0A0
:101E1C00EEFA00BF2037BD4680BD00BF002C01404C
:101E2C00001002400008014080B485B000AF78601B
:101E3C007B681B68B3F1804F0BD1084BDB69074AF9
:101E4C0043F00103D361054BDB6903F00103FB6035
:101E5C00FB6800BF1437BD4680BC704700100240C1
:101E6C0080B588B000AF786007F1100300221A60CB
:101E7C005A609A60DA607B681B68B3F1804F17D1A7
:101E8C000D4B9B690C4A43F0040393610A4B9B690D
:101E9C0003F00403FB60FB6805233B6102237B61B9
:101EAC000223FB6107F110031946044800F06CFB98
:101EBC0000BF2037BD4680BD001002400008014025
:101ECC0080B500AF114B124A1A60104B4FF4E1323F
:101EDC005A600E4B00229A600C4B0022DA600B4BBE
:101EEC0000221A61094B0C225A61084B00229A619C
:101EFC00064B0022DA61054802F0D6F90346002BA6
:101F0C0001D0FFF7D5FB00BF80BD00BF4802002009
:101F1C000038014080B500AF114B124A1A60104BCB
:101F2C004FF4E1325A600E4B00229A600C4B0022A7
:101F3C00DA600B4B00221A61094B0C225A61084BD8
:101F4C0000229A61064B0022DA61054802F0ACF9D6
:101F5C000346002B01D0FFF7ABFB00BF80BD00BFD9
:101F6C00900200200048004080B58CB000AF786033
:101F7C0007F11C0300221A605A609A60DA607B68D1
:101F8C001B68464A934246D1454B9B69444A43F4ED
:101F9C0080439361424B9B6903F48043BB61BB69F3
:101FAC003F4B9B693E4A43F0080393613C4B9B6952
:101FBC0003F008037B617B694023FB6102233B62D6
:101FCC000323BB6207F11C031946364800F0DCFA08
:101FDC008023FB6100233B6200237B6207F11C031F
:101FEC001946304800F0D0FA2F4B5B68FB62FB6A55
:101FFC0043F0E063FB62FB6A43F00403FB622A4A92
:10200C00FB6A536000220021252000F0D4F9252022
:10201C0000F0EDF93EE07B681B68244A934239D10D
:10202C001F4BDB691E4A43F48023D3611C4BDB69D5
:10203C0003F480233B613B69194B9B69184A43F0BD
:10204C0008039361164B9B6903F00803FB60FB6864
:10205C004FF48063FB6102233B620323BB6207F1F5
:10206C001C0319460F4800F08FFA4FF40063FB6114
:10207C0000233B6200237B6207F11C0319460948CD
:10208C0000F082FA00220021272000F094F927208A
:10209C0000F0ADF900BF3037BD4680BD00380140BF
:1020AC0000100240000C01400000014000480040BC
:1020BC00FFF7B2FD0B480C490C4A002302E0D45840
:1020CC00C4500433C4188C42F9D3094A094C002378
:1020DC0001E013600432A242FBD302F08BFFFEF747
:1020EC002DFA70470000002060000020C05D000841
:1020FC006000002024040020FEE7000080B500AF43
:10210C00084B1B68074A43F010031360032000F0D0
:10211C0047F90F2000F008F8FFF7C4FC002318461D
:10212C0080BD00BF0020024080B582B000AF786057
:10213C00124B1A68124B1B7819464FF47A73B3FB87
:10214C00F1F3B2FBF3F3184600F05FF90346002BF2
:10215C0001D001230EE07B680F2B0AD8002279688E
:10216C004FF0FF3000F027F9064A7B68136000231C
:10217C0000E0012318460837BD4680BD040000204E
:10218C000C0000200800002080B400AF054B1B7829
:10219C001A46054B1B681344034A136000BFBD4627
:1021AC0080BC70470C000020D802002080B400AF27
:1021BC00024B1B681846BD4680BC7047D8020020F5
:1021CC0080B584B000AF7860FFF7F0FFB8607B6833
:1021DC00FB60FB68B3F1FF3F05D00A4B1B781A4636
:1021EC00FB681344FB6000BFFFF7E0FF0246BB68CF
:1021FC00D31AFA689A42F7D800BF00BF1037BD4611
:10220C0080BD00BF0C00002080B485B000AF7860AA
:10221C007B6803F00703FB600C4BDB68BB60BA68A0
:10222C004FF6FF031340BB60FB681A02BB681343F5
:10223C0043F0BF6343F40033BB60044ABB68D36014
:10224C0000BF1437BD4680BC704700BF00ED00E0F6
:10225C0080B400AF044BDB681B0A03F0070318467D
:10226C00BD4680BC704700BF00ED00E080B483B079
:10227C0000AF0346FB7197F90730002B0BDBFB79A2
:10228C0003F01F02064997F907305B09012000FA99
:10229C0002F241F8232000BF0C37BD4680BC7047CA
:1022AC0000E100E080B483B000AF03463960FB71FD
:1022BC0097F90730002B0ADB3B68DAB20C4997F927
:1022CC0007301201D2B20B4483F800230AE03B68BA
:1022DC00DAB20849FB7903F00F03043B1201D2B2C6
:1022EC000B441A7600BF0C37BD4680BC704700BF4C
:1022FC0000E100E000ED00E080B489B000AFF860D0
:10230C00B9607A60FB6803F00703FB61FB69C3F1FA
:10231C000703042B28BF0423BB61FB690433062B82
:10232C0002D9FB69033B00E000237B614FF0FF32D5
:10233C00BB6902FA03F3DA43BB681A407B699A4023
:10234C004FF0FF317B6901FA03F3D9437B680B40F3
:10235C00134318462437BD4680BC704780B582B005
:10236C0000AF78607B68013BB3F1807F01D3012320
:10237C000FE00A4A7B68013B53600F214FF0FF309E
:10238C00FFF790FF054B00229A60044B07221A605E
:10239C00002318460837BD4680BD00BF10E000E0A2
:1023AC0080B582B000AF78607868FFF72DFF00BF72
:1023BC000837BD4680BD80B586B000AF0346B96016
:1023CC007A60FB7300237B61FFF742FF78617A68C8
:1023DC00B9687869FFF790FF024697F90F301146FC
:1023EC001846FFF75FFF00BF1837BD4680BD80B5AC
:1023FC0082B000AF0346FB7197F907301846FFF720
:10240C0035FF00BF0837BD4680BD80B582B000AF38
:10241C0078607868FFF7A2FF034618460837BD4678
:10242C0080BD80B485B000AF78600023FB737B68FF
:10243C0093F82130DBB2022B08D07B6804229A631C
:10244C007B68002283F82020012320E07B681B6836
:10245C001A687B681B6822F00E021A607B681B6886
:10246C001A687B681B6822F001021A607B681A6C80
:10247C007B68DB6B012101FA02F25A607B68012256
:10248C0083F821207B68002283F82020FB7B1846F0
:10249C001437BD4680BC704780B584B000AF7860FF
:1024AC000023FB737B6893F82130DBB2022B05D041
:1024BC007B6804229A630123FB7351E07B681B68E1
:1024CC001A687B681B6822F00E021A607B681B6816
:1024DC001A687B681B6822F001021A607B681B6813
:1024EC00224A934229D07B681B68214A934222D00E
:1024FC007B681B681F4A93421AD07B681B681E4A74
:10250C00934212D07B681B681C4A93420AD07B68AA
:10251C001B681B4A934202D14FF480130EE04FF01C
:10252C0080730BE04FF4803308E04FF4805305E0E8
:10253C004FF4807302E0102300E00123114A536032
:10254C007B68012283F821207B68002283F82020FD
:10255C007B685B6B002B03D07B685B6B7868984760
:10256C00FB7B18461037BD4680BD00BF08000240FB
:10257C001C0002403000024044000240580002405F
:10258C006C0002400000024080B48BB000AF786059
:10259C00396000237B6200233B6269E101227B6A84
:1025AC0002FA03F3FB613B681B68FA691340BB61D9
:1025BC00BA69FB699A4240F058813B685B689A4A59
:1025CC0093425ED0984A934275D8984A934258D019
:1025DC00964A93426FD8964A934252D0944A934269
:1025EC0069D8944A93424CD0924A934263D8924A07
:1025FC00934246D0904A93425DD8122B2AD8122B84
:10260C0059D801A252F823F08F2600086926000839
:10261C007B260008BD260008C3260008C326000838
:10262C00C3260008C3260008C3260008C3260008DA
:10263C00C3260008C3260008C3260008C3260008CA
:10264C00C3260008C3260008C3260008712600080C
:10265C0085260008794A934213D02CE03B68DB684E
:10266C003B6229E03B68DB6804333B6224E03B6857
:10267C00DB6808333B621FE03B68DB680C333B6272
:10268C001AE03B689B68002B02D104233B6213E0E9
:10269C003B689B68012B05D108233B627B68FA6978
:1026AC001A6109E008233B627B68FA695A6103E00E
:1026BC0000233B6200E000BFBB69FF2B01D87B68A5
:1026CC0001E07B6804337B61BB69FF2B02D87B6A1A
:1026DC009B0002E07B6A083B9B003B617B691A68AC
:1026EC000F213B6901FA03F3DB431A40396A3B695A
:1026FC0001FA03F31A437B691A603B685B6803F0C9
:10270C008053002B00F0B1804D4B9B694C4A43F039
:10271C00010393614A4B9B6903F00103BB60BB68E7
:10272C00484A7B6A9B08023352F82330FB607B6A71
:10273C0003F003039B000F2202FA03F3DB43FA6856
:10274C001340FB607B68404A934213D07B683F4A3E
:10275C0093420DD07B683E4A934207D07B683D4A3A
:10276C00934201D1032306E0042304E0022302E098
:10277C00012300E000237A6A02F0030292009340E6
:10278C00FA681343FB602F497B6A9B080233FA6893
:10279C0041F823203B685B6803F48013002B06D0C0
:1027AC002D4B9A682C49BB6913438B6006E02A4B6E
:1027BC009A68BB69DB43284913408B603B685B68B4
:1027CC0003F40013002B06D0234BDA682249BB69B3
:1027DC001343CB6006E0204BDA68BB69DB431E4930
:1027EC001340CB603B685B6803F40033002B06D0CE
:1027FC00194B5A681849BB6913434B6006E0164BDA
:10280C005A68BB69DB43144913404B603B685B68F7
:10281C0003F48033002B21D00F4B1A680E49BB698F
:10282C0013430B6021E000BF000032100000311098
:10283C0000002210000021100000121000001110E6
:10284C00001002400000014000080140000C014053
:10285C000010014000140140000401400B4B1A68A9
:10286C00BB69DB43094913400B607B6A01337B6214
:10287C003B681A687B6A22FA03F3002B7FF48EAE56
:10288C0000BF00BF2C37BD4680BC70470004014020
:10289C0080B485B000AF78600B467B807B689A680B
:1028AC007B881340002B02D00123FB7301E0002333
:1028BC00FB73FB7B18461437BD4680BC704780B455
:1028CC0083B000AF78600B467B8013467B707B78BF
:1028DC00002B03D07A887B681A6103E07B881A048A
:1028EC007B681A6100BF0C37BD4680BC704780B452
:1028FC0085B000AF78600B467B807B68DB68FB6043
:10290C007A88FB6813401A04FB68D9437B880B4018
:10291C001A437B681A6100BF1437BD4680BC7047F0
:10292C0080B582B000AF0346FB80084B5A69FB8828
:10293C001340002B06D0054AFB885361FB881846D0
:10294C00FEF788FC00BF0837BD4680BD000401407F
:10295C0080B586B000AF78607B68002B01D1012375
:10296C0072E27B681B6803F00103002B00F0878088
:10297C00924B5B6803F00C03042B0CD08F4B5B6801
:10298C0003F00C03082B12D18C4B5B6803F48033DF
:10299C00B3F5803F0BD1894B1B6803F40033002B3C
:1029AC006CD07B685B68002B68D101234CE27B68A0
:1029BC005B68B3F5803F06D1804B1B687F4A43F4BC
:1029CC00803313602EE07B685B68002B0CD17B4B53
:1029DC001B687A4A23F480331360784B1B68774A60
:1029EC0023F4802313601DE07B685B68B3F5A02F94
:1029FC000CD1724B1B68714A43F4802313606F4BEC
:102A0C001B686E4A43F4803313600BE06B4B1B68FE
:102A1C006A4A23F480331360684B1B68674A23F4BB
:102A2C00802313607B685B68002B13D0FFF7BEFB21
:102A3C00386108E0FFF7BAFB02463B69D31A642BF6
:102A4C0001D9032300E25D4B1B6803F40033002B18
:102A5C00F0D014E0FFF7AAFB386108E0FFF7A6FB03
:102A6C0002463B69D31A642B01D90323ECE1534B87
:102A7C001B6803F40033002BF0D100E000BF7B682F
:102A8C001B6803F00203002B63D04C4B5B6803F014
:102A9C000C03002B0BD0494B5B6803F00C03082B89
:102AAC001CD1464B5B6803F48033002B16D1434B8F
:102ABC001B6803F00203002B05D07B681B69012BFC
:102ACC0001D00123C0E13D4B1B6823F0F8027B6869
:102ADC005B69DB00394913430B603AE07B681B6987
:102AEC00002B20D0364B01221A60FFF75FFB3861B8
:102AFC0008E0FFF75BFB02463B69D31A022B01D9B6
:102B0C000323A1E12D4B1B6803F00203002BF0D033
:102B1C002A4B1B6823F0F8027B685B69DB002749B2
:102B2C0013430B6015E0264B00221A60FFF73EFBA7
:102B3C00386108E0FFF73AFB02463B69D31A022BD7
:102B4C0001D9032380E11D4B1B6803F00203002B0A
:102B5C00F0D17B681B6803F00803002B3AD07B682C
:102B6C009B69002B19D0174B01221A60FFF71EFB33
:102B7C00386108E0FFF71AFB02463B69D31A022BB7
:102B8C0001D9032360E10D4B5B6A03F00203002BB8
:102B9C00F0D0012000F0CEFA1CE00A4B00221A60A3
:102BAC00FFF704FB38610FE0FFF700FB02463B69BF
:102BBC00D31A022B08D9032346E100BF00100240B0
:102BCC000000424280044242924B5B6A03F00203D3
:102BDC00002BE9D17B681B6803F00403002B00F089
:102BEC00A6800023FB758B4BDB6903F08053002B15
:102BFC000DD1884BDB69874A43F08053D361854BF9
:102C0C00DB6903F08053BB60BB680123FB75824B0F
:102C1C001B6803F48073002B18D17F4B1B687E4A12
:102C2C0043F480731360FFF7C1FA386108E0FFF7D3
:102C3C00BDFA02463B69D31A642B01D9032303E185
:102C4C00754B1B6803F48073002BF0D07B68DB683A
:102C5C00012B06D16F4B1B6A6E4A43F001031362C2
:102C6C002DE07B68DB68002B0CD16A4B1B6A694A30
:102C7C0023F001031362674B1B6A664A23F00403BB
:102C8C0013621CE07B68DB68052B0CD1614B1B6A63
:102C9C00604A43F0040313625E4B1B6A5D4A43F0C7
:102CAC00010313620BE05B4B1B6A5A4A23F00103CE
:102CBC001362584B1B6A574A23F0040313627B6858
:102CCC00DB68002B15D0FFF771FA38610AE0FFF7CB
:102CDC006DFA02463B69D31A41F28832934201D90C
:102CEC000323B1E04B4B1B6A03F00203002BEED025
:102CFC0014E0FFF75BFA38610AE0FFF757FA024677
:102D0C003B69D31A41F28832934201D903239BE0E9
:102D1C00404B1B6A03F00203002BEED1FB7D012B11
:102D2C0005D13C4BDB693B4A23F08053D3617B6874
:102D3C00DB69002B00F08780364B5B6803F00C03DB
:102D4C00082B61D07B68DB69022B46D1334B002208
:102D5C001A60FFF72BFA386108E0FFF727FA0246F2
:102D6C003B69D31A022B01D903236DE0294B1B6855
:102D7C0003F00073002BF0D17B681B6AB3F5803F26
:102D8C0008D1244B5B6823F400327B689B68214993
:102D9C0013434B601F4B5B6823F474127B68196AF6
:102DAC007B685B6A0B431B4913434B601B4B012233
:102DBC001A60FFF7FBF9386108E0FFF7F7F90246F4
:102DCC003B69D31A022B01D903233DE0114B1B683D
:102DDC0003F00073002BF0D035E0104B00221A608A
:102DEC00FFF7E4F9386108E0FFF7E0F902463B69C8
:102DFC00D31A022B01D9032326E0064B1B6803F0E0
:102E0C000073002BF0D11EE07B68DB69012B07D12E
:102E1C00012319E0001002400070004060004242A3
:102E2C000B4B5B68FB60FB6803F480327B681B6AAE
:102E3C009A4206D1FB6803F470127B685B6A9A4273
:102E4C0001D0012300E0002318461837BD4680BD91
:102E5C000010024080B584B000AF786039607B68A8
:102E6C00002B01D10123D0E06A4B1B6803F0070350
:102E7C003A689A4210D9674B1B6823F007026549E0
:102E8C003B6813430B60634B1B6803F007033A6802
:102E9C009A4201D00123B8E07B681B6803F002035F
:102EAC00002B20D07B681B6803F00403002B05D09B
:102EBC00594B5B68584A43F4E06353607B681B686A
:102ECC0003F00803002B05D0534B5B68524A43F4C4
:102EDC0060535360504B5B6823F0F0027B689B6837
:102EEC004D4913434B607B681B6803F00103002BB7
:102EFC0040D07B685B68012B07D1474B1B6803F400
:102F0C000033002B15D101237FE07B685B68022B1B
:102F1C0007D1414B1B6803F00073002B09D101232F
:102F2C0073E03D4B1B6803F00203002B01D101231E
:102F3C006BE0394B5B6823F003027B685B683649B6
:102F4C0013434B60FFF732F9F8600AE0FFF72EF9F4
:102F5C000246FB68D31A41F28832934201D903230B
:102F6C0053E02D4B5B6803F00C027B685B689B00A5
:102F7C009A42EBD1274B1B6803F007033A689A423D
:102F8C0010D2244B1B6823F0070222493B681343E1
:102F9C000B60204B1B6803F007033A689A4201D080
:102FAC00012332E07B681B6803F00403002B08D07C
:102FBC00194B5B6823F4E0627B68DB6816491343AA
:102FCC004B607B681B6803F00803002B09D0124B85
:102FDC005B6823F460527B681B69DB000E4913436A
:102FEC004B6000F021F802460B4B5B681B0903F0A9
:102FFC000F030A49CB5C22FA03F3094A1360094B0D
:10300C001B681846FFF790F8002318461037BD468A
:10301C0080BD00BF0020024000100240505D00083F
:10302C00040000200800002080B487B000AF00230B
:10303C00FB600023BB6000237B6100237B600023CB
:10304C003B611E4B5B68FB60FB6803F00C03042BBD
:10305C0002D0082B03D027E0194B3B6127E0FB681B
:10306C009B0C03F00F03174AD35C7B60FB6803F4E3
:10307C008033002B10D0114B5B685B0C03F0010309
:10308C00114AD35CBB607B680D4A03FB02F2BB6840
:10309C00B2FBF3F37B6104E07B680C4A02FB03F3A5
:1030AC007B617B693B6102E0054B3B6100BF3B6987
:1030BC0018461C37BD4680BC704700BF001002404C
:1030CC0000127A00685D0008785D000800093D0078
:1030DC0080B400AF024B1B681846BD4680BC7047DD
:1030EC000400002080B500AFFFF7F2FF0246054B4D
:1030FC005B681B0A03F007030349CB5C22FA03F35A
:10310C00184680BD00100240605D000880B500AF1D
:10311C00FFF7DEFF0246054B5B68DB0A03F0070393
:10312C000349CB5C22FA03F3184680BD0010024021
:10313C00605D000880B485B000AF78600A4B1B68F6
:10314C000A4AA2FB03235B0A7A6802FB03F3FB60C7
:10315C0000BFFB685A1EFA60002BF9D100BF00BFFC
:10316C001437BD4680BC704704000020D34D62105C
:10317C0080B582B000AF78607B68002B01D1012351
:10318C0041E07B6893F83D30DBB2002B06D17B68C5
:10319C00002283F83C207868FEF746FE7B6802220A
:1031AC0083F83D207B681A687B6804331946104607
:1031BC0000F0E2FC7B68012283F846207B68012248
:1031CC0083F83E207B68012283F83F207B68012234
:1031DC0083F840207B68012283F841207B68012220
:1031EC0083F842207B68012283F843207B6801220C
:1031FC0083F844207B68012283F845207B680122F8
:10320C0083F83D20002318460837BD4680BD0000DA
:10321C0080B584B000AF786039603B68002B09D171
:10322C007B6893F83E30DBB2012B14BF01230023E3
:10323C00DBB222E03B68042B09D17B6893F83F306A
:10324C00DBB2012B14BF01230023DBB215E03B687A
:10325C00082B09D17B6893F84030DBB2012B14BFEB
:10326C0001230023DBB208E07B6893F84130DBB22A
:10327C00012B14BF01230023DBB2002B01D001234F
:10328C005EE03B68002B04D17B68022283F83E2071
:10329C0013E03B68042B04D17B68022283F83F20A7
:1032AC000BE03B68082B04D17B68022283F840209A
:1032BC0003E07B68022283F841207B681B680122B3
:1032CC003968184600F05BFF7B681B681E4A934206
:1032DC0007D17B681B685A6C7B681B6842F4004200
:1032EC005A647B681B68184A93420ED07B681B6833
:1032FC00B3F1804F09D07B681B68144A934204D009
:10330C007B681B68124A934211D17B681B689B68CF
:10331C0003F00703FB60FB68062B10D07B681B686F
:10332C001A687B681B6842F001021A6007E07B6830
:10333C001B681A687B681B6842F001021A60002344
:10334C0018461037BD4680BD002C014000040040DB
:10335C000008004080B582B000AF78607B68002B1D
:10336C0001D1012341E07B6893F83D30DBB2002BA7
:10337C0006D17B68002283F83C207868FEF70CFDB0
:10338C007B68022283F83D207B681A687B680433D3
:10339C001946104600F0F0FB7B68012283F84620AA
:1033AC007B68012283F83E207B68012283F83F2052
:1033BC007B68012283F840207B68012283F841203E
:1033CC007B68012283F842207B68012283F843202A
:1033DC007B68012283F844207B68012283F8452016
:1033EC007B68012283F83D20002318460837BD4630
:1033FC0080BD000080B584B000AF786039600023D8
:10340C00FB733B68002B04D17B6893F83E30DBB236
:10341C0013E03B68042B04D17B6893F83F30DBB29C
:10342C000BE03B68082B04D17B6893F84030DBB28F
:10343C0003E07B6893F84130DBB2BB733B68002B35
:10344C0004D17B6893F84230DBB213E03B68042B69
:10345C0004D17B6893F84330DBB20BE03B68082B5C
:10346C0004D17B6893F84430DBB203E07B6893F8BB
:10347C004530DBB27B73BB7B012B02D17B7B012BF9
:10348C0001D00123B8E03B68002B04D17B680222F9
:10349C0083F83E2013E03B68042B04D17B680222A6
:1034AC0083F83F200BE03B68082B04D17B68022299
:1034BC0083F8402003E07B68022283F841203B68BC
:1034CC00002B04D17B68022283F8422013E03B6876
:1034DC00042B04D17B68022283F843200BE03B6869
:1034EC00082B04D17B68022283F8442003E07B681C
:1034FC00022283F845203B680C2B41D801A252F8DC
:10350C0023F000BF453500088D3500088D350008C7
:10351C008D350008573500088D3500088D350008AD
:10352C008D350008693500088D3500088D3500088B
:10353C008D3500087B3500087B681B68DA687B6872
:10354C001B6842F00202DA601DE07B681B68DA68D7
:10355C007B681B6842F00402DA6014E07B681B682D
:10356C00DA687B681B6842F00802DA600BE07B6863
:10357C001B68DA687B681B6842F01002DA6002E0B4
:10358C000123FB7300BFFB7B002B34D17B681B68D2
:10359C0001223968184600F0F2FD7B681B68184A56
:1035AC0093420ED07B681B68B3F1804F09D07B68C7
:1035BC001B68144A934204D07B681B68124A9342DE
:1035CC0011D17B681B689B6803F00703BB60BB6869
:1035DC00062B10D07B681B681A687B681B6842F04E
:1035EC0001021A6007E07B681B681A687B681B681D
:1035FC0042F001021A60FB7B18461037BD4680BDB5
:10360C00002C0140000400400008004080B584B04C
:10361C0000AF78607B681B68DB68FB607B681B68AD
:10362C001B69BB60BB6803F00203002B20D0FB6856
:10363C0003F00203002B1BD07B681B686FF00202A7
:10364C001A617B6801221A777B681B689B6903F0FF
:10365C000303002B03D07868FCF722FE05E07868A2
:10366C0000F06FFA786800F075FA7B6800221A7720
:10367C00BB6803F00403002B20D0FB6803F00403A9
:10368C00002B1BD07B681B686FF004021A617B68EF
:10369C0002221A777B681B689B6903F44073002B2A
:1036AC0003D07868FCF7FCFD05E0786800F049FA77
:1036BC00786800F04FFA7B6800221A77BB6803F039
:1036CC000803002B20D0FB6803F00803002B1BD051
:1036DC007B681B686FF008021A617B6804221A77FA
:1036EC007B681B68DB6903F00303002B03D078684D
:1036FC00FCF7D6FD05E0786800F023FA786800F056
:10370C0029FA7B6800221A77BB6803F01003002BA0
:10371C0020D0FB6803F01003002B1BD07B681B68C8
:10372C006FF010021A617B6808221A777B681B689D
:10373C00DB6903F44073002B03D07868FCF7B0FD11
:10374C0005E0786800F0FDF9786800F003FA7B6812
:10375C0000221A77BB6803F00103002B0CD0FB6826
:10376C0003F00103002B07D07B681B686FF001028C
:10377C001A61786800F0DCF9BB6803F08003002B59
:10378C000CD0FB6803F08003002B07D07B681B6810
:10379C006FF080021A61786800F07DFDBB6803F061
:1037AC004003002B0CD0FB6803F04003002B07D028
:1037BC007B681B686FF040021A61786800F0D3F9DF
:1037CC00BB6803F02003002B0CD0FB6803F0200334
:1037DC00002B07D07B681B686FF020021A61786899
:1037EC0000F050FD00BF1037BD4680BD80B586B0DF
:1037FC0000AFF860B9607A600023FB75FB6893F842
:10380C003C30012B01D1022388E0FB68012283F8B4
:10381C003C207B68002B1BD1FB681868BB681968BF
:10382C00BB685A68BB68DB6800F09CFBFB681B68D4
:10383C009A69FB681B6822F00C029A61FB681B6892
:10384C009969BB689A68FB681B680A439A6160E0D7
:10385C007B68042B1CD1FB681868BB681968BB68B3
:10386C005A68BB68DB6800F0D7FBFB681B689A6979
:10387C00FB681B6822F440629A61FB681B689969BB
:10388C00BB689B681A02FB681B680A439A6140E09C
:10389C007B68082B1BD1FB681868BB681968BB6870
:1038AC005A68BB68DB6800F0F3FBFB681B68DA69DD
:1038BC00FB681B6822F00C02DA61FB681B68D96993
:1038CC00BB689A68FB681B680A43DA6121E07B6875
:1038DC000C2B1CD1FB681868BB681968BB685A684C
:1038EC00BB68DB6800F00FFCFB681B68DA69FB68DF
:1038FC001B6822F44062DA61FB681B68D969BB68FB
:10390C009B681A02FB681B680A43DA6101E0012319
:10391C00FB75FB68002283F83C20FB7D18461837AA
:10392C00BD4680BD80B586B000AFF860B9607A60E6
:10393C000023FB75FB6893F83C30012B01D102236B
:10394C00AEE0FB68012283F83C207B680C2B00F274
:10395C009F8001A252F823F0993900089D3A000883
:10396C009D3A00089D3A0008D93900089D3A000894
:10397C009D3A00089D3A00081B3A00089D3A000841
:10398C009D3A00089D3A00085B3A0008FB681B68EA
:10399C00B968184600F05EF9FB681B689A69FB6809
:1039AC001B6842F008029A61FB681B689A69FB6805
:1039BC001B6822F004029A61FB681B689969BB685A
:1039CC001A69FB681B680A439A6164E0FB681B6810
:1039DC00B968184600F0A4F9FB681B689A69FB6883
:1039EC001B6842F400629A61FB681B689A69FB6869
:1039FC001B6822F480629A61FB681B689969BB683A
:103A0C001B691A02FB681B680A439A6143E0FB6856
:103A1C001B68B968184600F0EDF9FB681B68DA6999
:103A2C00FB681B6842F00802DA61FB681B68DA6904
:103A3C00FB681B6822F00402DA61FB681B68D96919
:103A4C00BB681A69FB681B680A43DA6123E0FB68F0
:103A5C001B68B968184600F037FAFB681B68DA690E
:103A6C00FB681B6842F40062DA61FB681B68DA6968
:103A7C00FB681B6822F48062DA61FB681B68D969F9
:103A8C00BB681B691A02FB681B680A43DA6102E017
:103A9C000123FB7500BFFB68002283F83C20FB7DF3
:103AAC0018461837BD4680BD80B485B000AF78602D
:103ABC0039600023FB603B680C2B31D801A252F813
:103ACC0023F000BF053B00082D3B00082D3B0008F0
:103ADC002D3B00080F3B00082D3B00082D3B000838
:103AEC002D3B0008193B00082D3B00082D3B00081E
:103AFC002D3B0008233B00087B681B685B6BFB605D
:103B0C000FE07B681B689B6BFB600AE07B681B68A3
:103B1C00DB6BFB6005E07B681B681B6CFB6000E0EB
:103B2C0000BFFB6818461437BD4680BC704700BF09
:103B3C0080B483B000AF786000BF0C37BD4680BC4A
:103B4C00704780B483B000AF786000BF0C37BD46BF
:103B5C0080BC704780B483B000AF786000BF0C3776
:103B6C00BD4680BC704780B483B000AF786000BFA6
:103B7C000C37BD4680BC704780B485B000AF786010
:103B8C0039607B681B68FB607B682F4A93420BD0C3
:103B9C007B68B3F1804F07D07B682C4A934203D0EB
:103BAC007B682B4A934208D1FB6823F07003FB60BF
:103BBC003B685B68FA681343FB607B68224A93425C
:103BCC000BD07B68B3F1804F07D07B681F4A9342C0
:103BDC0003D07B681E4A934208D1FB6823F44073E0
:103BEC00FB603B68DB68FA681343FB60FB6823F0FF
:103BFC0080023B685B691343FB607B68FA681A6060
:103C0C003B689A687B68DA623B681A687B689A62E0
:103C1C007B680D4A934203D13B681A697B681A632F
:103C2C007B6801225A617B681B6903F00103002B3E
:103C3C0005D07B681B6923F001027B681A6100BF09
:103C4C001437BD4680BC7047002C01400004004076
:103C5C000008004080B487B000AF786039607B68A2
:103C6C001B6A7B617B681B6A23F001027B681A620A
:103C7C007B685B683B617B689B69FB60FB6823F03E
:103C8C007003FB60FB6823F00303FB603B681B685D
:103C9C00FA681343FB607B6923F002037B613B688A
:103CAC009B687A6913437B617B681C4A93420CD1F5
:103CBC007B6923F008037B613B68DB687A691343FB
:103CCC007B617B6923F004037B617B68134A93421D
:103CDC0011D13B6923F480733B613B6923F400737E
:103CEC003B613B685B693A6913433B613B689B6989
:103CFC003A6913433B617B683A695A607B68FA689E
:103D0C009A613B685A687B685A637B687A691A6265
:103D1C0000BF1C37BD4680BC704700BF002C014063
:103D2C0080B487B000AF786039607B681B6A7B61B8
:103D3C007B681B6A23F010027B681A627B685B68E5
:103D4C003B617B689B69FB60FB6823F4E043FB6091
:103D5C00FB6823F44073FB603B681B681B02FA682A
:103D6C001343FB607B6923F020037B613B689B68FA
:103D7C001B017A6913437B617B681D4A93420DD109
:103D8C007B6923F080037B613B68DB681B017A69EC
:103D9C0013437B617B6923F040037B617B68144A8E
:103DAC00934213D13B6923F480633B613B6923F459
:103DBC0000633B613B685B699B003A6913433B6161
:103DCC003B689B699B003A6913433B617B683A698A
:103DDC005A607B68FA689A613B685A687B689A6398
:103DEC007B687A691A6200BF1C37BD4680BC70477D
:103DFC00002C014080B487B000AF786039607B68DC
:103E0C001B6A7B617B681B6A23F480727B681A6275
:103E1C007B685B683B617B68DB69FB60FB6823F05C
:103E2C007003FB60FB6823F00303FB603B681B68BB
:103E3C00FA681343FB607B6923F400737B613B6876
:103E4C009B681B027A6913437B617B681D4A934212
:103E5C000DD17B6923F400637B613B68DB681B023B
:103E6C007A6913437B617B6923F480637B617B6894
:103E7C00144A934213D13B6923F480533B613B6951
:103E8C0023F400533B613B685B691B013A691343A4
:103E9C003B613B689B691B013A6913433B617B683F
:103EAC003A695A607B68FA68DA613B685A687B68E1
:103EBC00DA637B687A691A6200BF1C37BD4680BC26
:103ECC00704700BF002C014080B487B000AF786011
:103EDC0039607B681B6A3B617B681B6A23F48052E8
:103EEC007B681A627B685B687B617B68DB69FB6063
:103EFC00FB6823F4E043FB60FB6823F44073FB6036
:103F0C003B681B681B02FA681343FB603B6923F494
:103F1C0000533B613B689B681B033A6913433B614D
:103F2C007B680F4A934209D17B6923F480437B6100
:103F3C003B685B699B017A6913437B617B687A6997
:103F4C005A607B68FA68DA613B685A687B681A6465
:103F5C007B683A691A6200BF1C37BD4680BC70474B
:103F6C00002C014080B487B000AFF860B9607A6073
:103F7C003B60FB681B6A3B61FB681B6A23F0010218
:103F8C00FB681A62FB689B697B61FB681F4A934262
:103F9C000BD0FB68B3F1804F07D0FB681C4A9342EF
:103FAC0003D0FB681B4A934201D1012300E000239C
:103FBC00002B08D07B6923F003037B617A697B6853
:103FCC0013437B6103E07B6943F001037B617B69F5
:103FDC0023F0F0037B613B681B01DBB27A6913436E
:103FEC007B613B6923F00A033B61BB6803F00A0366
:103FFC003A6913433B61FB687A699A61FB683A69D9
:10400C001A6200BF1C37BD4680BC7047002C0140B3
:10401C00000400400008004080B487B000AFF86096
:10402C00B9607A603B60FB681B6A7B61FB681B6A4A
:10403C0023F01002FB681A62FB689B693B613B69C9
:10404C0023F440733B617B681B023A6913433B6169
:10405C003B6923F470433B613B681B039BB23A6999
:10406C0013433B617B6923F0A0037B61BB681B019D
:10407C0003F0A0037A6913437B61FB683A699A6188
:10408C00FB687A691A6200BF1C37BD4680BC70475A
:10409C0080B487B000AFF860B9607A603B60FB68B1
:1040AC001B6A7B61FB681B6A23F48072FB681A62D3
:1040BC00FB68DB693B613B6923F003033B613A69B5
:1040CC007B6813433B613B6923F0F0033B613B6826
:1040DC001B01DBB23A6913433B617B6923F4007328
:1040EC007B61BB681B0203F400737A6913437B6129
:1040FC00FB683A69DA61FB687A691A6200BF1C379F
:10410C00BD4680BC704780B487B000AFF860B96022
:10411C007A603B60FB681B6A7B61FB681B6A23F45B
:10412C008052FB681A62FB68DB693B613B6923F4D4
:10413C0040733B617B681B023A6913433B613B69EB
:10414C0023F470433B613B681B039BB23A691343F6
:10415C003B617B6923F400537B61BB681B0303F455
:10416C0000537A6913437B61FB683A69DA61FB6837
:10417C007A691A6200BF1C37BD4680BC704780B498
:10418C0087B000AFF860B9607A60BB6803F01F03BA
:10419C00012202FA03F37B61FB681A6A7B69DB4339
:1041AC001A40FB681A62FB681A6ABB6803F01F03AB
:1041BC00796801FA03F31A43FB681A6200BF1C37D3
:1041CC00BD4680BC7047000080B485B000AF7860FD
:1041DC0039607B6893F83C30012B01D1022346E017
:1041EC007B68012283F83C207B68022283F83D2007
:1041FC007B681B685B68FB607B681B689B68BB60AB
:10420C00FB6823F07003FB603B681B68FA68134380
:10421C00FB607B681B68FA685A607B681B68164AEF
:10422C0093420ED07B681B68B3F1804F09D07B683A
:10423C001B68124A934204D07B681B68104A934255
:10424C000CD1BB6823F08003BB603B685B68BA6829
:10425C001343BB607B681B68BA689A607B68012259
:10426C0083F83D207B68002283F83C20002318460D
:10427C001437BD4680BC7047002C01400004004040
:10428C000008004080B483B000AF786000BF0C37EA
:10429C00BD4680BC704780B483B000AF786000BF6F
:1042AC000C37BD4680BC704780B582B000AF7860DB
:1042BC007B68002B01D1012342E07B6893F84130ED
:1042CC00DBB2002B06D17B68002283F84020786893
:1042DC00FDF74AFE7B68242283F841207B681B682B
:1042EC00DA687B681B6822F40052DA60786800F0A8
:1042FC00AFFD7B681B681A697B681B6822F49042CF
:10430C001A617B681B685A697B681B6822F02A0259
:10431C005A617B681B68DA687B681B6842F4005240
:10432C00DA607B6800225A647B68202283F8412083
:10433C007B68202283F842207B6800225A6300238A
:10434C0018460837BD4680BD80B58AB002AFF8600C
:10435C00B9603B601346FB8000237B61FB6893F8DC
:10436C004130DBB2202B75D1BB68002B02D0FB880F
:10437C00002B01D101236EE0FB6800225A64FB681C
:10438C00212283F84120FDF711FF7861FB68FA8840
:10439C009A84FB68FA88DA84FB689B68B3F5805FC3
:1043AC0008D1FB681B69002B04D10023FB61BB689F
:1043BC00BB6103E0BB68FB610023BB612EE03B6883
:1043CC0000937B6900228021F86800F013FB034600
:1043DC00002B05D0FB68202283F8412003233AE010
:1043EC00FB69002B0BD1BB691B881A46FB681B6849
:1043FC00C2F308025A60BB690233BB6107E0FB6978
:10440C001A78FB681B685A60FB690133FB61FB6817
:10441C00DB8C9BB2013B9AB2FB68DA84FB68DB8CC9
:10442C009BB2002BCBD13B6800937B6900224021CF
:10443C00F86800F0DFFA0346002B05D0FB68202259
:10444C0083F84120032306E0FB68202283F84120F7
:10445C00002300E0022318462037BD4680BD80B5FE
:10446C0084B000AFF860B9601346FB80FB6893F82A
:10447C004230DBB2202B12D1BB68002B02D0FB8860
:10448C00002B01D101230BE0FB6800221A63FB888F
:10449C001A46B968F86800F006FB034600E00223F0
:1044AC0018461037BD4680BD80B5BAB000AF7860F5
:1044BC007B681B681B68C7F8E4307B681B68DB688B
:1044CC00C7F8E0307B681B685B69C7F8DC300023F9
:1044DC00C7F8D8300023C7F8D430D7F8E43003F04D
:1044EC000F03C7F8D830D7F8D830002B0FD1D7F836
:1044FC00E43003F02003002B09D0D7F8E03003F0B0
:10450C002003002B03D0786800F0E3FB5BE2D7F8C4
:10451C00D830002B00F0DE80D7F8DC3003F001033C
:10452C00002B06D1D7F8E03003F49073002B00F089
:10453C00D180D7F8E43003F00103002B0BD0D7F86F
:10454C00E03003F48073002B05D07B685B6C43F088
:10455C0001027B685A64D7F8E43003F00403002BA3
:10456C000BD0D7F8DC3003F00103002B05D07B68AF
:10457C005B6C43F002027B685A64D7F8E43003F0BA
:10458C000203002B0BD0D7F8DC3003F00103002B17
:10459C0005D07B685B6C43F004027B685A64D7F8E7
:1045AC00E43003F00803002B11D0D7F8E03003F00F
:1045BC002003002B05D1D7F8DC3003F00103002BCE
:1045CC0005D07B685B6C43F008027B685A647B689F
:1045DC005B6C002B00F0F281D7F8E43003F0200381
:1045EC00002B08D0D7F8E03003F02003002B02D0CA
:1045FC00786800F06EFB7B681B685B6903F0400316
:10460C00002B14BF01230023DBB2C7F8D4307B6826
:10461C005B6C03F00803002B03D1D7F8D430002BCC
:10462C004FD0786800F078FA7B681B685B6903F000
:10463C004003002B41D07B681B681433C7F89C30B7
:10464C00D7F89C3053E8003FC7F89830D7F898302B
:10465C0023F04003C7F8D0307B681B681433D7F8BD
:10466C00D020C7F8A820C7F8A430D7F8A410D7F8E2
:10467C00A82041E80023C7F8A030D7F8A030002BC1
:10468C00D9D17B68DB6B002B13D07B68DB6B7E4A4C
:10469C005A637B68DB6B1846FDF7FEFE0346002B66
:1046AC0016D07B68DB6B5B6B7A68D26B10469847D5
:1046BC000EE07868FCF7B4FF0AE07868FCF7B0FF0E
:1046CC0006E07868FCF7ACFF7B6800225A6475E161
:1046DC0000BF73E17B681B6B012B40F04F81D7F857
:1046EC00E43003F01003002B00F04881D7F8E030E1
:1046FC0003F01003002B00F041810023BB607B68AA
:10470C001B681B68BB607B681B685B68BB60BB6815
:10471C007B681B685B6903F04003002B00F0B680DC
:10472C007B68DB6B1B685B68A7F8BE30B7F8BE30E4
:10473C00002B00F045817B689B8DB7F8BE209A4218
:10474C0080F03E817B68B7F8BE20DA857B68DB6B36
:10475C009B69202B00F088807B681B680C33C7F8A2
:10476C008830D7F8883053E8003FC7F88430D7F842
:10477C00843023F48073C7F8B8307B681B680C3323
:10478C00D7F8B820C7F89420C7F89030D7F8901015
:10479C00D7F8942041E80023C7F88C30D7F88C3038
:1047AC00002BD9D17B681B6814337B677B6F53E874
:1047BC00003F3B673B6F23F00103C7F8B4307B68C5
:1047CC001B681433D7F8B420C7F88020FB67F96F47
:1047DC00D7F8802041E80023BB67BB6F002BE1D1E9
:1047EC007B681B6814333B663B6E53E8003FFB65EC
:1047FC00FB6D23F04003C7F8B0307B681B681433A3
:10480C00D7F8B020FA66BB66B96EFA6E41E80023A1
:10481C007B667B6E002BE3D17B68202283F84220E1
:10482C007B6800221A637B681B680C33FB64FB6C8F
:10483C0053E8003FBB64BB6C23F01003C7F8AC30EB
:10484C007B681B680C33D7F8AC20BA657B65796D37
:10485C00BA6D41E800233B653B6D002BE3D17B68CF
:10486C00DB6B1846FDF7DDFD7B6802225A637B6823
:10487C009A8D7B68DB8D9BB2D31A9BB219467868F4
:10488C0000F0ADF89CE000BFE94B00087B689A8D06
:10489C007B68DB8D9BB2D31AA7F8CE307B68DB8D9F
:1048AC009BB2002B00F08E80B7F8CE30002B00F0BE
:1048BC0089807B681B680C33BB63BB6B53E8003F80
:1048CC007B637B6B23F49073C7F8C8307B681B68E1
:1048DC000C33D7F8C8207A643B64396C7A6C41E8A5
:1048EC000023FB63FB6B002BE3D17B681B68143349
:1048FC007B627B6A53E8003F3B623B6A23F0010317
:10490C00C7F8C4307B681B681433D7F8C4203A63EB
:10491C00FB62F96A3A6B41E80023BB62BB6A002B6D
:10492C00E3D17B68202283F842207B6800221A6343
:10493C007B681B680C333B613B6953E8003FFB60B1
:10494C00FB6823F01003C7F8C0307B681B680C337E
:10495C00D7F8C020FA61BB61B969FA6941E8002354
:10496C007B617B69002BE3D17B6802225A63B7F829
:10497C00CE301946786800F032F823E0D7F8E430EE
:10498C0003F08003002B09D0D7F8E03003F080034C
:10499C00002B03D0786800F035F914E0D7F8E43038
:1049AC0003F04003002B0ED0D7F8E03003F04003A7
:1049BC00002B08D0786800F074F904E000BF02E026
:1049CC0000BF00E000BFE837BD4680BD80B483B0B7
:1049DC0000AF786000BF0C37BD4680BC704780B418
:1049EC0083B000AF78600B467B8000BF0C37BD46B0
:1049FC0080BC704780B586B000AFF860B9603B6092
:104A0C001346FB713BE03B6AB3F1FF3F37D0FDF738
:104A1C00CDFB02463B68D31A3A6A9A4202D33B6AF0
:104A2C00002B01D103233AE0FB681B68DB6803F021
:104A3C000403002B23D0BB68802B20D0BB68402BF9
:104A4C001DD0FB681B681B6803F00803082B16D1EC
:104A5C0000237B61FB681B681B687B61FB681B6820
:104A6C005B687B617B69F86800F056F8FB6808228C
:104A7C005A64FB68002283F8402001230FE0FB6896
:104A8C001B681A68BB681340BA689A420CBF0123B2
:104A9C000023DBB21A46FB799A42B4D000231846A5
:104AAC001837BD4680BD80B485B000AFF860B960E2
:104ABC001346FB80FB68BA689A62FB68FA889A8591
:104ACC00FB68FA88DA85FB6800225A64FB682222AC
:104ADC0083F84220FB681B69002B07D0FB681B681E
:104AEC00DA68FB681B6842F48072DA60FB681B684A
:104AFC005A69FB681B6842F001025A61FB681B682B
:104B0C00DA68FB681B6842F02002DA600023184662
:104B1C001437BD4680BC704780B495B000AF786048
:104B2C007B681B680C337B637B6B53E8003F3B63F8
:104B3C003B6B23F49073FB647B681B680C33FA6C3F
:104B4C003A64FB63F96B3A6C41E80023BB63BB6BC3
:104B5C00002BE5D17B681B6814333B623B6A53E83E
:104B6C00003FFB61FB6923F00103BB647B681B689E
:104B7C001433BA6CFA62BB62B96AFA6A41E8002370
:104B8C007B627B6A002BE5D17B681B6B012B19D1F7
:104B9C007B681B680C33FB60FB6853E8003FBB6011
:104BAC00BB6823F010037B647B681B680C337A6C46
:104BBC00BA617B617969BA6941E800233B613B6961
:104BCC00002BE5D17B68202283F842207B680022F1
:104BDC001A6300BF5437BD4680BC704780B584B0A3
:104BEC0000AF78607B685B6AFB60FB680022DA854B
:104BFC00FB680022DA84F868FCF712FD00BF10375E
:104C0C00BD4680BD80B485B000AF78607B6893F8FA
:104C1C004130DBB2212B3ED17B689B68B3F5805FC2
:104C2C0014D17B681B69002B10D17B681B6AFB605D
:104C3C00FB681B881A467B681B68C2F308025A6023
:104C4C007B681B6A9A1C7B681A6208E07B681B6A8B
:104C5C00591C7A6811621A787B681B685A607B68E9
:104C6C00DB8C9BB2013B9BB27A681946D184002B3A
:104C7C000FD17B681B68DA687B681B6822F08002A6
:104C8C00DA607B681B68DA687B681B6842F040025C
:104C9C00DA60002300E0022318461437BD4680BCBE
:104CAC00704780B582B000AF78607B681B68DA68AB
:104CBC007B681B6822F04002DA607B68202283F854
:104CCC0041207868FFF782FE002318460837BD465E
:104CDC0080BD80B58CB000AF78607B6893F84230B3
:104CEC00DBB2222B40F0AE807B689B68B3F5805F13
:104CFC0017D17B681B69002B13D10023FB627B68E7
:104D0C009B6ABB627B681B685B689BB2C3F308033E
:104D1C009AB2BB6A1A807B689B6A9A1C7B689A62FF
:104D2C0026E07B689B6AFB620023BB627B689B6806
:104D3C00B3F5805F07D07B689B68002B0AD17B683A
:104D4C001B69002B06D17B681B685B68DAB2FB6AB7
:104D5C001A7008E07B681B685B68DBB203F07F03AA
:104D6C00DAB2FB6A1A707B689B6A5A1C7B689A627F
:104D7C007B68DB8D9BB2013B9BB27A681946D1856F
:104D8C00002B5DD17B681B68DA687B681B6822F09E
:104D9C002002DA607B681B68DA687B681B6822F487
:104DAC008072DA607B681B685A697B681B6822F02A
:104DBC0001025A617B68202283F842207B68002222
:104DCC005A637B681B6B012B35D17B6800221A63FD
:104DDC007B681B680C337B617B6953E8003F3B614C
:104DEC003B6923F010037B627B681B680C337A6A87
:104DFC003A62FB61F9693A6A41E80023BB61BB691D
:104E0C00002BE5D17B681B681B6803F01003102B8B
:104E1C000AD10023FB607B681B681B68FB607B6806
:104E2C001B685B68FB60FB687B689B8D1946786828
:104E3C00FFF7D5FD02E07868FCF77AFB002302E06F
:104E4C00002300E0022318463037BD4680BD000029
:104E5C0080B584B000AF78607B681B681B6923F455
:104E6C0040517B68DA687B681B680A431A617B686F
:104E7C009A687B681B691A437B685B691343BB6048
:104E8C007B681B68DB6823F4B05323F00C037A684F
:104E9C001268B9680B43D3607B681B685B6923F4A9
:104EAC0040717B689A697B681B680A435A617B680E
:104EBC001B682C4A934203D1FEF728F9F86002E0F4
:104ECC00FEF710F9F860FA6813469B0013449A0039
:104EDC001A447B685B689B00B2FBF3F3224AA2FB8B
:104EEC0003235B091901FA6813469B0013449A00CB
:104EFC001A447B685B689B00B2FBF3F21A4BA3FB72
:104F0C0002035B09642000FB03F3D31A1B01323349
:104F1C00154AA2FB03235B0903F0F0031944FA685A
:104F2C0013469B0013449A001A447B685B689B00F1
:104F3C00B2FBF3F20C4BA3FB02035B09642000FBF6
:104F4C0003F3D31A1B013233074AA2FB03235B0979
:104F5C0003F00F027B681B680A449A6000BF10378D
:104F6C00BD4680BD003801401F85EB510CB430B5F7
:104F7C00184B0C1E1D689DB008DA8B234FF0FF30C8
:104F8C002B601DB0BDE8304002B070474FF4027387
:104F9C00ADF814304FF000031B930CBF234604F103
:104FAC00FF33049307934FF6FF7302900690ADF80E
:104FBC001630284621AB209A02A9019300F096F9ED
:104FCC00431CBCBF8B232B60002CDAD00022029B2D
:104FDC001A70D6E71000002003460244934200D119
:104FEC00704703F8011BF9E7014B1868704700BFC5
:104FFC001000002070B500260C4D0D4B5B1B9C1057
:10500C00A64209D1002600F07DFC0A4D0A4B5B1B21
:10501C009C10A64205D170BD55F8043B984701364B
:10502C00EEE755F8043B98470136F2E7B85D000807
:10503C00B85D0008B85D0008BC5D0008704770479B
:10504C0038B50546002940D051F8043C0C1F002B04
:10505C00B8BFE41800F0DEF81C4A136833B963607B
:10506C0014602846BDE8384000F0DAB8A34208D9ED
:10507C00206821188B4201BF19685B6809182160F0
:10508C00EDE71A465B680BB1A342FAD911685018C8
:10509C00A0420BD120680144501883421160E0D12A
:1050AC0018685B68084410605360DAE702D90C2377
:1050BC002B60D6E7206821188B4201BF19685B680A
:1050CC000918216063605460CBE738BD20040020D0
:1050DC0070B50F4E0C463168054611B900F0B0FBA7
:1050EC0030602146284600F0ABFB431C03D14FF047
:1050FC00FF34204670BDC41C24F00304A042F8D039
:10510C00211A284600F09CFB0130F2D1EFE700BFDA
:10511C001C0400202DE9F843CD1C25F003050835AF
:10512C000C2D38BF0C25002D064601DBA94204D9F5
:10513C000C2333600020BDE8F883DFF8D48000F046
:10514C0069F8D8F800301C4644BB29463046FFF7B6
:10515C00BFFF431C044658D1D8F800402746002F07
:10516C0043D1002C4BD023683946304604EB03095D
:10517C0000F066FB814542D1216830466D1A294604
:10518C00FFF7A6FF01303AD023682B442360D8F8F0
:10519C0000305A6862BBC8F800700FE02268521BDE
:1051AC0020D40B2A17D96119A342256018BF596066
:1051BC00636808BFC8F8001062514B60304600F0BD
:1051CC002FF804F10B00231D20F00700C21A1CBF9E
:1051DC001B1AA350AFE76268A3420CBFC8F80020AB
:1051EC005A60EBE723466468AEE73C467F68B6E757
:1051FC001A465B68A342FBD100235360DEE70C2305
:10520C003046336000F00CF894E70560D6E700BF39
:10521C00200400200148FFF711BF00BF1804002034
:10522C000148FFF70CBF00BF180400202DE9F04720
:10523C001F468E688246BE420C469046334653D873
:10524C00B1F90C0010F4906F2BD0656923680969D3
:10525C0005EB4505A3EB010905EBD5757B1C6D1022
:10526C004B44AB422A4684BF1D462A46430527D5EC
:10527C0011465046FFF74EFF064658B34A46216981
:10528C0000F0FCFAA38923F4906343F08003A3811C
:10529C0026614E4426603B463E466561A5EB0905FA
:1052AC00A5601F463A464146206800F0AFFA002040
:1052BC00A3689B1BA36023683B442360BDE8F08775
:1052CC00504600F0E9FA06460028E1D15046216923
:1052DC00FFF7B6FE0C23CAF80030A3894FF0FF305D
:1052EC0043F04003A381E9E73E46DBE72DE9F047B5
:1052FC001F468B8906461B060D4614469CB010D5DE
:10530C000B6973B94021FFF705FF2860286130B99C
:10531C000C2333604FF0FF301CB0BDE8F087402306
:10532C006B610023099320238DF8293030234FF033
:10533C0001080397644F8DF82A302346994613F8D9
:10534C00012B0AB1252AF9D1B9EB040A0BD053462B
:10535C00224629463046FFF769FF013000F0A48051
:10536C00099A5244099299F80030002B00F09C8065
:10537C0000234FF0FF32CDE9052309F10109049315
:10538C0007938DF853301A934C46052214F8011BE1
:10539C004D4800F065FA049BD0B9D80644BF2022D2
:1053AC008DF85320190744BF2B228DF8532099F800
:1053BC0000202A2A13D04C4600204FF00A0C079AE2
:1053CC00214611F8013B303B092B49D968B913E050
:1053DC00C01B08FA00F01843A1460490D4E7039AC6
:1053EC00111D12680391002A01DB079204E052425E
:1053FC0043F002030792049323782E2B0AD163788F
:10540C002A2B32D1039B02341A1D1B68039243EAE8
:10541C00E3730593DFF8B49003224846217800F03B
:10542C001FFA38B14022049BA0EB090082401343C1
:10543C000134049314F8011B062225488DF828101A
:10544C0000F00EFA002835D0224818BB039B073316
:10545C0023F0070308330393099B034409936CE778
:10546C000C4601200CFB0232AAE700234FF00A0C79
:10547C00194601340593204610F8012B303A092ABD
:10548C0003D9002BC6D00591C4E7044601230CFBBD
:10549C000121F0E703AB00932A4630460E4B04A9DA
:1054AC00AFF30080421CD7D1AB895B063FF532AF1E
:1054BC00099831E703AB00932A463046064B04A902
:1054CC0000F07EF8EEE700BF7A5D0008805D000812
:1054DC00845D000800000000395200082DE9F047F7
:1054EC00164698468A680B6907469342B8BF13461E
:1054FC00336091F843200C46DDF820900AB101335B
:10550C0033602368990642BF3368023333602568E1
:10551C0015F0060506D104F1190AE36832689B1AE6
:10552C00AB422BDC94F843302268003B18BF0123BC
:10553C00920630D44146384604F14302C847013044
:10554C0023D02368226903F00603042B14BF002523
:10555C0033684FF0000608BFE56804F11A0408BF71
:10556C00ED1A54F8123C08BF25EAE5759342C4BF06
:10557C009B1AED18B5421AD1002008E001235246BF
:10558C0041463846C847013003D14FF0FF30BDE8E3
:10559C00F0870135C1E73020E11881F843005A1C2F
:1055AC0094F845102244023382F84310C2E70123D9
:1055BC00224641463846C8470130E6D00136D9E785
:1055CC002DE9F0430D7E85B0782D904607460C46AC
:1055DC0099460C9E01F1430207D8622D0AD8002D82
:1055EC0000F0D780582D00F0BC8004F1420684F8FE
:1055FC0042503BE0A5F16303152BF6D801A151F8FD
:10560C0023F000BF695600087D560008F7550008C6
:10561C00F7550008F7550008F75500087D560008A7
:10562C00F7550008F7550008F7550008F75500081E
:10563C0085570008A756000837570008F75500088B
:10564C00F7550008A7570008F7550008A75600089B
:10565C00F7550008F75500083F57000833681A1D26
:10566C001B68326004F1420684F842300123A1E049
:10567C0033682068191D3160060601D51D6803E0EA
:10568C004506FBD5B3F90050002D03DA2D236D42EE
:10569C0084F843300A235B4811E02168336808061C
:1056AC0053F8045B02D4490648BFADB23360237E85
:1056BC0054486F2B5CD10823002184F84310666892
:1056CC00002EA66005DB21682E4321F00401216029
:1056DC0050D01646B5FBF3F103FB115C10F80CC06F
:1056EC0006F801CDAC4663450D46F3D9082B0BD11A
:1056FC002368DB0708D5236961689942DEBF302334
:10570C0006F8013C06F1FF36921B22614346214606
:10571C003846CDF8009003AAFFF7E0FE01304ED1D9
:10572C004FF0FF3005B0BDE8F083236843F0200351
:10573C0023607825344884F845502368316813F089
:10574C00800F51F8045B03D113F0400F18BFADB2BA
:10575C003160D90744BF43F0200323601DB11023EF
:10576C00AAE72848E7E7236823F020032360F6E73D
:10577C000A23A1E71646B9E733682568181D616945
:10578C0030602E061B6801D5196002E06806FBD557
:10579C001980002316462361B8E7336800211A1DCF
:1057AC0032601E686268304600F05AF808B1801BFF
:1057BC00606063682361002384F84330A6E73246B7
:1057CC00414638462369C8470130A9D023689B0756
:1057DC0013D4E068039B9842B8BF1846A2E7012394
:1057EC00324641463846C847013099D00135E36806
:1057FC0003995B1AAB42F2DCEBE7002504F11906C6
:10580C00F5E700BF8B5D00089C5D0008884210B571
:10581C0001EB020402D98442234607D8431EA1425D
:10582C0007D011F8012B03F8012FF8E7024482424C
:10583C0000D110BD13F8011D02F8011DF7E700009F
:10584C0038B50023054D044608462B60FCF7AEF92D
:10585C00431C02D12B6803B1236038BD1404002013
:10586C00034610B5C9B202449342184601D1002038
:10587C0003E0047801338C42F6D110BD0A44914206
:10588C0000F1FF3300D1704710B511F8014B914274
:10589C0003F8014FF9D110BD2DE9F041074614462C
:1058AC000D4621B91146BDE8F041FFF733BC2AB9CA
:1058BC00FFF7C6FB25462846BDE8F08100F01AF834
:1058CC008442064602D8B4EB500FF4D82146384631
:1058DC00FFF720FC804608B94546ECE7B442224667
:1058EC00294628BF3246FFF7C9FF29463846FFF73D
:1058FC00A7FBF1E751F8043C181F002BBCBF0B5859
:10590C00C0187047F8B500BFF8BC08BC9E4670477D
:0C591C00F8B500BFF8BC08BC9E46704700
:10592800496E696369616E646F2E2E2E0D0A000040
:10593800436F6D616E646F733A203A533135203A84
:1059480052353030203A4931203A4930203A4131F5
:1059580020287465726D696E617220636F6E2043D2
:10596800522F4C46290D0A00535441543A204E49AF
:1059780056454C3D25752C53503D25752C424F54AA
:10598800454C4C413D25752C5245434554413D25D8
:10599800752C50554C534F533D256C752F256C7500
:1059A8002C414C41524D413D25750D0A0000000027
:1059B8004552522C52533438352C4E4F5F53455F65
:1059C8005055444F5F454E564941525F52455355D5
:1059D8004C5441444F0D0A004552522C525334380E
:1059E800352C4E4F5F53455F5055444F5F454E56DB
:1059F8004941525F504F4E470D0A00004552522C04
:105A080052533438352C4E4F5F53455F5055444FF1
:105A18005F454E564941525F45535441444F5F5488
:105A2800414E5155450D0A004552522C52533438B7
:105A3800352C4E4F5F53455F5055444F5F454E568A
:105A48004941525F45535441444F5F444F5349467F
:105A58000D0A00004552522C52533438352C4E4F03
:105A68005F53455F5055444F5F454E564941525F1D
:105A78004556454E544F5F54414E5155450D0A0009
:105A88004552522C52533438352C4E4F5F53455F94
:105A98005055444F5F524553504F4E4445525F5303
:105AA800494E5F4556454E544F0D0A004552524FD8
:105AB800523A20414C41524D415F54414E51554557
:105AC8000D0A00004552524F523A2053494E5F5238
