:020000040800F2
:100000000050002015140008713A0008793A0008E1
:10001000813A0008893A0008913A0008000000007F
:10002000000000000000000000000000993A0008F5
:10003000A53A000800000000B13A0008BD3A0008E7
:100040005D1400085D1400085D1400085D140008CC
:100050005D1400085D1400085D1400085D140008BC
:100060005D140008C93A0008D73A00085D1400087A
:100070005D1400085D1400085D1400085D1400089C
:100080005D1400085D1400085D1400085D1400088C
:100090005D1400085D1400085D140008E53A0008CE
:1000A0005D1400085D1400085D1400085D1400086C
:1000B0005D1400085D1400085D1400085D1400085C
:1000C0005D1400085D1400085D1400085D1400084C
:1000D0005D140008F53A00085D140008093B0008AB
:1000E0005D1400085D1400085D14000800000000A5
:1000F0000000000000000000000000000000000000
:0C01000000000000000000005FF808F1A3
:1001100010B5054C237833B9044B13B10448AFF341
:1001200000800123237010BDD801002000000000D2
:10013000A89C000808B5034B1BB103490348AFF363
:10014000008008BD00000000DC010020A89C000821
:10015000034613F8012B002AFBD1181A0138704707
:1001600081F0004102E000BF83F0004330B54FEA68
:1001700041044FEA430594EA050F08BF90EA020FD5
:100180001FBF54EA000C55EA020C7FEA645C7FEA68
:10019000655C00F0E2804FEA5454D4EB5555B8BF8B
:1001A0006D420CDD2C4480EA020281EA030382EAFC
:1001B000000083EA010180EA020281EA0303362D8E
:1001C00088BF30BD11F0004F4FEA01314FF4801C61
:1001D0004CEA113102D0404261EB410113F0004F73
:1001E0004FEA03334CEA133302D0524263EB43032A
:1001F00094EA050F00F0A780A4F10104D5F1200EC8
:100200000DDB02FA0EFC22FA05F2801841F1000122
:1002100003FA0EF2801843FA05F359410EE0A5F1F6
:1002200020050EF1200E012A03FA0EFC28BF4CF027
:10023000020C43FA05F3C01851EBE37101F00045DD
:1002400007D54FF0000EDCF1000C7EEB00006EEBEA
:100250000101B1F5801F1BD3B1F5001F0CD3490874
:100260005FEA30004FEA3C0C04F101044FEA4452CB
:1002700012F5800F80F09A80BCF1004F08BF5FEA52
:10028000500C50F1000041EB045141EA050130BD32
:100290005FEA4C0C404141EB0101013C28BFB1F544
:1002A000801FE9D291F0000F04BF01460020B1FA8F
:1002B00081F308BF2033A3F10B03B3F120020CDA62
:1002C0000C3208DD02F1140CC2F10C0201FA0CF040
:1002D00021FA02F10CE002F11402D8BFC2F1200CA5
:1002E00001FA02F120FA0CFCDCBF41EA0C0190405B
:1002F000E41AA2BF01EB0451294330BD6FEA0404A4
:100300001F3C1CDA0C340EDC04F11404C4F120028E
:1003100020FA04F001FA02F340EA030021FA04F3A0
:1003200045EA030130BDC4F10C04C4F1200220FAF7
:1003300002F001FA04F340EA0300294630BD21FA35
:1003400004F0294630BD94F0000F83F4801306BFFB
:1003500081F480110134013D4EE77FEA645C18BFEF
:100360007FEA655C29D094EA050F08BF90EA020F86
:1003700005D054EA000C04BF1946104630BD91EA7E
:10038000030F1EBF0021002030BD5FEA545C05D181
:100390004000494128BF41F0004130BD14F58004C0
:1003A0003CBF01F5801130BD01F0004545F0FE4134
:1003B00041F470014FF0000030BD7FEA645C1ABF69
:1003C000194610467FEA655C1CBF0B46024650EAA0
:1003D000013406BF52EA033591EA030F41F40021CC
:1003E00030BD00BF90F0000F04BF0021704730B552
:1003F0004FF4806404F132044FF000054FF0000127
:1004000050E700BF90F0000F04BF0021704730B5E7
:100410004FF4806404F1320410F0004548BF4042BC
:100420004FF000013EE700BF42004FEAE2014FEA11
:1004300031014FEA02701FBF12F07F4393F07F4FEC
:1004400081F06051704732F07F4208BF704793F0EF
:100450007F4F04BF41F40021704730B54FF4607402
:1004600001F0004521F000411CE700BF50EA010205
:1004700008BF704730B54FF000050AE050EA0102AE
:1004800008BF704730B511F0004502D5404261EB1E
:1004900041014FF4806404F132045FEA915C3FF45F
:1004A000D8AE4FF003025FEADC0C18BF03325FEAFC
:1004B000DC0C18BF033202EBDC02C2F1200300FAAD
:1004C00003FC20FA02F001FA03FE40EA0E0021FAD2
:1004D00002F11444BDE600BF70B54FF0FF0C4CF4C0
:1004E000E06C1CEA11541DBF1CEA135594EA0C0F72
:1004F00095EA0C0F00F0DEF82C4481EA030621EAAD
:100500004C5123EA4C5350EA013518BF52EA0335E7
:1005100041F4801143F4801338D0A0FB02CE4FF099
:100520000005E1FB02E506F00042E0FB03E54FF0C9
:100530000006E1FB03569CF0000F18BF4EF0010EC1
:10054000A4F1FF04B6F5007F64F5407404D25FEABD
:100550004E0E6D4146EB060642EAC62141EA555170
:100560004FEAC52040EA5E504FEACE2EB4F1FD0CB2
:1005700088BFBCF5E06F1ED8BEF1004F08BF5FEA30
:10058000500E50F1000041EB045170BD06F00046E2
:1005900046EA010140EA020081EA0301B4EB5C048F
:1005A000C2BFD4EB0C0541EA045170BD41F4801187
:1005B0004FF0000E013C00F3AB8014F1360FDEBFAC
:1005C000002001F0004170BDC4F10004203C35DA88
:1005D0000C341BDC04F11404C4F1200500FA05F30B
:1005E00020FA04F001FA05F240EA020001F00042AC
:1005F00021F0004110EBD37021FA04F642EB060122
:100600005EEA430E08BF20EAD37070BDC4F10C044B
:10061000C4F1200500FA04F320FA05F001FA04F20F
:1006200040EA020001F0004110EBD37041F10001FB
:100630005EEA430E08BF20EAD37070BDC4F1200506
:1006400000FA05F24EEA020E20FA04F301FA05F26E
:1006500043EA020321FA04F001F0004121FA04F216
:1006600020EA020000EBD3705EEA430E08BF20EAE6
:10067000D37070BD94F0000F0FD101F00046400020
:1006800041EB010111F4801F08BF013CF7D041EAA2
:10069000060195F0000F18BF704703F000465200A6
:1006A00043EB030313F4801F08BF013DF7D043EA77
:1006B0000603704794EA0C0F0CEA135518BF95EA2D
:1006C0000C0F0CD050EA410618BF52EA4306D1D1B4
:1006D00081EA030101F000414FF0000070BD50EAD3
:1006E000410606BF1046194652EA430619D094EA5D
:1006F0000C0F02D150EA013613D195EA0C0F05D147
:1007000052EA03361CBF104619460AD181EA03019A
:1007100001F0004141F0FE4141F470014FF0000052
:1007200070BD41F0FE4141F4780170BD70B54FF0ED
:10073000FF0C4CF4E06C1CEA11541DBF1CEA13556D
:1007400094EA0C0F95EA0C0F00F0A7F8A4EB05044F
:1007500081EA030E52EA03354FEA013100F0888046
:100760004FEA03334FF0805545EA131343EA12630F
:100770004FEA022245EA111545EA10654FEA0026C4
:100780000EF000419D4208BF964244F1FD0404F57D
:10079000407402D25B084FEA3202B61A65EB0305D9
:1007A0005B084FEA32024FF480104FF4002CB6EB96
:1007B000020E75EB030E22BFB61A754640EA0C0016
:1007C0005B084FEA3202B6EB020E75EB030E22BF56
:1007D000B61A754640EA5C005B084FEA3202B6EB97
:1007E000020E75EB030E22BFB61A754640EA9C0056
:1007F0005B084FEA3202B6EB020E75EB030E22BF26
:10080000B61A754640EADC0055EA060E18D04FEAE3
:10081000051545EA16754FEA06164FEAC30343EA83
:1008200052734FEAC2025FEA1C1CC0D111F4801F50
:100830000BD141EA00014FF000004FF0004CB6E749
:1008400011F4801F04BF01430020B4F1FD0C88BFE8
:10085000BCF5E06F3FF6AFAEB5EB030C04BFB6EBF3
:10086000020C5FEA500C50F1000041EB045170BDE6
:100870000EF0004E4EEA113114EB5C04C2BFD4EB13
:100880000C0541EA045170BD41F480114FF0000E97
:10089000013C90E645EA060E8DE60CEA135594EA13
:1008A0000C0F08BF95EA0C0F3FF43BAF94EA0C0F16
:1008B0000AD150EA01347FF434AF95EA0C0F7FF48B
:1008C00025AF104619462CE795EA0C0F06D152EADF
:1008D00003353FF4FDAE1046194622E750EA4106C3
:1008E00018BF52EA43067FF4C5AE50EA41047FF4D4
:1008F0000DAF52EA43057FF4EBAE12E74FF0FF3C39
:1009000006E000BF4FF0010C02E000BF4FF0010C09
:100910004DF804CD4FEA410C7FEA6C5C4FEA430C82
:1009200018BF7FEA6C5C1BD001B050EA410C0CBFD1
:1009300052EA430C91EA030F02BF90EA020F002033
:10094000704710F1000F91EA030F58BF994208BF9A
:1009500090422CBFD8176FEAE37040F00100704757
:100960004FEA410C7FEA6C5C02D150EA013C07D1AE
:100970004FEA430C7FEA6C5CD6D152EA033CD3D0F9
:100980005DF8040B704700BF8446104662468C46F3
:100990001946634600E000BF01B5FFF7B7FF002826
:1009A00048BF10F1000F01BD4DF808EDFFF7F4FF4F
:1009B0000CBF012000205DF808FB00BF4DF808EDDA
:1009C000FFF7EAFF34BF012000205DF808FB00BFFD
:1009D0004DF808EDFFF7E0FF94BF012000205DF81F
:1009E00008FB00BF4DF808EDFFF7CEFF94BF0120D4
:1009F00000205DF808FB00BF4DF808EDFFF7C4FFCD
:100A000034BF012000205DF808FB00BF4FEA410C15
:100A10007FEA6C5C02D150EA013C0AD14FEA430CF8
:100A20007FEA6C5C02D152EA033C02D14FF0000035
:100A300070474FF0010070474FEA410212F5001273
:100A400015D211D56FF47873B3EB625212D94FEA15
:100A5000C12343F0004343EA505311F0004F23FAFF
:100A600002F018BF404270474FF00000704750EA54
:100A7000013005D111F0004008BF6FF00040704711
:100A80004FF00000704700BF80F0004002E000BF60
:100A900081F0004142001FBF5FEA410392EA030F69
:100AA0007FEA226C7FEA236C6AD04FEA1262D2EBB3
:100AB0001363C1BFD218414048404140B8BF5B42B8
:100AC000192B88BF704710F0004F40F4000020F051
:100AD0007F4018BF404211F0004F41F4000121F067
:100AE0007F4118BF494292EA030F3FD0A2F10102B1
:100AF00041FA03FC10EB0C00C3F1200301FA03F1EF
:100B000000F0004302D5494260EB4000B0F5000F11
:100B100013D3B0F1807F06D340084FEA310102F1D0
:100B20000102FE2A51D2B1F1004F40EBC25008BF82
:100B300020F0010040EA03007047490040EB00004C
:100B4000013A28BFB0F5000FEDD2B0FA80FCACF14D
:100B5000080CB2EB0C0200FA0CF0AABF00EBC2507A
:100B600052421843BCBFD0401843704792F0000F68
:100B700081F4000106BF80F400000132013BB5E7BB
:100B80004FEA41037FEA226C18BF7FEA236C21D031
:100B900092EA030F04D092F0000F08BF0846704796
:100BA00090EA010F1CBF0020704712F07F4F04D164
:100BB000400028BF40F00040704712F100723CBF77
:100BC00000F50000704700F0004343F0FE4040F4A1
:100BD000000070477FEA226216BF08467FEA23635F
:100BE0000146420206BF5FEA412390EA010F40F44A
:100BF000800070474FF0000304E000BF10F0004396
:100C000048BF40425FEA000C08BF704743F096437C
:100C100001464FF000001CE050EA010208BF704797
:100C20004FF000030AE000BF50EA010208BF70471E
:100C300011F0004302D5404261EB41015FEA010C33
:100C400002BF84460146002043F0B64308BFA3F12B
:100C50008053A3F50003BCFA8CF2083AA3EBC2530D
:100C600010DB01FA02FC634400FA02FCC2F120022C
:100C7000BCF1004F20FA02F243EB020008BF20F063
:100C80000100704702F1200201FA02FCC2F12002C9
:100C900050EA4C0021FA02F243EB020008BF20EABE
:100CA000DC7070474FF0FF0C1CEAD0521EBF1CEAEC
:100CB000D15392EA0C0F93EA0C0F6FD01A4480EADA
:100CC000010C400218BF5FEA41211ED04FF00063C3
:100CD00043EA501043EA5111A0FB01310CF00040EF
:100CE000B1F5000F3EBF490041EAD3715B0040EA15
:100CF000010062F17F02FD2A1DD8B3F1004F40EBE5
:100D0000C25008BF20F00100704790F0000F0CF0B7
:100D1000004C08BF49024CEA502040EA51207F3A7B
:100D2000C2BFD2F1FF0340EAC250704740F4000056
:100D30004FF00003013A5DDC12F1190FDCBF00F047
:100D400000407047C2F10002410021FA02F1C2F1F5
:100D5000200200FA02FC5FEA310040F1000053EA91
:100D60004C0308BF20EADC70704792F0000F00F0DF
:100D7000004C02BF400010F4000F013AF9D040EAE5
:100D80000C0093F0000F01F0004C02BF490011F479
:100D9000000F013BF9D041EA0C018FE70CEAD15377
:100DA00092EA0C0F18BF93EA0C0F0AD030F0004CF7
:100DB00018BF31F0004CD8D180EA010000F00040AB
:100DC000704790F0000F17BF90F0004F084691F069
:100DD000000F91F0004F14D092EA0C0F01D14202A3
:100DE0000FD193EA0C0F03D14B0218BF084608D16C
:100DF00080EA010000F0004040F0FE4040F40000B6
:100E0000704740F0FE4040F4400070474FF0FF0C48
:100E10001CEAD0521EBF1CEAD15392EA0C0F93EA8F
:100E20000C0F69D0A2EB030280EA010C49024FEAE1
:100E3000402037D04FF0805343EA111143EA10139A
:100E40000CF000408B4238BF5B0042F17D024FF452
:100E5000000C8B4224BF5B1A40EA0C00B3EB510F2D
:100E600024BFA3EB510340EA5C00B3EB910F24BF16
:100E7000A3EB910340EA9C00B3EBD10F24BFA3EB9B
:100E8000D10340EADC001B0118BF5FEA1C1CE0D163
:100E9000FD2A3FF650AF8B4240EBC25008BF20F016
:100EA000010070470CF0004C4CEA50207F32C2BF6A
:100EB000D2F1FF0340EAC250704740F400004FF007
:100EC0000003013A37E792F0000F00F0004C02BF38
:100ED000400010F4000F013AF9D040EA0C0093F002
:100EE000000F01F0004C02BF490011F4000F013B5C
:100EF000F9D041EA0C0195E70CEAD15392EA0C0FC4
:100F000008D142027FF47DAF93EA0C0F7FF470AFFB
:100F1000084676E793EA0C0F04D14B023FF44CAF3E
:100F200008466EE730F0004C18BF31F0004CCAD1D3
:100F300030F000427FF45CAF31F000437FF43CAF0F
:100F40005FE700BF4FF0FF3C06E000BF4FF0010C31
:100F500002E000BF4FF0010C4DF804CD4FEA400213
:100F60004FEA41037FEA226C18BF7FEA236C11D05D
:100F700001B052EA530C18BF90EA010F58BFB2EB10
:100F8000030088BFC81738BF6FEAE17018BF40F090
:100F9000010070477FEA226C02D15FEA402C05D144
:100FA0007FEA236CE4D15FEA412CE1D05DF8040BC9
:100FB000704700BF844608466146FFE70FB5FFF75C
:100FC000C9FF002848BF10F1000F0FBD4DF808ED14
:100FD000FFF7F4FF0CBF012000205DF808FB00BF05
:100FE0004DF808EDFFF7EAFF34BF012000205DF85F
:100FF00008FB00BF4DF808EDFFF7E0FF94BF0120AC
:1010000000205DF808FB00BF4DF808EDFFF7D2FFA8
:1010100094BF012000205DF808FB00BF4DF808EDEB
:10102000FFF7C8FF34BF012000205DF808FB00BFB8
:101030004FEA4002B2F1FE4F0FD34FF09E03B3EBE5
:1010400012620DD94FEA002343F0004310F0004F25
:1010500023FA02F018BF404270474FF0000070477B
:1010600012F1610F01D1420205D110F0004008BF1A
:101070006FF0004070474FF0000070477BB972B9C5
:101080000029BEBF00204FF0004106E008BF002845
:101090001CBF6FF000414FF0FF3000F0B9B9ADF167
:1010A000080C6DE904CE002909DB002B1ADB00F0E7
:1010B00035F8DDF804E0DDE9022304B07047404272
:1010C00061EB4101002B1BDB00F028F8DDF804E0A8
:1010D000DDE9022304B0404261EB4101524263EB7F
:1010E00043037047524263EB430300F017F8DDF807
:1010F00004E0DDE9022304B0404261EB41017047A6
:10110000524263EB430300F009F8DDF804E0DDE947
:10111000022304B0524263EB430370472DE9F047CA
:10112000089D0F4604468E46002B48D18A4216463B
:1011300061D9B2FA82F24AB1C2F1200301FA02FE89
:1011400020FA03F3964043EA0E0E94404FEA164C01
:10115000BEFBFCF1B7B20CFB11EE01FB07F0230C58
:1011600043EA0E43984209D9F31801F1FF3E80F09B
:10117000ED80984240F2EA80023933441B1AB3FBF7
:10118000FCF00CFB103300FB07F7A4B244EA034465
:10119000A74209D9341900F1FF3380F0D980A74262
:1011A00040F2D6803444023840EA01400021E41B7A
:1011B0001DB10023D440C5E90043BDE8F0878B4250
:1011C00006D90DB1C5E9000100210846BDE8F08748
:1011D000B3FA83F1002947D1BB4202D3824200F225
:1011E0000481841A67EB030201209646002DE4D0A7
:1011F000C5E9004EE1E7002A00F09080B2FA82F2E1
:10120000002A40F0A780881B0121370C1FFA86FEB8
:10121000B0FBF7FC07FB1C00230C43EA00430EFB6A
:101220000CF0984207D9F3180CF1FF3802D298421B
:1012300000F2E080C4461B1AB3FBF7F007FB103343
:101240000EFB00FEA4B244EA0344A64507D93419B4
:1012500000F1FF3302D2A64500F2C9801846A4EB84
:101260000E0440EA0C40A3E7C1F120068B4022FAAD
:1012700006FC4CEA030C27FA06FA4FEA1C49BAFBB3
:10128000F9F88F4020FA06F309FB18AA1FFA8CFE22
:101290003B4300FA01F708FB0EF01C0C44EA0A4439
:1012A000A04202FA01F20BD91CEB040408F1FF3A48
:1012B00080F09980A04240F29680A8F10208644430
:1012C000241A98B2B4FBF9F309FB134403FB0EFE96
:1012D00040EA0444A64508D91CEB040403F1FF309E
:1012E0007FD2A6457DD9023B644443EA0840A4EB83
:1012F0000E04A0FB028E74454346F14661D35ED0D6
:1013000055B1FA1A64EB090404FA06F622FA01F35D
:101310001E43CC40C5E9006400214EE743084FEA74
:10132000510C43EAC1710A0C42EA0C428BB2C40769
:10133000B2FBF6F143EA0243BCFBF6FCB64630468C
:1013400037461F22181A41EA0C4161E7714615E73A
:10135000184629E7C2F1200321FA03F0964024FA47
:1013600003F397403B43370CB0FBF7F807FB18003B
:101370001FFA86FE190C41EA004108FB0EF0884274
:1013800004FA02F43AD9711808F1FF3C01D28842FC
:101390001ED8091AB1FBF7F808FB0EF007FB18116D
:1013A0009BB243EA014383422FD2F31808F1FF3185
:1013B000C8D28342C6D2A8F102013344C2E74745EE
:1013C0009ED2B8EB02036EEB0C0E0138F14697E7A4
:1013D000301A0144A8F1020CB1FBF7F808FB0EF03B
:1013E000DCE7034681E7D0466AE70846FEE6344478
:1013F000023834E7ACF1020C33441CE7091AC44646
:10140000B1FBF7F808FB0EF0C8E741469AE700BFCA
:10141000704700BF02F044FC0B480C490C4A002303
:1014200002E0D458C4500433C4188C42F9D3094A9A
:10143000094C002301E013600432A242FBD306F002
:10144000A5FB00F0D7FA704700000020D80100206B
:1014500090A20008D8010020A8060020FEE70000A6
:1014600080B588B000AF07F1100300221A605A60FF
:101470009A60DA60504B9B694F4A43F010039361C6
:101480004D4B9B6903F01003FB60FB684A4B9B6963
:10149000494A43F020039361474B9B6903F02003C3
:1014A000BB60BB68444B9B69434A43F004039361B0
:1014B000414B9B6903F004037B607B683E4B9B6957
:1014C0003D4A43F0080393613B4B9B6903F00803DB
:1014D0003B603B6800224FF40051384803F0C3FAE8
:1014E00000226021364803F0BEFA002243F20221B6
:1014F000344803F0B8FA4FF400533B6101237B6199
:101500000023BB610223FB6107F1100319462B483E
:1015100003F00EF960233B6101237B610023BB6173
:101520000223FB6107F110031946254803F000F977
:1015300043F202233B6101237B610023BB61022351
:10154000FB6107F1100319461E4803F0F1F8382338
:101550003B611D4B7B610123BB6107F11003194601
:10156000184803F0E5F84FF480733B6100237B617A
:101570000023BB6107F110031946124803F0D8F8A5
:1015800000220021092002F0EAFF092003F003F8FD
:10159000002200210A2002F0E2FF0A2002F0FBFFF5
:1015A00000220021172002F0DAFF172002F0F3FFDB
:1015B00000BF2037BD4680BD001002400010014032
:1015C00000080140000C01400000211080B483B0ED
:1015D00000AF0346FB80084B1B6800225A6200BF25
:1015E000054B1B685A6AFB889A42F9D300BF00BFBB
:1015F0000C37BD4680BC70478004002080B500AF2A
:101600000E4803F02DFF01224FF400710C4803F047
:101610002AFA0A2002F0A8FE00224FF400710848BE
:1016200003F021FA0A2002F09FFE064B00221A6006
:10163000054B4FF07E521A6000BF80BD8004002031
:10164000000C0140F40100200000002080B584B0AF
:1016500000AF0023FB6002F07DFE786008E002F03E
:1016600079FE02467B68D31AC82B01D900234BE0D0
:101670004FF48071264803F0DFF90346012BEED0CA
:101680000023FB7225E001224FF40071204803F093
:10169000EAF90120FFF79AFFFB685B00FB6000227C
:1016A0004FF400711A4803F0DEF90120FFF78EFFB6
:1016B0004FF48071164803F0BFF90346012B02D1A5
:1016C000FB680133FB6097F90B30DBB20133DBB20F
:1016D000FB7297F90B30172BD5DDFB6883F4000301
:1016E000FB6001224FF40071094803F0BCF90120AE
:1016F000FFF76CFF00224FF40071054803F0B3F9C7
:101700000120FFF763FFFB6818461037BD4680BD18
:10171000000C01402DE9B04F86B000AF0346FB80BE
:101720004FF000024FF00003C7E904230023FB81C0
:10173000FB88002B01D1002330E00023BB8117E0A0
:10174000FFF784FFB860BB68002B0ED0BB68DA17C8
:101750001C461546D7E9042312EB040843EB0509A0
:10176000C7E90489FB890133FB81BB890133BB8154
:10177000BA89FB889A42E3D3FB89002B01D100236D
:101780000CE0FB8900229A46934652465B46D7E915
:101790000401FFF773FC02460B4613461846183740
:1017A000BD46BDE8B08F000080B584B000AF0346F1
:1017B000FB80FB881846FFF7ADFFF860FB68002B45
:1017C00001D1032303E0044AFB6813600023184699
:1017D0001037BD4680BD00BFF401002080B584B045
:1017E00000AF78600B467B804FF000017868FFF710
:1017F00001FC0346002B01D0012320E07B88184622
:10180000FFF788FFF860FB68002B01D1032316E087
:101810000D4B1B68FA68D31ABB60BB68002B01D163
:1018200001230CE0B868FFF7E9F903461946786828
:10183000FFF7ECFA03461A46044B1A6000231846D9
:101840001037BD4680BD00BFF4010020000000201D
:1018500080B584B000AF78600023FB607B68002B0C
:1018600001D101234CE04FF48071274803F0E4F8E4
:101870000346012B01D1022342E00023FB7222E048
:1018800001224FF40071204803F0EDF80120FFF72A
:101890009DFEFB685B00FB604FF480711A4803F00B
:1018A000CBF80346012B02D1FB680133FB60002219
:1018B0004FF40071144803F0D6F80120FFF786FEBC
:1018C000FB7A0133FB72FB7A172BD9D901224FF433
:1018D00000710D4803F0C7F80120FFF777FE0022E2
:1018E0004FF40071084803F0BEF80120FFF76EFEC8
:1018F000FB6883F40003FB60FA687B681A600023CE
:1019000018461037BD4680BD000C014080B586B03A
:1019100000AF78607B68002B01D1012344E007F120
:101920000C031846FFF794FF0346FB75FB7D022B63
:101930001BD11F4B1B78002B07D11D4B01221A70A6
:1019400002F008FD03461B4A136002F003FD024645
:10195000184B1B68D31AB3F5FA7F04D3144B00223B
:101960001A70032320E002231EE0114B00221A709C
:10197000FB7D002B01D0FB7D16E0FA680E4B1B6847
:10198000D31A3B613869FFF739F902460B4B1B68E4
:1019900019461046FFF786F903461846FFF748FB3D
:1019A00002467B681A60002318461837BD4680BD82
:1019B000F8010020FC010020F401002000000020BC
:1019C00080B500AF094B0A4A1A60084B06225A60DC
:1019D000064B40F6FF729A60044803F08DF8034608
:1019E000002B01D001F022FE00BF80BD00020020CC
:1019F0000030004080B582B000AF02F053FC00F030
:101A0000A9F8FFF72DFD02F051F902F0EFF902F00D
:101A100079FA02F05BFBFFF7D3FF02F081FB0122B2
:101A20003E493F4804F088FC3E493F4805F0F0FF3E
:101A30003D48FEF78DFB03469AB24FF0FF333A491B
:101A4000374804F0EEFB012302223849384801F000
:101A500055FE0346002B01D001F0E8FD00222021B5
:101A6000344803F000F801224021324802F0FBFF25
:101A7000314B00221A70FFF7C1FD00224FF4805154
:101A80002A4802F0F0FF00224FF40051274802F0EC
:101A9000EAFF002001F098F90021284803F082FDB8
:101AA0000421264803F07EFD0821244803F07AFD36
:101AB000224B1B6840F2DC525A63204B1B6840F2F9
:101AC000DC529A631D4B1B6840F2DC52DA6302F071
:101AD00041FC78607B680A3B194A13607B680A3BCB
:101AE000184A13607B680A3B174A136000F044FBF6
:101AF000164B1B78DBB2012B04D1144B00221A7059
:101B000000F02EFF00F06EF8114803F039F803469C
:101B1000002BEBD001F08AFDE8E700BF0E020020A9
:101B2000C8040020C09C000894020020000C014062
:101B300010050020000801400C020020380400209D
:101B4000980300209C030020A00300201002002026
:101B50000002002080B590B000AF07F118032822E2
:101B60000021184605F0BAFF3B1D00221A605A609A
:101B70009A60DA601A610923BB614FF48033FB611C
:101B800000233B620123BB6201233B6302237B638F
:101B90004FF48033BB634FF4E013FB6307F118038A
:101BA000184602F0FDFF0346002B01D001F03EFD78
:101BB0000F237B600223BB600023FB604FF4806334
:101BC0003B6100237B613B1D0221184603F06AFA4A
:101BD0000346002B01D001F029FD00BF4037BD4670
:101BE00080BD000080B582B000AFB04B1B78DBB287
:101BF000032B00F2218201A252F823F06520000895
:101C0000652000080D1C000865200008A84B1B7803
:101C1000DBB2002B12D002F09DFB0246A54B1B68E5
:101C20009A420BD0A24B00221A700821A24802F05F
:101C300003FF0346002B01D101F0CCFA9F4B1B7828
:101C4000DBB2002B12D002F085FB02469C4B1B68D6
:101C50009A420BD0994B00221A701021964802F03C
:101C6000EBFE0346002B01D101F016FB954B1B78D0
:101C7000DBB2002B12D002F06DFB0246924B1B68C8
:101C80009A420BD08F4B00221A7020218A4802F012
:101C9000D3FE0346002B01D101F060FB8B4B1B7878
:101CA000DBB2062B00F2B88101A252F823F000BF8C
:101CB000CD1C0008551D000825200008571E0008EF
:101CC0002B1F00082B1F0008252000088048FFF765
:101CD0001DFE03467B717B79032B02D07B79012BA0
:101CE00015D101F095F8714B03221A70794A8021C1
:101CF000794805F057FE7848FEF72AFA03469AB26B
:101D00004FF0FF337449754804F08BFA93E17B7907
:101D1000022B00F089816E4B1B6847F22F529342D1
:101D200040F384816E4B00221A706E4BFA221A80A7
:101D30006D4B0A221A806D4B0A221A6002F00AFBD0
:101D400003466B4A13606B4B06221A705F4B0522E9
:101D50001A706BE15E4801F0F5F80346032B76D06C
:101D6000032B5EDC012B02D0022B72D059E0584BC2
:101D70001B68184601F0E4F90346BB71BB79002BE0
:101D80001DD0BB7919465C4801F084F90346002B4D
:101D900015D101F03DF8454B03221A70574A8021B6
:101DA0004D4805F0FFFD4C48FEF7D2F903469AB2C4
:101DB0004FF0FF334849494804F033FA4AE0444BB6
:101DC0001B684F4A8021444805F0ECFD4248FEF76D
:101DD000BFF903469AB24FF0FF333F493F4804F042
:101DE00020FA3B4B1B68184601F0F6FA3D4B4FF4C6
:101DF00016721A803C4B0A221A803C4B0A221A6047
:101E000002F0A8FA03463A4A13603A4B03221A70CA
:101E10002E4B04221A7002F09DFA0346394A1360D1
:101E200018E000F0F5FF214B03221A70364A80219A
:101E3000294805F0B7FD2848FEF78AF903469AB20B
:101E40004FF0FF332449254804F0EBF902E000BFCE
:101E5000F1E000BFEFE002F07DFA0246294B1B687B
:101E6000D31AB3F57A7FC0F0E3801948FFF74EFD2F
:101E70000346FB71FB79032B02D0FB79012B45D183
:101E800000F0C6FF094B03221A70124A8021124843
:101E900005F088FD1048FEF75BF903469AB24FF053
:101EA000FF330D490D4804F0BCF9C1E00C020020DD
:101EB000A4030020A8030020000C0140AC03002074
:101EC000B0030020B4030020B80300200D0200205E
:101ED00014030020D09C000894020020C8040020B5
:101EE00058030020200300202203002024030020A8
:101EF000280300202C03002068030020E09C000839
:101F0000F49C00081C030020009D0008FB79002BB6
:101F100040F08E80564B1B6844F61F62934200F3DC
:101F20008780544B00221A7082E002F013FA0246B6
:101F3000514B1B68D21A514B1B689A427AD3504BB3
:101F40001A88504B1B889A4219D24E4B1B881A464E
:101F50004B4B1B88D31A4C4A1288934205DC494BE1
:101F60001B88184600F030FF28E0454B1A88464B86
:101F70001B8813449BB2184600F026FF1EE0404B1E
:101F80001A88404B1B889A4218D93D4B1B881A4629
:101F90003C4B1B88D31A3C4A1288934205DC394BD0
:101FA0001B88184600F010FF08E0354B1A88364BA6
:101FB0001B88D31A9BB2184600F006FF02F0CAF93C
:101FC00003462D4A13602E4B1A882E4B1B889A42CB
:101FD00030D12C4B1B88FA2B12D1002000F0F4FEDC
:101FE0002A4A80212A4805F0DDFC2948FEF7B0F88E
:101FF00003469AB24FF0FF332549264804F011F901
:10200000254B1A781B4B1A701A4B1B78DBB2062B28
:1020100010D100F047F80DE000F0FAFE1F4B03224C
:102020001A7008E000BF1EE000BF1CE000BF1AE00D
:1020300000BF18E000BF16E000F0EAFE174B0322D5
:102040001A70174A8021124805F0ACFC1048FEF7C0
:102050007FF803469AB24FF0FF330D490D4804F064
:10206000E0F800E000BF00BF0837BD4680BD00BFFC
:10207000140300200D020020280300202403002068
:102080001A03002020030020220300200C9D0008DA
:1020900094020020C80400202C0300200C02002021
:1020A000009D000880B400AF094B1B8801339AB231
:1020B000074B1A80064B1B88002B02D1044B0122D0
:1020C0001A80044B01221A7000BFBD4680BC7047C5
:1020D000BE030020BC03002090B583B000AF0446CF
:1020E000084611461A462346FB710346BB710B4650
:1020F0007B7113463B71052002F036F93B797A7902
:10210000B979F87901F03EFB034618460C37BD4615
:1021100090BD000090B583B000AF0446084611465C
:102120001A462346FB710346BB710B467B7113466F
:102130003B713B797A79B979F879FFF7CDFF03469E
:10214000002B0ED009490A4805F062FC0848FDF74B
:10215000FFFF03469AB24FF0FF330549054804F0EC
:1021600060F800BF0C37BD4690BD00BF189D000849
:1021700094020020C804002080B582B000AFB54BA7
:102180001B78DBB2002B00F08083B34B1B78FB7114
:10219000B24B1B78BB71B24B1B787B71B14B1B7878
:1021A0003B71AC4B00221A70FB79002B40F06F831F
:1021B0007B791BB21B021AB23B791BB213431BB2D1
:1021C0007B80BB79752B00F01D83752B00F3568344
:1021D000272B57DC002B40F35183013B262B00F2C9
:1021E0004D8301A252F823F08D2200087D280008BB
:1021F0007D2800087D2800087D2800087D2800082B
:102200007D2800087D2800087D2800087D2800081A
:102210007D2800087D2800087D2800087D2800080A
:102220007D2800087D2800087D2800087D280008FA
:102230007D2800087D2800087D2800087D280008EA
:102240007D2800087D2800087D2800087D280008DA
:102250007D2800087D2800087D2800087D280008CA
:102260007D280008C1220008C723000813240008A5
:10227000272500082B260008F12600081F28000843
:10228000FD220008712B00F0B082F7E23B797A79E9
:10229000F8798121FFF720FF0346002B00F0F98237
:1022A0007149724805F0B4FB7048FDF751FF0346D1
:1022B0009AB24FF0FF336D496D4803F0B2FFE8E288
:1022C0006C4B1B78DAB26C4B1B78DBB2F87980214F
:1022D000FFF702FF0346002B00F0DD8267496348E9
:1022E00005F096FB6148FDF733FF03469AB24FF0C5
:1022F000FF335E495E4803F094FFCCE2604B1B78ED
:10230000002B20D05F4B1B881B0A9BB2DAB25D4BBF
:102310001B88DBB2F8797021FFF7DEFE0346002B45
:1023200000F0BB82584A8021504805F03BFB4F48E3
:10233000FDF70EFF03469AB24FF0FF334B494C486E
:1023400003F06FFFA9E2514B1B78002B20D0504BBC
:102350001B881B0A9BB2DAB24D4B1B88DBB2F879A3
:102360007421FFF7B9FE0346002B00F09682494A1C
:1023700080213E4805F016FB3C48FDF7E9FE034688
:102380009AB24FF0FF333949394803F04AFF84E2EB
:10239000F879002300227621FFF79EFE0346002BEA
:1023A00000F07B823C4A8021304805F0FBFA2F4840
:1023B000FDF7CEFE03469AB24FF0FF332B492C486F
:1023C00003F02FFF69E27B79002B02D13B79012BCF
:1023D00006D0BA79F8790123A121FFF79BFE63E2C9
:1023E000244B1B78DBB2002B06D0BA79F87908238E
:1023F000A121FFF78FFE57E21E4B01221A70274BD7
:1024000000221A70BA79F8790023A021FFF782FE22
:102410004AE201222021224802F025FB002240212D
:102420001F4802F020FB7B79002B02D13B79012B66
:1024300038D0BA79F8790123A121FFF76BFE002289
:102440002021174802F00FFB01224021144802F01E
:102450000AFB29E2E3030020E5030020E603002055
:10246000E7030020E8030020409D000894020020BC
:10247000C80400200C0200200D020020649D00080A
:10248000BC030020BE0300208C9D0008C003002078
:10249000C2030020B89D0008E49D00081803002036
:1024A00000080140A64B1B78DBB2012B10D0BA7993
:1024B000F8790823A121FFF72DFE00222021A14851
:1024C00002F0D1FA012240219E4802F0CCFAEBE161
:1024D0003220FFF769F90346002B13D09A4B0022F4
:1024E0001A70BA79F8790923A121FFF713FE0022A7
:1024F0002021944802F0B7FA01224021914802F0CD
:10250000B2FAD1E1BA79F8790023A021FFF702FEEF
:10251000002220218B4802F0A6FA0022402189489F
:1025200002F0A1FAC0E101222021864802F09BFAC4
:1025300000224021834802F096FA814B1B78DBB2DF
:10254000012B10D0BA79F8790823A121FFF7E2FD19
:10255000002220217B4802F086FA0122402179489E
:1025600002F081FAA0E1794B1B68002B10D1BA79F7
:10257000F8790A23A121FFF7CDFD0022202171481F
:1025800002F071FA012240216E4802F06CFA8BE1F0
:102590007B88002B10D1BA79F8790223A121FFF7AB
:1025A000B9FD00222021674802F05DFA0122402196
:1025B000644802F058FA77E17B881846FEF71AFB68
:1025C000034663491846FEF76DFB03463221184661
:1025D000FFF704F90346002B13D05B4B00221A705F
:1025E000BA79F8790923A121FFF794FD002220216F
:1025F000544802F038FA01224021524802F033FADE
:1026000052E1514B01221A70BA79F8790023A021C6
:10261000FFF780FD002220214A4802F024FA002220
:102620004021484802F01FFA3EE17B79002B02D19D
:102630003B79012B06D9BA79F8790123A121FFF75B
:1026400069FD54E03B79002B0BD100F0E1FB3C4BE2
:1026500000221A70BA79F8790023A021FFF75AFDF9
:1026600022E1394B1B78002B06D1BA79F8790B237C
:10267000A121FFF74FFD17E1314B1B78DBB2012B96
:102680000BD02F4B1B78DBB2002B06D0BA79F87930
:102690000823A121FFF73EFD29E00122202129483E
:1026A00002F0E1F900224021264802F0DCF9002086
:1026B00000F08AFB0021274802F074FF01224FF44A
:1026C0008051254802F0CFF900224FF400512248F2
:1026D00002F0C9F91A4B02221A70204B02221A701A
:1026E000BA79F8790023A021FFF714FDDCE0DBE0E4
:1026F0007B79002B02D13B79012B06D9BA79F87985
:102700000123A121FFF706FDC9E00D4B1B78DBB2C9
:10271000022B06D0BA79F8790823A121FFF7FAFC39
:10272000BDE03B79012B37D10C4B1B78DBB2022B80
:1027300016D0BA79F8790323A121FFF7EBFCAEE0BC
:102740000C0200200008014018030020F4010020C2
:1027500000007A44F0030020000C01400D0200202C
:10276000534B4FF416721A80524B0A221A80524B66
:102770000A221A6001F0EEFD0346504A1360504BE6
:1027800000221A704F4B04221A70BA79F87900238C
:10279000A021FFF7BFFC82E03B79002B7FD14A4BA1
:1027A0001B88FA2B06D8474B02221A70002000F033
:1027B0000BFB13E03E4BFA221A803E4B0A221A8092
:1027C0003D4B0A221A6001F0C5FD03463B4A1360E7
:1027D0003B4B02221A703B4B05221A70BA79F879EA
:1027E0000023A021FFF796FC59E0384B1B78002B03
:1027F00057D0374B1B887A889A4252D1334B0022EC
:102800001A704EE0334B1B78002B4CD0324B1B8898
:102810007A889A4247D12F4B00221A7043E07B7985
:10282000002B02D13B79012B06D0BA79F87901232C
:10283000A121FFF76FFC20E0284B1B78DBB2022BB5
:1028400004D1204B1B78DBB2062B06D0BA79F8797D
:102850000823A121FFF75EFC0FE01C4B00221A7039
:102860001F4B00221A70174B01221A70BA79F8799F
:102870000023A021FFF74EFC16E015E0BA79F879A5
:102880000723A121FFF746FC0EE000BF0CE000BFCC
:102890000AE000BF08E000BF06E000BF04E000BFA0
:1028A00002E000BF00E000BF0837BD4680BD00BFAA
:1028B00020030020220300202403002028030020FE
:1028C0002C0300200D0200201A030020BC0300206E
:1028D000BE030020C0030020C20300200C02002021
:1028E0005803002090B587B004AF154B1B78DBB2BE
:1028F0001C46144B1B78DBB21846134B1B68134A5B
:1029000012681349096803910292019300902346CB
:10291000104A8021104805F045F878607B68002B4C
:102920000ADD7B687F2B07DC7B689AB24FF0FF33B0
:1029300009490A4803F075FC00BF0C37BD4690BD3D
:102940000C0200200D0200205C0300206003002028
:1029500014030020109E000894020020C8040020E8
:1029600080B584B002AFBC4B1B78413B132B00F207
:10297000038201A252F823F0C9290008A92C0008FB
:10298000792A0008432D0008792D00084B2B0008F8
:10299000792D0008792D0008792D0008792D00087F
:1029A000792D0008792D0008792D0008792D00086F
:1029B000792D0008792D0008732D0008792D000865
:1029C000792D0008B32A0008A34B5B78312B38D14E
:1029D000A24B1B78012B40F0D18101222021A0487D
:1029E00002F041F8002240219D4802F03CF89D4B46
:1029F00002221A70002000F0E7F900219A4802F044
:102A0000D1FD01224FF48051984802F02CF80022A9
:102A10004FF40051954802F026F8954B02221A70A7
:102A2000944A8021944804F0BDFF9348FDF790FB41
:102A300003469AB24FF0FF338F49904803F0F1FB01
:102A40009CE1854B5B78302B40F0988100F0E0F9F9
:102A5000844B00221A708A4A8021874804F0A2FF22
:102A60008548FDF775FB03469AB24FF0FF33824964
:102A7000824803F0D6FB81E17A4B1B78DBB2002B56
:102A800040F07E81774B01221A70744B00221A703D
:102A90007C4A8021784804F085FF7748FDF758FB91
:102AA00003469AB24FF0FF337349744803F0B9FB01
:102AB00066E16C4B1B78DBB2012B40F06381002296
:102AC0004021674801F0CFFF01222021644801F036
:102AD000CAFF3220FEF768FE0346002B1DD00022FD
:102AE00020215F4801F0BFFF012240215C4801F036
:102AF000BAFF5A4B00221A70634A80215E4804F0E4
:102B000051FF5D48FDF724FB03469AB24FF0FF33B7
:102B100059495A4803F085FB3BE1002220215048E7
:102B200001F0A1FF594B1B68594A8021524804F01B
:102B300039FF5148FDF70CFB03469AB24FF0FF33C3
:102B40004D494E4803F06DFB1CE1464B1B78DBB250
:102B5000012B40F019814D4B1B68002B62D04D4872
:102B600004F072F978607B68002B40F30D8178687F
:102B7000FEF744F8034648491846FEF793F8034623
:102B80003B6001222021364801F06DFF00224021E8
:102B9000334801F068FF32213868FEF71FFE034614
:102BA000002B21D12D4B01221A70002260212C48CC
:102BB00001F059FF394B1B681846FDF735FC0246FA
:102BC0000B46CDE90023364A80212B4804F0EAFE6B
:102BD0002948FDF7BDFA03469AB24FF0FF33264964
:102BE000264803F01EFBCFE0002220211C4801F004
:102BF0003AFF012240211A4801F035FF174B00220D
:102C00001A70214A80211C4804F0CCFE1A48FDF7B6
:102C10009FFA03469AB24FF0FF331749174803F063
:102C200000FBB6E00F4B00221A7000F0F1F80B4BDE
:102C300000221A701B4A80210F4804F0B3FE0E4890
:102C4000FDF786FA03469AB24FF0FF330A490B4864
:102C500003F0E7FA98E000BF1402002018030020F8
:102C6000000801400C020020F0030020000C01408D
:102C70000D020020289E000894020020C8040020B5
:102C8000349E0008449E0008D09C0008F4010020F7
:102C9000589E00081502002000007A440000002021
:102CA000649E0008749E00083C4B5B78312B1FD15A
:102CB0003B4B1B78DBB2022B68D13A4B1B78DBB263
:102CC000022B63D1384B4FF416721A80374B0A220D
:102CD0001A80374B0A221A6001F03CFB0346354A42
:102CE0001360354B00221A702E4B04221A704DE0EF
:102CF0002A4B5B78302B49D1294B1B78DBB2022B56
:102D000044D12E4B1B88FA2B06D8264B02221A7070
:102D1000002000F059F839E0234BFA221A80234BA7
:102D20000A221A80224B0A221A6001F013FB034682
:102D3000204A1360204B02221A701A4B05221A7087
:102D400024E0164B5B78312B22D1154B1B78DBB27C
:102D5000022B1DD1134B1B78DBB2062B18D1184B5D
:102D600000221A700F4B01221A70164B00221A70A3
:102D70000EE0FFF7B7FD0CE000BF0AE000BF08E07F
:102D800000BF06E000BF04E000BF02E000BF00E0BB
:102D900000BF00BF0837BD4680BD00BF1402002041
:102DA0000C0200200D02002020030020220300203E
:102DB00024030020280300202C0300201A030020F5
:102DC00058030020BC03002080B483B000AF03464A
:102DD000FB80FB88B3F57A7F0ED8FB88094AD26A5C
:102DE00002FB03F3084AA2FB03239B099AB2054B9B
:102DF0005A63064AFB88138000BF0C37BD4680BC6F
:102E0000704700BF002C0140D34D62101A03002010
:102E100080B500AF00222021364801F024FE0122B7
:102E20004021344801F01FFE0020FFF7CDFF0022B3
:102E30004FF48051304801F016FE00224FF400514B
:102E40002D4801F010FE00212C4802F04DFC2C4BC7
:102E50001B6840F2DC525A63294B1B6840F2DC527B
:102E60009A63274B1B6840F2DC52DA63254B002241
:102E70001A70254B00221A60244B00221A60244B42
:102E800000221A60234B00221A60234B00229A7200
:102E9000214B0022DA72204B00221A731F4B0022B2
:102EA0009A721E4B0022DA721C4B00221A731C4BC2
:102EB00000229A721A4B0022DA72194B00221A73FE
:102EC000184B00221A70184B00221A70174B002260
:102ED0001A70174B00221A70164B00221A70164BEC
:102EE00000221A60154B00221A60154B00221A604E
:102EF00000BF80BD00080140000C0140F00300202D
:102F00003804002058030020140300205C03002034
:102F10006003002064030020680300207803002081
:102F200088030020BC030020C0030020A40300206D
:102F3000AC030020B4030020A8030020B00300204D
:102F4000B80300202DE9B0438AB000AF78604FF09D
:102F500000024FF00003C7E9082307F10C031846ED
:102F6000FEF7D4FC0346BB75BB7D022B01D10323C6
:102F700082E0BB7D002B04D0424B00221A7000235C
:102F80007AE0404B1B781946FB683F4A42F82130F3
:102F90003C4B1B780133DAB23A4B1A70394B1B7831
:102FA000092B01D8032367E0374B1B68FB61364BC5
:102FB0001B68BB610023FB7529E0FB7D324A52F898
:102FC0002330DA171C461546D7E9082312EB04080C
:102FD00043EB0509C7E90889FB7D2B4A52F82330EA
:102FE000FA699A4204DDFB7D274A52F82330FB61DF
:102FF000FB7D254A52F82330BA699A4204DAFB7DF8
:10300000214A52F82330BB61FB7D0133FB75FB7D08
:10301000092BD2D9D7E908014FF00A024FF000037B
:10302000FEF72CF802460B467B681A60154B00220F
:103030001A70BA69FB69D31A1846FDF7DFFD03461B
:1030400012491846FDF72EFE03461C467B681B6896
:103050001846FDF7D3FD034619462046FDF7D6FE78
:1030600003463B610A493869FDF7D8FF0346002B48
:1030700001D0022300E0012318462837BD46BDE8F1
:10308000B08300BF58030020300300200000C84276
:103090000000A04080B483B000AF78600B46FB70A6
:1030A0007B681B7B092B01D9002319E07B689B7A85
:1030B00019467B68FA785A547B689B7A0133DAB2F6
:1030C0007B689A727B689B7A092B02D97B68002205
:1030D0009A727B681B7B0133DAB27B681A73012317
:1030E00018460C37BD4680BC704780B483B000AF33
:1030F000786039607B681B7B002B01D100231AE0CC
:103100007B68DB7A1A467B689A5C3B681A707B683E
:10311000DB7A0133DAB27B68DA727B68DB7A092BFF
:1031200002D97B680022DA727B681B7B013BDAB232
:103130007B681A73012318460C37BD4680BC704764
:1031400080B483B000AF78607B684AF6C772934260
:103150000BDD7B684DF2D862934206DC174B1B688F
:103160000133164A1360012323E07B68144A93421B
:103170000ADD7B68134A934206DC104B1B6801335F
:103180000E4A1360022314E07B680F4A93420ADD63
:103190007B680E4A934206DC084B1B680133074AE2
:1031A0001360032305E00A4B1B680133084A1360D0
:1031B000042318460C37BD4680BC70475C030020D2
:1031C00017730100289A010067360200785D02003B
:1031D0006003002080B582B000AFFB1D1946254872
:1031E000FFF783FF0346002B10D1234A8021234899
:1031F00004F0D8FB2148FCF7ABFF03469AB24FF02E
:10320000FF331E491E4803F00CF82FE0FB79012B19
:103210000AD11C4B1B684FF448725A631A4B1B6847
:103220000133194A136021E0164B1B6840F2DC524F
:103230005A63FB7919461548FFF72CFF0346002B0C
:1032400014D1FFF7E5FD124B03221A70114A8021B9
:103250000A4804F0A7FB0948FCF77AFF03469AB234
:103260004FF0FF330549064802F0DBFF0837BD4643
:1032700080BD00BF68030020889E000894020020E3
:10328000C8040020380400206403002078030020D4
:103290000C020020E09C000880B582B000AFFB1D4E
:1032A00019462548FFF721FF0346002B10D1234A7A
:1032B0008021234804F076FB2148FCF749FF0346B0
:1032C0009AB24FF0FF331E491E4802F0AAFF2FE0CA
:1032D000FB79022B0AD11C4B1B684FF448729A638E
:1032E0001A4B1B680133194A136021E0164B1B6807
:1032F00040F2DC529A63FB7919461548FFF7CAFE83
:103300000346002B14D1FFF783FD124B03221A70E2
:10331000114A80210A4804F045FB0948FCF718FFD0
:1033200003469AB24FF0FF330549064802F079FF91
:103330000837BD4680BD00BF78030020A89E000866
:1033400094020020C80400203804002064030020F8
:10335000880300200C020020E09C000880B582B0A9
:1033600000AFFB1D19461648FFF7BFFE0346002BB2
:1033700010D1144A8021144804F014FB1248FCF7C1
:10338000E7FE03469AB24FF0FF330F490F4802F0B1
:1033900048FF12E0FB79032B0AD10D4B1B684FF459
:1033A0004872DA630B4B1B6801330A4A136004E06E
:1033B000074B1B6840F2DC52DA630837BD4680BD1C
:1033C00088030020C89E000894020020C804002042
:1033D000380400206403002080B485B000AF78601A
:1033E0007B68002B02DC0023FB6006E07B68323345
:1033F0000B4AA2FB03235B09FB60FB68B3F5803F2C
:1034000002D34FF6FF73FB60FB689AB2054B1A803C
:10341000054B01221A7000BF1437BD4680BC7047AF
:103420001F85EB51C2030020C003002080B584B08B
:1034300000AF0346FB802A4B1B78DBB2022B4AD13C
:1034400000F088FFF860FB88082B14D1254B1B681F
:10345000FA68D31A092B3FD9234B1B78DBB2002B18
:103460003AD1204AFB6813601F4B01221A701F4A91
:10347000FB68136030E0FB88102B14D11C4B1B68D9
:10348000FA68D31A092B27D91A4B1B78DBB2002B09
:1034900022D1174AFB681360164B01221A70164A94
:1034A000FB68136018E0FB88202B15D1134B1B68B9
:1034B000FA68D31A092B0FD9114B1B78DBB2002BFA
:1034C0000AD10E4AFB6813600D4B01221A700D4A97
:1034D000FB68136000E000BF1037BD4680BD00BF31
:1034E0000C02002098030020A4030020A803002061
:1034F0009C030020AC030020B0030020A0030020A8
:10350000B4030020B803002080B584B000AF786019
:103510007B681B68244A934202D1786800F092F9D4
:103520007B681B68214A93423AD1214B1B78FB737D
:10353000FB7B3A2B06D11F4B01221A701E4B002237
:103540001A7028E01B4B1B78DBB2012B23D1FB7BCD
:103550000A2B01D00D2B0DD1174B1B78DBB21A466D
:10356000164B00219954134B00221A70144B012260
:103570001A7010E0104B1B78DBB27E2B0AD80E4B72
:103580001B78DBB25A1CD1B20B4A117019460B4A98
:10359000FB7B535400BF012205490A4802F0CCFED0
:1035A00000BF1037BD4680BD0048004000380140D4
:1035B0000E0200200F020020110200201402002041
:1035C00010020020C804002080B582B000AF7860EF
:1035D0007B68002B19D07B681B680E4A934203D18D
:1035E000786800F0D5F911E07B681B680A4A9342BD
:1035F0000CD10A4B00221A70094B00221A700122CA
:103600000849094802F098FE00E000BF0837BD46AF
:1036100080BD00BF00480040003801400F0200207C
:10362000110200200E020020C804002080B582B0E4
:1036300000AF72B600BF4FF40051074801F02BFAFB
:1036400000237B6003E000BF7B6801337B607B6805
:10365000024A9342F7D9EEE7001001403F420F00C3
:1036600080B400AF044B00221A70044B00221A7081
:1036700000BFBD4680BC7047E1030020E20300208C
:1036800080B485B000AF78600B46FB700023FB73FD
:103690007B68002B01D100232AE00023BB7322E0CA
:1036A000BB7B7A6813441A78FB7B5340FB7300237F
:1036B0007B7312E097F90F30002B08DA97F90F307F
:1036C0005B005BB283F007035BB2FB7302E0FB7B42
:1036D0005B00FB737B7B01337B737B7B072BE9D91F
:1036E000BB7B0133BB73BA7BFB789A42D8D3FB7B9D
:1036F00018461437BD4680BC7047000080B584B0C2
:1037000000AFF860B96011461A460B46FB801346BD
:103710007B71FB68002B05D0BB68002B02D0FB88B7
:10372000002B01D1012323E0134AFB681360124AE6
:10373000BB685360104AFB8813810F4A7B799372F0
:103740000D4B0122DA72FFF78BFF0C4B00221A702F
:10375000094B5B68084A11890022184601F083F979
:10376000054B1B6801220649184602F0E5FD034699
:1037700018461037BD4680BDC4030020E303002077
:10378000E003002090B585B000AF0446084611461E
:103790001A462346FB710346BB710B467B711346E9
:1037A0003B71254BDB7A002B07D0234B1B68002B8A
:1037B00003D0214B5B68002B01D1012337E01F4B65
:1037C0003A221A701D4AFB7953701B4B9A7A1B4B95
:1037D0009A701A4ABB79D370184A7B791371174AC9
:1037E0003B79537105211648FFF74AFF03461A46F5
:1037F000124B9A71114B0D22DA710F4B5B680E4A16
:1038000011890122184601F02EF90B4B1868142378
:1038100008220A4902F005FD0346FB73064B5B686C
:10382000054A11890022184601F01DF9FB7B184654
:103830001437BD4690BD00BFC4030020D003002054
:10384000D103002080B584B000AF7860444BDB7AB0
:10385000002B00F081807B68002B7DD0404B1B68E3
:10386000002B79D07B681A683D4B1B681B689A4215
:1038700072D13C4B1B78002B15D13B4B1B783A2B5C
:1038800062D13A4B00221A70384B1B785A1CD1B2C5
:10389000364A11701A46344B1978354B9954314BCE
:1038A00001221A7050E0314B1B78072B0BD82F4B9D
:1038B0001B785A1CD1B22D4A11701A462A4B19781E
:1038C0002B4B995401E0FFF7CBFE284B1B78072BBD
:1038D0003AD9FFF7C5FE264B1B783A2B34D1244B3F
:1038E000DB790D2B30D105212248FFF7C9FE0346B5
:1038F000FB731F4B9B79FA7B9A4225D11C4B5B785B
:10390000BB73174B9B7ABA7B9A4202D0BB7BFF2BCF
:103910001AD1194B1B78DBB2002B15D1174ABB7B90
:103920001370134B9A78164B1A70114BDA78154BAB
:103930001A700F4B1A79144B1A700D4B5A79134B9E
:103940001A700D4B01221A70054B1B6801220649A3
:10395000184602F0F1FC00E000BF1037BD4680BD04
:10396000C4030020E2030020E0030020E103002064
:10397000D8030020D9030020E3030020E403002043
:10398000E5030020E6030020E7030020E803002011
:1039900080B584B000AF78601A4BDB7A002B2DD055
:1039A0007B68002B2AD0174B1B68002B26D07B6826
:1039B0001A68144B1B681B689A421FD1FFF750FE10
:1039C0000023FB607B681B681B68FB607B681B68CF
:1039D0005B68FB60FB687B6800225A647B6820227E
:1039E00083F842207B68002283F84020054B1B6847
:1039F00001220549184602F09FFC00E000BF103785
:103A0000BD4680BDC4030020E003002080B485B023
:103A100000AF154B9B69144A43F001039361124BAD
:103A20009B6903F00103BB60BB680F4BDB690E4A67
:103A300043F08053D3610C4BDB6903F080537B6010
:103A40007B680A4B5B68FB60FB6823F0E063FB600C
:103A5000FB6843F08063FB60044AFB68536000BF6F
:103A60001437BD4680BC7047001002400000014082
:103A700080B400AF00BFFDE780B400AF00BFFDE73A
:103A800080B400AF00BFFDE780B400AF00BFFDE72A
:103A900080B400AF00BFFDE780B400AF00BFBD46FB
:103AA00080BC704780B400AF00BFBD4680BC70478B
:103AB00080B400AF00BFBD4680BC704780B500AF8A
:103AC00000F036FC00BF80BD80B500AF082000F0DC
:103AD000FBFF00BF80BD80B500AF102000F0F4FFF9
:103AE00000BF80BD80B500AF202000F0EDFF00BF1B
:103AF00080BD000080B500AF024802F043FC00BF6B
:103B000080BD00BFC804002080B500AF024802F0AD
:103B100039FC00BF80BD00BF1005002080B400AF9D
:103B200001231846BD4680BC704780B582B000AF07
:103B30007860396004F024F8034616221A604FF0CA
:103B4000FF3318460837BD4680BD80B582B000AF50
:103B500078604FF0FF317868FFF7E7FF00BFFDE7BF
:103B600080B586B000AFF860B9607A6000237B61F1
:103B70000AE0AFF300800146BB685A1CBA60CAB2C3
:103B80001A707B6901337B617A697B689A42F0DB4A
:103B90007B6818461837BD4680BD80B586B000AF3B
:103BA000F860B9607A6000237B6109E0BB685A1C49
:103BB000BA601B781846AFF300807B6901337B61E4
:103BC0007A697B689A42F1DB7B6818461837BD46F4
:103BD00080BD80B483B000AF78604FF0FF331846EB
:103BE0000C37BD4680BC704780B483B000AF7860AE
:103BF00039603B684FF400525A60002318460C3776
:103C0000BD4680BC704780B483B000AF78600123AC
:103C100018460C37BD4680BC704780B485B000AFF5
:103C2000F860B9607A60002318461437BD4680BC3E
:103C30007047000080B586B000AF7860144A154B1D
:103C4000D31A7B617B693B61134B1B68002B02D14C
:103C5000114B124A1A60104B1A687B6813443A6978
:103C60009A4207D203F08CFF03460C221A604FF0F1
:103C7000FF3309E0084B1B68FB60074B1A687B6841
:103C80001344054A1360FB6818461837BD4680BDCB
:103C90000050002000040000EC030020A8060020D3
:103CA00080B400AF00BFBD4680BC704780B596B001
:103CB00000AF07F1480300221A605A609A60DA6088
:103CC00007F1400300221A605A6007F12403002222
:103CD0001A605A609A60DA601A615A619A613B1DF3
:103CE00020220021184603F0F9FE3E4B3E4A1A609E
:103CF0003C4B00225A603B4B00229A60394B6322B6
:103D0000DA60384B00221A61364B00225A61354B7B
:103D100000229A61334801F053FB0346002B01D087
:103D2000FFF784FC4FF48053BB6407F14803194646
:103D30002C4801F0FFFD0346002B01D0FFF776FC75
:103D4000284801F0D7FB0346002B01D0FFF76EFC9B
:103D500000233B6400237B6407F14003194621489C
:103D600002F060F90346002B01D0FFF75FFC6023EF
:103D70007B620023BB620023FB6200233B630023C2
:103D80007B630023BB630023FB6307F12403002252
:103D90001946144801F00CFD0346002B01D0FFF733
:103DA00045FC00237B600023BB600023FB600023F5
:103DB0003B6100237B614FF40053BB6100233B62F6
:103DC0003B1D1946074802F08BF90346002B01D032
:103DD000FFF72CFC034800F027F900BF5837BD4619
:103DE00080BD00BFF0030020002C014080B58EB0E4
:103DF00000AF07F1280300221A605A609A60DA6067
:103E000007F1200300221A605A603B1D00221A604D
:103E10005A609A60DA601A615A619A61384B4FF0C1
:103E200080421A60364B47225A60354B00229A6016
:103E3000334B44F61F62DA60314B00221A61304B7B
:103E400000229A612E4801F0BBFA0346002B01D0F4
:103E5000FFF7ECFB4FF48053BB6207F128031946D0
:103E6000274801F067FD0346002B01D0FFF7DEFB7A
:103E7000234801F03FFB0346002B01D0FFF7D6FBA0
:103E800000233B6200237B6207F1200319461C4894
:103E900002F0C8F80346002B01D0FFF7C7FB6023F0
:103EA0007B600023BB600023FB6000237B613B1D24
:103EB00000221946124801F07BFC0346002B01D07A
:103EC000FFF7B4FB3B1D042219460D4801F070FCBE
:103ED0000346002B01D0FFF7A9FB3B1D0822194622
:103EE000074801F065FC0346002B01D0FFF79EFB5D
:103EF000034800F099F800BF3837BD4680BD00BFC9
:103F00003804002080B586B000AF07F10803002216
:103F10001A605A609A60DA603B4600221A605A6062
:103F20001D4B1E4A1A601C4B00225A601A4B00227D
:103F30009A60194B4FF6FF72DA60174B00221A6134
:103F4000154B00229A61144801F03AFA0346002BFF
:103F500001D0FFF76BFB4FF48053BB6007F1080300
:103F600019460D4801F0E6FC0346002B01D0FFF78F
:103F70005DFB00233B6000237B603B4619460648FF
:103F800002F050F80346002B01D0FFF74FFB00BFB3
:103F90001837BD4680BD00BF8004002000040040EB
:103FA00080B487B000AF78607B681B681B4A93427F
:103FB0000CD11B4B9B691A4A43F400639361184B65
:103FC0009B6903F400637B617B6922E07B681B686B
:103FD000B3F1804F0CD1124BDB69114A43F001035E
:103FE000D3610F4BDB6903F001033B613B6910E0D8
:103FF0007B681B680B4A93420BD1094BDB69084A6B
:1040000043F00203D361064BDB6903F00203FB605C
:10401000FB6800BF1C37BD4680BC7047002C0140C8
:10402000001002400004004080B588B000AF786006
:1040300007F1100300221A605A609A60DA607B6808
:104040001B681F4A934219D11E4B9B691D4A43F0BE
:10405000040393611B4B9B6903F00403FB60FB6843
:104060004FF480733B6102237B610223FB6107F104
:1040700010031946144800F05BFB1CE07B681B68CA
:10408000B3F1804F17D10F4B9B690E4A43F00403E5
:1040900093610C4B9B6903F00403BB60BB6807236F
:1040A0003B6102237B610223FB6107F11003194688
:1040B000054800F03DFB00BF2037BD4680BD00BF76
:1040C000002C0140001002400008014080B500AF04
:1040D000114B124A1A60104B4FF4E1325A600E4BEA
:1040E00000229A600C4B0022DA600B4B00221A610E
:1040F000094B0C225A61084B00229A61064B0022A0
:10410000DA61054802F03DF80346002B01D0FFF7C5
:104110008DFA00BF80BD00BFC804002000380140F8
:1041200080B500AF114B124A1A60104B4FF4E132C8
:104130005A600E4B00229A600C4B0022DA600B4B47
:1041400000221A61094B0C225A61084B00229A6125
:10415000064B0022DA61054802F013F80346002BF3
:1041600001D0FFF763FA00BF80BD00BF100500203B
:104170000048004080B58AB000AF786007F11803AE
:1041800000221A605A609A60DA607B681B68404AB5
:1041900093423AD13F4B9B693E4A43F4804393613B
:1041A0003C4B9B6903F480437B617B69394B9B6982
:1041B000384A43F004039361364B9B6903F00403D0
:1041C0003B613B694FF40073BB610223FB61032336
:1041D0007B6207F1180319462F4800F0A9FA4FF443
:1041E0008063BB610023FB6100233B6207F118037E
:1041F0001946294800F09CFA00220021252000F0F1
:10420000AEF9252000F0C7F93EE07B681B68234A21
:10421000934239D11F4BDB691E4A43F48023D3619B
:104220001C4BDB6903F48023FB60FB68194B9B6923
:10423000184A43F008039361164B9B6903F0080387
:10424000BB60BB684FF48063BB610223FB61032347
:104250007B6207F118031946114800F069FA4FF420
:104260000063BB610023FB6100233B6207F118037D
:1042700019460B4800F05CFA00220021272000F0CC
:104280006EF9272000F087F900BF2837BD4680BDB2
:104290000038014000100240000801400048004082
:1042A000000C014080B500AF084B1B68074A43F083
:1042B00010031360032000F047F90F2000F008F806
:1042C000FFF7A4FB0023184680BD00BF002002407A
:1042D00080B582B000AF7860124B1A68124B1B7821
:1042E00019464FF47A73B3FBF1F3B2FBF3F31846BC
:1042F00000F05FF90346002B01D001230EE07B683C
:104300000F2B0AD8002279684FF0FF3000F027F910
:10431000064A7B681360002300E001231846083733
:10432000BD4680BD040000200C00002008000020D5
:1043300080B400AF054B1B781A46054B1B6813442D
:10434000034A136000BFBD4680BC70470C000020CC
:104350005805002080B400AF024B1B681846BD46CC
:1043600080BC70475805002080B584B000AF7860ED
:10437000FFF7F0FFB8607B68FB60FB68B3F1FF3FBD
:1043800005D00A4B1B781A46FB681344FB6000BF3C
:10439000FFF7E0FF0246BB68D31AFA689A42F7D8E3
:1043A00000BF00BF1037BD4680BD00BF0C0000201D
:1043B00080B485B000AF78607B6803F00703FB60D2
:1043C0000C4BDB68BB60BA684FF6FF031340BB6061
:1043D000FB681A02BB68134343F0BF6343F4003326
:1043E000BB60044ABB68D36000BF1437BD4680BCC5
:1043F000704700BF00ED00E080B400AF044BDB6805
:104400001B0A03F007031846BD4680BC704700BF77
:1044100000ED00E080B483B000AF0346FB7197F974
:104420000730002B0BDBFB7903F01F02064997F9DD
:1044300007305B09012000FA02F241F8232000BF97
:104440000C37BD4680BC704700E100E080B483B00B
:1044500000AF03463960FB7197F90730002B0ADB88
:104460003B68DAB20C4997F907301201D2B20B441B
:1044700083F800230AE03B68DAB20849FB7903F0CD
:104480000F03043B1201D2B20B441A7600BF0C3763
:10449000BD4680BC704700BF00E100E000ED00E0D9
:1044A00080B489B000AFF860B9607A60FB6803F04F
:1044B0000703FB61FB69C3F10703042B28BF042337
:1044C000BB61FB690433062B02D9FB69033B00E0A7
:1044D00000237B614FF0FF32BB6902FA03F3DA433A
:1044E000BB681A407B699A404FF0FF317B6901FA43
:1044F00003F3D9437B680B40134318462437BD466A
:1045000080BC704780B582B000AF78607B68013BAB
:10451000B3F1807F01D301230FE00A4A7B68013B9E
:1045200053600F214FF0FF30FFF790FF054B002243
:104530009A60044B07221A60002318460837BD46CC
:1045400080BD00BF10E000E080B582B000AF7860B1
:104550007868FFF72DFF00BF0837BD4680BD80B5E6
:1045600086B000AF0346B9607A60FB7300237B61BD
:10457000FFF742FF78617A68B9687869FFF790FFC2
:10458000024697F90F3011461846FFF75FFF00BF4C
:104590001837BD4680BD80B582B000AF0346FB71C1
:1045A00097F907301846FFF735FF00BF0837BD46BB
:1045B00080BD80B582B000AF78607868FFF7A2FF59
:1045C000034618460837BD4680BD80B485B000AFAD
:1045D00078600023FB737B6893F82130DBB2022BF9
:1045E00008D07B6804229A637B68002283F820202D
:1045F000012320E07B681B681A687B681B6822F037
:104600000E021A607B681B681A687B681B6822F0C0
:1046100001021A607B681A6C7B68DB6B012101FA6E
:1046200002F25A607B68012283F821207B68002215
:1046300083F82020FB7B18461437BD4680BC7047AA
:1046400080B584B000AF78600023FB737B6893F87B
:104650002130DBB2022B05D07B6804229A63012350
:10466000FB7351E07B681B681A687B681B6822F04B
:104670000E021A607B681B681A687B681B6822F050
:1046800001021A607B681B68224A934229D07B682A
:104690001B68214A934222D07B681B681F4A9342C1
:1046A0001AD07B681B681E4A934212D07B681B6835
:1046B0001C4A93420AD07B681B681B4A934202D172
:1046C0004FF480130EE04FF080730BE04FF4803313
:1046D00008E04FF4805305E04FF4807302E01023AC
:1046E00000E00123114A53607B68012283F82120F6
:1046F0007B68002283F820207B685B6B002B03D053
:104700007B685B6B78689847FB7B18461037BD4623
:1047100080BD00BF080002401C0002403000024083
:1047200044000240580002406C0002400000024079
:1047300080B48BB000AF7860396000237B620023C7
:104740003B6269E101227B6A02FA03F3FB613B6889
:104750001B68FA691340BB61BA69FB699A4240F071
:1047600058813B685B689A4A93425ED0984A93426C
:1047700075D8984A934258D0964A93426FD8964A31
:10478000934252D0944A934269D8944A93424CD06F
:10479000924A934263D8924A934246D0904A9342B7
:1047A0005DD8122B2AD8122B59D801A252F823F027
:1047B0002B48000805480008174800085948000819
:1047C0005F4800085F4800085F4800085F4800082D
:1047D0005F4800085F4800085F4800085F4800081D
:1047E0005F4800085F4800085F4800085F4800080D
:1047F0005F4800080D48000821480008794A9342A4
:1048000013D02CE03B68DB683B6229E03B68DB6847
:1048100004333B6224E03B68DB6808333B621FE003
:104820003B68DB680C333B621AE03B689B68002BFB
:1048300002D104233B6213E03B689B68012B05D146
:1048400008233B627B68FA691A6109E008233B622E
:104850007B68FA695A6103E000233B6200E000BF15
:10486000BB69FF2B01D87B6801E07B6804337B6167
:10487000BB69FF2B02D87B6A9B0002E07B6A083B86
:104880009B003B617B691A680F213B6901FA03F3C6
:10489000DB431A40396A3B6901FA03F31A437B6927
:1048A0001A603B685B6803F08053002B00F0B18016
:1048B0004D4B9B694C4A43F0010393614A4B9B6902
:1048C00003F00103BB60BB68484A7B6A9B08023364
:1048D00052F82330FB607B6A03F003039B000F2236
:1048E00002FA03F3DB43FA681340FB607B68404A3B
:1048F000934213D07B683F4A93420DD07B683E4A77
:10490000934207D07B683D4A934201D1032306E0DE
:10491000042304E0022302E0012300E000237A6A7A
:1049200002F0030292009340FA681343FB602F49A0
:104930007B6A9B080233FA6841F823203B685B6876
:1049400003F48013002B06D02D4B9A682C49BB69C9
:1049500013438B6006E02A4B9A68BB69DB43284906
:1049600013408B603B685B6803F40013002B06D098
:10497000234BDA682249BB691343CB6006E0204B26
:10498000DA68BB69DB431E491340CB603B685B6858
:1049900003F40033002B06D0194B5A681849BB6941
:1049A00013434B6006E0164B5A68BB69DB4314495E
:1049B00013404B603B685B6803F48033002B21D0CD
:1049C0000F4B1A680E49BB6913430B6021E000BF0F
:1049D00000003210000031100000221000002110F1
:1049E00000001210000011100010024000000140F1
:1049F00000080140000C014000100140001401407B
:104A0000000401400B4B1A68BB69DB4309491340A2
:104A10000B607B6A01337B623B681A687B6A22FA0F
:104A200003F3002B7FF48EAE00BF00BF2C37BD46D2
:104A300080BC70470004014080B485B000AF78604E
:104A40000B467B807B689A687B881340002B02D0E2
:104A50000123FB7301E00023FB73FB7B1846143733
:104A6000BD4680BC704780B483B000AF78600B4611
:104A70007B8013467B707B78002B03D07A887B6821
:104A80001A6103E07B881A047B681A6100BF0C3747
:104A9000BD4680BC704780B485B000AF78600B46DF
:104AA0007B807B68DB68FB607A88FB6813401A04B4
:104AB000FB68D9437B880B401A437B681A6100BFAF
:104AC0001437BD4680BC704780B582B000AF034646
:104AD000FB80084B5A69FB881340002B06D0054A1F
:104AE000FB885361FB881846FEF7A0FC00BF08371F
:104AF000BD4680BD0004014080B584B000AF786041
:104B00007B68002B01D1012336E07B681B684CF6E3
:104B1000CC421A607B681B6845F255521A607B686C
:104B20001B687A6852685A607B681B687A6892686A
:104B30009A60FFF70FFCF86011E0FFF70BFC0246EC
:104B4000FB68D31A41F23C32934208D97B681B6858
:104B5000DB6803F00303002B01D003230CE07B6828
:104B60001B68DB6803F00303002BE6D17B681B683E
:104B70004AF6AA221A60002318461037BD4680BDA7
:104B800080B483B000AF78607B681B684AF6AA22C5
:104B90001A60002318460C37BD4680BC70470000E1
:104BA00080B586B000AF78607B68002B01D101230F
:104BB00072E27B681B6803F00103002B00F0878022
:104BC000924B5B6803F00C03042B0CD08F4B5B689B
:104BD00003F00C03082B12D18C4B5B6803F4803379
:104BE000B3F5803F0BD1894B1B6803F40033002BD6
:104BF0006CD07B685B68002B68D101234CE27B683A
:104C00005B68B3F5803F06D1804B1B687F4A43F455
:104C1000803313602EE07B685B68002B0CD17B4BEC
:104C20001B687A4A23F480331360784B1B68774AF9
:104C300023F4802313601DE07B685B68B3F5A02F2D
:104C40000CD1724B1B68714A43F4802313606F4B85
:104C50001B686E4A43F4803313600BE06B4B1B6898
:104C60006A4A23F480331360684B1B68674A23F455
:104C7000802313607B685B68002B13D0FFF76AFB0F
:104C8000386108E0FFF766FB02463B69D31A642BE4
:104C900001D9032300E25D4B1B6803F40033002BB2
:104CA000F0D014E0FFF756FB386108E0FFF752FB45
:104CB00002463B69D31A642B01D90323ECE1534B21
:104CC0001B6803F40033002BF0D100E000BF7B68C9
:104CD0001B6803F00203002B63D04C4B5B6803F0AE
:104CE0000C03002B0BD0494B5B6803F00C03082B23
:104CF0001CD1464B5B6803F48033002B16D1434B29
:104D00001B6803F00203002B05D07B681B69012B95
:104D100001D00123C0E13D4B1B6823F0F8027B6802
:104D20005B69DB00394913430B603AE07B681B6920
:104D3000002B20D0364B01221A60FFF70BFB3861A5
:104D400008E0FFF707FB02463B69D31A022B01D9A3
:104D50000323A1E12D4B1B6803F00203002BF0D0CD
:104D60002A4B1B6823F0F8027B685B69DB0027494C
:104D700013430B6015E0264B00221A60FFF7EAFA96
:104D8000386108E0FFF7E6FA02463B69D31A022BC6
:104D900001D9032380E11D4B1B6803F00203002BA4
:104DA000F0D17B681B6803F00803002B3AD07B68C6
:104DB0009B69002B19D0174B01221A60FFF7CAFA22
:104DC000386108E0FFF7C6FA02463B69D31A022BA6
:104DD00001D9032360E10D4B5B6A03F00203002B52
:104DE000F0D0012000F0CEFA1CE00A4B00221A603D
:104DF000FFF7B0FA38610FE0FFF7ACFA02463B6903
:104E0000D31A022B08D9032346E100BF0010024049
:104E10000000424280044242924B5B6A03F002036C
:104E2000002BE9D17B681B6803F00403002B00F022
:104E3000A6800023FB758B4BDB6903F08053002BAE
:104E40000DD1884BDB69874A43F08053D361854B92
:104E5000DB6903F08053BB60BB680123FB75824BA9
:104E60001B6803F48073002B18D17F4B1B687E4AAC
:104E700043F480731360FFF76DFA386108E0FFF7C1
:104E800069FA02463B69D31A642B01D9032303E173
:104E9000754B1B6803F48073002BF0D07B68DB68D4
:104EA000012B06D16F4B1B6A6E4A43F0010313625C
:104EB0002DE07B68DB68002B0CD16A4B1B6A694ACA
:104EC00023F001031362674B1B6A664A23F0040355
:104ED00013621CE07B68DB68052B0CD1614B1B6AFD
:104EE000604A43F0040313625E4B1B6A5D4A43F061
:104EF000010313620BE05B4B1B6A5A4A23F0010368
:104F00001362584B1B6A574A23F0040313627B68F1
:104F1000DB68002B15D0FFF71DFA38610AE0FFF7B8
:104F200019FA02463B69D31A41F28832934201D9F9
:104F30000323B1E04B4B1B6A03F00203002BEED0BE
:104F400014E0FFF707FA38610AE0FFF703FA0246B8
:104F50003B69D31A41F28832934201D903239BE083
:104F6000404B1B6A03F00203002BEED1FB7D012BAB
:104F700005D13C4BDB693B4A23F08053D3617B680E
:104F8000DB69002B00F08780364B5B6803F00C0375
:104F9000082B61D07B68DB69022B46D1334B0022A2
:104FA0001A60FFF7D7F9386108E0FFF7D3F9024636
:104FB0003B69D31A022B01D903236DE0294B1B68EF
:104FC00003F00073002BF0D17B681B6AB3F5803FC0
:104FD00008D1244B5B6823F400327B689B6821492D
:104FE00013434B601F4B5B6823F474127B68196A90
:104FF0007B685B6A0B431B4913434B601B4B0122CD
:105000001A60FFF7A7F9386108E0FFF7A3F9024635
:105010003B69D31A022B01D903233DE0114B1B68D6
:1050200003F00073002BF0D035E0104B00221A6023
:10503000FFF790F9386108E0FFF78CF902463B6909
:10504000D31A022B01D9032326E0064B1B6803F079
:105050000073002BF0D11EE07B68DB69012B07D1C8
:10506000012319E00010024000700040600042423D
:105070000B4B5B68FB60FB6803F480327B681B6A48
:105080009A4206D1FB6803F470127B685B6A9A420D
:1050900001D0012300E0002318461837BD4680BD2B
:1050A0000010024080B584B000AF786039607B6842
:1050B000002B01D10123D0E06A4B1B6803F00703EA
:1050C0003A689A4210D9674B1B6823F0070265497A
:1050D0003B6813430B60634B1B6803F007033A689C
:1050E0009A4201D00123B8E07B681B6803F00203F9
:1050F000002B20D07B681B6803F00403002B05D035
:10510000594B5B68584A43F4E06353607B681B6803
:1051100003F00803002B05D0534B5B68524A43F45D
:1051200060535360504B5B6823F0F0027B689B68D0
:105130004D4913434B607B681B6803F00103002B50
:1051400040D07B685B68012B07D1474B1B6803F499
:105150000033002B15D101237FE07B685B68022BB5
:1051600007D1414B1B6803F00073002B09D10123C9
:1051700073E03D4B1B6803F00203002B01D10123B8
:105180006BE0394B5B6823F003027B685B68364950
:1051900013434B60FFF7DEF8F8600AE0FFF7DAF838
:1051A0000246FB68D31A41F28832934201D90323A5
:1051B00053E02D4B5B6803F00C027B685B689B003F
:1051C0009A42EBD1274B1B6803F007033A689A42D7
:1051D00010D2244B1B6823F0070222493B6813437B
:1051E0000B60204B1B6803F007033A689A4201D01A
:1051F000012332E07B681B6803F00403002B08D016
:10520000194B5B6823F4E0627B68DB681649134343
:105210004B607B681B6803F00803002B09D0124B1E
:105220005B6823F460527B681B69DB000E49134303
:105230004B6000F021F802460B4B5B681B0903F042
:105240000F030A49CB5C22FA03F3094A1360094BA6
:105250001B681846FFF73CF8002318461037BD4678
:1052600080BD00BF0020024000100240E89E000800
:10527000040000200800002080B487B000AF0023A5
:10528000FB600023BB6000237B6100237B60002365
:105290003B611E4B5B68FB60FB6803F00C03042B57
:1052A00002D0082B03D027E0194B3B6127E0FB68B5
:1052B0009B0C03F00F03174AD35C7B60FB6803F47D
:1052C0008033002B10D0114B5B685B0C03F00103A3
:1052D000114AD35CBB607B680D4A03FB02F2BB68DA
:1052E000B2FBF3F37B6104E07B680C4A02FB03F33F
:1052F0007B617B693B6102E0054B3B6100BF3B6921
:1053000018461C37BD4680BC704700BF00100240E5
:1053100000127A00009F0008109F000800093D005D
:1053200080B400AF024B1B681846BD4680BC704776
:105330000400002080B500AFFFF7F2FF0246054BE6
:105340005B681B0A03F007030349CB5C22FA03F3F3
:10535000184680BD00100240F89E000880B500AFDE
:10536000FFF7DEFF0246054B5B68DB0A03F007032D
:105370000349CB5C22FA03F3184680BD00100240BB
:10538000F89E000880B485B000AF78600A4B1B68B7
:105390000A4AA2FB03235B0A7A6802FB03F3FB6061
:1053A00000BFFB685A1EFA60002BF9D100BF00BF96
:1053B0001437BD4680BC704704000020D34D6210F6
:1053C00080B582B000AF78607B68002B01D10123EB
:1053D00041E07B6893F83D30DBB2002B06D17B685F
:1053E000002283F83C207868FEF7DAFD7B68022211
:1053F00083F83D207B681A687B68043319461046A1
:1054000000F060FB7B68012283F846207B68012264
:1054100083F83E207B68012283F83F207B680122CD
:1054200083F840207B68012283F841207B680122B9
:1054300083F842207B68012283F843207B680122A5
:1054400083F844207B68012283F845207B68012291
:1054500083F83D20002318460837BD4680BD000074
:1054600080B485B000AF78607B6893F83D30DBB2E4
:10547000012B01D0012332E07B68022283F83D201A
:105480007B681B68184A93420ED07B681B68B3F197
:10549000804F09D07B681B68144A934204D07B6814
:1054A0001B68134A934211D17B681B689B6803F009
:1054B0000703FB60FB68062B10D07B681B681A682B
:1054C0007B681B6842F001021A6007E07B681B687A
:1054D0001A687B681B6842F001021A6000231846B4
:1054E0001437BD4680BC7047002C014000040040CA
:1054F0000008004080B582B000AF78607B68002B68
:1055000001D1012341E07B6893F83D30DBB2002BF1
:1055100006D17B68002283F83C20786800F039F8D7
:105520007B68022283F83D207B681A687B6804331D
:105530001946104600F0C6FA7B68012283F846201F
:105540007B68012283F83E207B68012283F83F209C
:105550007B68012283F840207B68012283F8412088
:105560007B68012283F842207B68012283F8432074
:105570007B68012283F844207B68012283F8452060
:105580007B68012283F83D20002318460837BD467A
:1055900080BD80B483B000AF786000BF0C37BD46DB
:1055A00080BC704780B584B000AF786039603B68DC
:1055B000002B09D17B6893F83E30DBB2012B14BF7E
:1055C00001230023DBB222E03B68042B09D17B6876
:1055D00093F83F30DBB2012B14BF01230023DBB271
:1055E00015E03B68082B09D17B6893F84030DBB2AB
:1055F000012B14BF01230023DBB208E07B6893F882
:105600004130DBB2012B14BF01230023DBB2002B9E
:1056100001D001235EE03B68002B04D17B680222AD
:1056200083F83E2013E03B68042B04D17B68022200
:1056300083F83F200BE03B68082B04D17B680222F3
:1056400083F8402003E07B68022283F841207B68D6
:105650001B6801223968184600F0C0FC7B681B6893
:105660001E4A934207D17B681B685A6C7B681B6893
:1056700042F400425A647B681B68184A93420ED079
:105680007B681B68B3F1804F09D07B681B68144AA4
:10569000934204D07B681B68124A934211D17B6805
:1056A0001B689B6803F00703FB60FB68062B10D0A8
:1056B0007B681B681A687B681B6842F001021A60ED
:1056C00007E07B681B681A687B681B6842F0010270
:1056D0001A60002318461037BD4680BD002C0140DB
:1056E000000400400008004080B582B000AF786040
:1056F00039607B681B6800223968184600F06EFC30
:105700007B681B68294A934217D17B681B681A6A19
:1057100041F211131340002B0FD17B681B681A6AEA
:1057200040F244431340002B07D17B681B685A6C3E
:105730007B681B6822F400425A647B681B681A6A03
:1057400041F211131340002B0FD17B681B681A6ABA
:1057500040F244431340002B07D17B681B681A6852
:105760007B681B6822F001021A603B68002B04D1A1
:105770007B68012283F83E2013E03B68042B04D1B0
:105780007B68012283F83F200BE03B68082B04D1A3
:105790007B68012283F8402003E07B68012283F8C4
:1057A0004120002318460837BD4680BD002C01402B
:1057B00080B586B000AFF860B9607A600023FB75F1
:1057C000FB6893F83C30012B01D10223AEE0FB686B
:1057D000012283F83C207B680C2B00F29F8001A201
:1057E00052F823F0195800081D5900081D590008E7
:1057F0001D590008595800081D5900081D59000876
:105800001D5900089B5800081D5900081D59000823
:105810001D590008DB580008FB681B68B96818466A
:1058200000F0BEF9FB681B689A69FB681B6842F0D0
:1058300008029A61FB681B689A69FB681B6822F082
:1058400004029A61FB681B689969BB681A69FB6866
:105850001B680A439A6164E0FB681B68B9681846D4
:1058600000F004FAFB681B689A69FB681B6842F445
:1058700000629A61FB681B689A69FB681B6822F4E6
:1058800080629A61FB681B689969BB681B691A0290
:10589000FB681B680A439A6143E0FB681B68B968B0
:1058A000184600F04DFAFB681B68DA69FB681B6854
:1058B00042F00802DA61FB681B68DA69FB681B6862
:1058C00022F00402DA61FB681B68D969BB681A69B7
:1058D000FB681B680A43DA6123E0FB681B68B96850
:1058E000184600F097FAFB681B68DA69FB681B68CA
:1058F00042F40062DA61FB681B68DA69FB681B68C6
:1059000022F48062DA61FB681B68D969BB681B6995
:105910001A02FB681B680A43DA6102E00123FB7587
:1059200000BFFB68002283F83C20FB7D1846183737
:10593000BD4680BD80B584B000AF7860396000237B
:10594000FB737B6893F83C30012B01D10223B4E058
:105950007B68012283F83C207B68022283F83D208B
:105960007B681B689B68BB60BB6823F07703BB60E8
:10597000BB6823F47F43BB607B681B68BA689A608E
:105980003B681B68B3F5005F3ED0B3F5005F00F2E3
:105990008780B3F5805F00F08680B3F5805F7FD8A5
:1059A000702B1AD0702B7BD8602B50D0602B77D8FF
:1059B000502B3CD0502B73D8402B58D0402B6FD855
:1059C000302B64D0302B6BD8202B60D0202B67D8A5
:1059D000002B5CD0102B5AD062E07B6818683B68C3
:1059E00099683B685A683B68DB6800F0D8FA7B68C6
:1059F0001B689B68BB60BB6843F07703BB607B6838
:105A00001B68BA689A604FE07B6818683B689968C1
:105A10003B685A683B68DB6800F0C1FA7B681B682A
:105A20009A687B681B6842F480429A603CE07B681D
:105A300018683B6859683B68DB681A4600F038FA1A
:105A40007B681B685021184600F08FFA2CE07B68B9
:105A500018683B6859683B68DB681A4600F056FADC
:105A60007B681B686021184600F07FFA1CE07B68A9
:105A700018683B6859683B68DB681A4600F018FAFA
:105A80007B681B684021184600F06FFA0CE07B68C9
:105A90001A683B681B681946104600F066FA03E076
:105AA0000123FB7300E000BF7B68012283F83D20E7
:105AB0007B68002283F83C20FB7B18461037BD46EC
:105AC00080BD000080B485B000AF786039607B682D
:105AD0001B68FB607B682F4A93420BD07B68B3F155
