:020000040800F2
:100000000050002015140008693C0008713C0008ED
:10001000793C0008813C0008893C00080000000091
:10002000000000000000000000000000913C0008FB
:100030009D3C000800000000A93C0008B53C0008F9
:100040005D1400085D1400085D1400085D140008CC
:100050005D1400085D1400085D1400085D140008BC
:100060005D140008C13C0008CF3C00085D14000886
:100070005D1400085D1400085D1400085D1400089C
:100080005D1400085D1400085D1400085D1400088C
:100090005D1400085D1400085D140008DD3C0008D4
:1000A0005D1400085D1400085D1400085D1400086C
:1000B0005D1400085D1400085D1400085D1400085C
:1000C0005D1400085D1400085D1400085D1400084C
:1000D0005D140008ED3C00085D140008013D0008B7
:1000E0005D1400085D1400085D14000800000000A5
:1000F0000000000000000000000000000000000000
:0C01000000000000000000005FF808F1A3
:1001100010B5054C237833B9044B13B10448AFF341
:1001200000800123237010BDDC01002000000000CE
:10013000A09E000808B5034B1BB103490348AFF369
:10014000008008BD00000000E0010020A09E000823
:10015000034613F8012B002AFBD1181A0138704707
:1001600081F0004102E000BF83F0004330B54FEA68
:1001700041044FEA430594EA050F08BF90EA020FD5
:100180001FBF54EA000C55EA020C7FEA645C7FEA68
:10019000655C00F0E2804FEA5454D4EB5555B8BF8B
:1001A0006D420CDD2C4480EA020281EA030382EAFC
:1001B000000083EA010180EA020281EA0303362D8E
:1001C00088BF30BD11F0004F4FEA01314FF4801C61
:1001D0004CEA113102D0404261EB410113F0004F73
:1001E0004FEA03334CEA133302D0524263EB43032A
:1001F00094EA050F00F0A780A4F10104D5F1200EC8
:100200000DDB02FA0EFC22FA05F2801841F1000122
:1002100003FA0EF2801843FA05F359410EE0A5F1F6
:1002200020050EF1200E012A03FA0EFC28BF4CF027
:10023000020C43FA05F3C01851EBE37101F00045DD
:1002400007D54FF0000EDCF1000C7EEB00006EEBEA
:100250000101B1F5801F1BD3B1F5001F0CD3490874
:100260005FEA30004FEA3C0C04F101044FEA4452CB
:1002700012F5800F80F09A80BCF1004F08BF5FEA52
:10028000500C50F1000041EB045141EA050130BD32
:100290005FEA4C0C404141EB0101013C28BFB1F544
:1002A000801FE9D291F0000F04BF01460020B1FA8F
:1002B00081F308BF2033A3F10B03B3F120020CDA62
:1002C0000C3208DD02F1140CC2F10C0201FA0CF040
:1002D00021FA02F10CE002F11402D8BFC2F1200CA5
:1002E00001FA02F120FA0CFCDCBF41EA0C0190405B
:1002F000E41AA2BF01EB0451294330BD6FEA0404A4
:100300001F3C1CDA0C340EDC04F11404C4F120028E
:1003100020FA04F001FA02F340EA030021FA04F3A0
:1003200045EA030130BDC4F10C04C4F1200220FAF7
:1003300002F001FA04F340EA0300294630BD21FA35
:1003400004F0294630BD94F0000F83F4801306BFFB
:1003500081F480110134013D4EE77FEA645C18BFEF
:100360007FEA655C29D094EA050F08BF90EA020F86
:1003700005D054EA000C04BF1946104630BD91EA7E
:10038000030F1EBF0021002030BD5FEA545C05D181
:100390004000494128BF41F0004130BD14F58004C0
:1003A0003CBF01F5801130BD01F0004545F0FE4134
:1003B00041F470014FF0000030BD7FEA645C1ABF69
:1003C000194610467FEA655C1CBF0B46024650EAA0
:1003D000013406BF52EA033591EA030F41F40021CC
:1003E00030BD00BF90F0000F04BF0021704730B552
:1003F0004FF4806404F132044FF000054FF0000127
:1004000050E700BF90F0000F04BF0021704730B5E7
:100410004FF4806404F1320410F0004548BF4042BC
:100420004FF000013EE700BF42004FEAE2014FEA11
:1004300031014FEA02701FBF12F07F4393F07F4FEC
:1004400081F06051704732F07F4208BF704793F0EF
:100450007F4F04BF41F40021704730B54FF4607402
:1004600001F0004521F000411CE700BF50EA010205
:1004700008BF704730B54FF000050AE050EA0102AE
:1004800008BF704730B511F0004502D5404261EB1E
:1004900041014FF4806404F132045FEA915C3FF45F
:1004A000D8AE4FF003025FEADC0C18BF03325FEAFC
:1004B000DC0C18BF033202EBDC02C2F1200300FAAD
:1004C00003FC20FA02F001FA03FE40EA0E0021FAD2
:1004D00002F11444BDE600BF70B54FF0FF0C4CF4C0
:1004E000E06C1CEA11541DBF1CEA135594EA0C0F72
:1004F00095EA0C0F00F0DEF82C4481EA030621EAAD
:100500004C5123EA4C5350EA013518BF52EA0335E7
:1005100041F4801143F4801338D0A0FB02CE4FF099
:100520000005E1FB02E506F00042E0FB03E54FF0C9
:100530000006E1FB03569CF0000F18BF4EF0010EC1
:10054000A4F1FF04B6F5007F64F5407404D25FEABD
:100550004E0E6D4146EB060642EAC62141EA555170
:100560004FEAC52040EA5E504FEACE2EB4F1FD0CB2
:1005700088BFBCF5E06F1ED8BEF1004F08BF5FEA30
:10058000500E50F1000041EB045170BD06F00046E2
:1005900046EA010140EA020081EA0301B4EB5C048F
:1005A000C2BFD4EB0C0541EA045170BD41F4801187
:1005B0004FF0000E013C00F3AB8014F1360FDEBFAC
:1005C000002001F0004170BDC4F10004203C35DA88
:1005D0000C341BDC04F11404C4F1200500FA05F30B
:1005E00020FA04F001FA05F240EA020001F00042AC
:1005F00021F0004110EBD37021FA04F642EB060122
:100600005EEA430E08BF20EAD37070BDC4F10C044B
:10061000C4F1200500FA04F320FA05F001FA04F20F
:1006200040EA020001F0004110EBD37041F10001FB
:100630005EEA430E08BF20EAD37070BDC4F1200506
:1006400000FA05F24EEA020E20FA04F301FA05F26E
:1006500043EA020321FA04F001F0004121FA04F216
:1006600020EA020000EBD3705EEA430E08BF20EAE6
:10067000D37070BD94F0000F0FD101F00046400020
:1006800041EB010111F4801F08BF013CF7D041EAA2
:10069000060195F0000F18BF704703F000465200A6
:1006A00043EB030313F4801F08BF013DF7D043EA77
:1006B0000603704794EA0C0F0CEA135518BF95EA2D
:1006C0000C0F0CD050EA410618BF52EA4306D1D1B4
:1006D00081EA030101F000414FF0000070BD50EAD3
:1006E000410606BF1046194652EA430619D094EA5D
:1006F0000C0F02D150EA013613D195EA0C0F05D147
:1007000052EA03361CBF104619460AD181EA03019A
:1007100001F0004141F0FE4141F470014FF0000052
:1007200070BD41F0FE4141F4780170BD70B54FF0ED
:10073000FF0C4CF4E06C1CEA11541DBF1CEA13556D
:1007400094EA0C0F95EA0C0F00F0A7F8A4EB05044F
:1007500081EA030E52EA03354FEA013100F0888046
:100760004FEA03334FF0805545EA131343EA12630F
:100770004FEA022245EA111545EA10654FEA0026C4
:100780000EF000419D4208BF964244F1FD0404F57D
:10079000407402D25B084FEA3202B61A65EB0305D9
:1007A0005B084FEA32024FF480104FF4002CB6EB96
:1007B000020E75EB030E22BFB61A754640EA0C0016
:1007C0005B084FEA3202B6EB020E75EB030E22BF56
:1007D000B61A754640EA5C005B084FEA3202B6EB97
:1007E000020E75EB030E22BFB61A754640EA9C0056
:1007F0005B084FEA3202B6EB020E75EB030E22BF26
:10080000B61A754640EADC0055EA060E18D04FEAE3
:10081000051545EA16754FEA06164FEAC30343EA83
:1008200052734FEAC2025FEA1C1CC0D111F4801F50
:100830000BD141EA00014FF000004FF0004CB6E749
:1008400011F4801F04BF01430020B4F1FD0C88BFE8
:10085000BCF5E06F3FF6AFAEB5EB030C04BFB6EBF3
:10086000020C5FEA500C50F1000041EB045170BDE6
:100870000EF0004E4EEA113114EB5C04C2BFD4EB13
:100880000C0541EA045170BD41F480114FF0000E97
:10089000013C90E645EA060E8DE60CEA135594EA13
:1008A0000C0F08BF95EA0C0F3FF43BAF94EA0C0F16
:1008B0000AD150EA01347FF434AF95EA0C0F7FF48B
:1008C00025AF104619462CE795EA0C0F06D152EADF
:1008D00003353FF4FDAE1046194622E750EA4106C3
:1008E00018BF52EA43067FF4C5AE50EA41047FF4D4
:1008F0000DAF52EA43057FF4EBAE12E74FF0FF3C39
:1009000006E000BF4FF0010C02E000BF4FF0010C09
:100910004DF804CD4FEA410C7FEA6C5C4FEA430C82
:1009200018BF7FEA6C5C1BD001B050EA410C0CBFD1
:1009300052EA430C91EA030F02BF90EA020F002033
:10094000704710F1000F91EA030F58BF994208BF9A
:1009500090422CBFD8176FEAE37040F00100704757
:100960004FEA410C7FEA6C5C02D150EA013C07D1AE
:100970004FEA430C7FEA6C5CD6D152EA033CD3D0F9
:100980005DF8040B704700BF8446104662468C46F3
:100990001946634600E000BF01B5FFF7B7FF002826
:1009A00048BF10F1000F01BD4DF808EDFFF7F4FF4F
:1009B0000CBF012000205DF808FB00BF4DF808EDDA
:1009C000FFF7EAFF34BF012000205DF808FB00BFFD
:1009D0004DF808EDFFF7E0FF94BF012000205DF81F
:1009E00008FB00BF4DF808EDFFF7CEFF94BF0120D4
:1009F00000205DF808FB00BF4DF808EDFFF7C4FFCD
:100A000034BF012000205DF808FB00BF4FEA410C15
:100A10007FEA6C5C02D150EA013C0AD14FEA430CF8
:100A20007FEA6C5C02D152EA033C02D14FF0000035
:100A300070474FF0010070474FEA410212F5001273
:100A400015D211D56FF47873B3EB625212D94FEA15
:100A5000C12343F0004343EA505311F0004F23FAFF
:100A600002F018BF404270474FF00000704750EA54
:100A7000013005D111F0004008BF6FF00040704711
:100A80004FF00000704700BF80F0004002E000BF60
:100A900081F0004142001FBF5FEA410392EA030F69
:100AA0007FEA226C7FEA236C6AD04FEA1262D2EBB3
:100AB0001363C1BFD218414048404140B8BF5B42B8
:100AC000192B88BF704710F0004F40F4000020F051
:100AD0007F4018BF404211F0004F41F4000121F067
:100AE0007F4118BF494292EA030F3FD0A2F10102B1
:100AF00041FA03FC10EB0C00C3F1200301FA03F1EF
:100B000000F0004302D5494260EB4000B0F5000F11
:100B100013D3B0F1807F06D340084FEA310102F1D0
:100B20000102FE2A51D2B1F1004F40EBC25008BF82
:100B300020F0010040EA03007047490040EB00004C
:100B4000013A28BFB0F5000FEDD2B0FA80FCACF14D
:100B5000080CB2EB0C0200FA0CF0AABF00EBC2507A
:100B600052421843BCBFD0401843704792F0000F68
:100B700081F4000106BF80F400000132013BB5E7BB
:100B80004FEA41037FEA226C18BF7FEA236C21D031
:100B900092EA030F04D092F0000F08BF0846704796
:100BA00090EA010F1CBF0020704712F07F4F04D164
:100BB000400028BF40F00040704712F100723CBF77
:100BC00000F50000704700F0004343F0FE4040F4A1
:100BD000000070477FEA226216BF08467FEA23635F
:100BE0000146420206BF5FEA412390EA010F40F44A
:100BF000800070474FF0000304E000BF10F0004396
:100C000048BF40425FEA000C08BF704743F096437C
:100C100001464FF000001CE050EA010208BF704797
:100C20004FF000030AE000BF50EA010208BF70471E
:100C300011F0004302D5404261EB41015FEA010C33
:100C400002BF84460146002043F0B64308BFA3F12B
:100C50008053A3F50003BCFA8CF2083AA3EBC2530D
:100C600010DB01FA02FC634400FA02FCC2F120022C
:100C7000BCF1004F20FA02F243EB020008BF20F063
:100C80000100704702F1200201FA02FCC2F12002C9
:100C900050EA4C0021FA02F243EB020008BF20EABE
:100CA000DC7070474FF0FF0C1CEAD0521EBF1CEAEC
:100CB000D15392EA0C0F93EA0C0F6FD01A4480EADA
:100CC000010C400218BF5FEA41211ED04FF00063C3
:100CD00043EA501043EA5111A0FB01310CF00040EF
:100CE000B1F5000F3EBF490041EAD3715B0040EA15
:100CF000010062F17F02FD2A1DD8B3F1004F40EBE5
:100D0000C25008BF20F00100704790F0000F0CF0B7
:100D1000004C08BF49024CEA502040EA51207F3A7B
:100D2000C2BFD2F1FF0340EAC250704740F4000056
:100D30004FF00003013A5DDC12F1190FDCBF00F047
:100D400000407047C2F10002410021FA02F1C2F1F5
:100D5000200200FA02FC5FEA310040F1000053EA91
:100D60004C0308BF20EADC70704792F0000F00F0DF
:100D7000004C02BF400010F4000F013AF9D040EAE5
:100D80000C0093F0000F01F0004C02BF490011F479
:100D9000000F013BF9D041EA0C018FE70CEAD15377
:100DA00092EA0C0F18BF93EA0C0F0AD030F0004CF7
:100DB00018BF31F0004CD8D180EA010000F00040AB
:100DC000704790F0000F17BF90F0004F084691F069
:100DD000000F91F0004F14D092EA0C0F01D14202A3
:100DE0000FD193EA0C0F03D14B0218BF084608D16C
:100DF00080EA010000F0004040F0FE4040F40000B6
:100E0000704740F0FE4040F4400070474FF0FF0C48
:100E10001CEAD0521EBF1CEAD15392EA0C0F93EA8F
:100E20000C0F69D0A2EB030280EA010C49024FEAE1
:100E3000402037D04FF0805343EA111143EA10139A
:100E40000CF000408B4238BF5B0042F17D024FF452
:100E5000000C8B4224BF5B1A40EA0C00B3EB510F2D
:100E600024BFA3EB510340EA5C00B3EB910F24BF16
:100E7000A3EB910340EA9C00B3EBD10F24BFA3EB9B
:100E8000D10340EADC001B0118BF5FEA1C1CE0D163
:100E9000FD2A3FF650AF8B4240EBC25008BF20F016
:100EA000010070470CF0004C4CEA50207F32C2BF6A
:100EB000D2F1FF0340EAC250704740F400004FF007
:100EC0000003013A37E792F0000F00F0004C02BF38
:100ED000400010F4000F013AF9D040EA0C0093F002
:100EE000000F01F0004C02BF490011F4000F013B5C
:100EF000F9D041EA0C0195E70CEAD15392EA0C0FC4
:100F000008D142027FF47DAF93EA0C0F7FF470AFFB
:100F1000084676E793EA0C0F04D14B023FF44CAF3E
:100F200008466EE730F0004C18BF31F0004CCAD1D3
:100F300030F000427FF45CAF31F000437FF43CAF0F
:100F40005FE700BF4FF0FF3C06E000BF4FF0010C31
:100F500002E000BF4FF0010C4DF804CD4FEA400213
:100F60004FEA41037FEA226C18BF7FEA236C11D05D
:100F700001B052EA530C18BF90EA010F58BFB2EB10
:100F8000030088BFC81738BF6FEAE17018BF40F090
:100F9000010070477FEA226C02D15FEA402C05D144
:100FA0007FEA236CE4D15FEA412CE1D05DF8040BC9
:100FB000704700BF844608466146FFE70FB5FFF75C
:100FC000C9FF002848BF10F1000F0FBD4DF808ED14
:100FD000FFF7F4FF0CBF012000205DF808FB00BF05
:100FE0004DF808EDFFF7EAFF34BF012000205DF85F
:100FF00008FB00BF4DF808EDFFF7E0FF94BF0120AC
:1010000000205DF808FB00BF4DF808EDFFF7D2FFA8
:1010100094BF012000205DF808FB00BF4DF808EDEB
:10102000FFF7C8FF34BF012000205DF808FB00BFB8
:101030004FEA4002B2F1FE4F0FD34FF09E03B3EBE5
:1010400012620DD94FEA002343F0004310F0004F25
:1010500023FA02F018BF404270474FF0000070477B
:1010600012F1610F01D1420205D110F0004008BF1A
:101070006FF0004070474FF0000070477BB972B9C5
:101080000029BEBF00204FF0004106E008BF002845
:101090001CBF6FF000414FF0FF3000F0B9B9ADF167
:1010A000080C6DE904CE002909DB002B1ADB00F0E7
:1010B00035F8DDF804E0DDE9022304B07047404272
:1010C00061EB4101002B1BDB00F028F8DDF804E0A8
:1010D000DDE9022304B0404261EB4101524263EB7F
:1010E00043037047524263EB430300F017F8DDF807
:1010F00004E0DDE9022304B0404261EB41017047A6
:10110000524263EB430300F009F8DDF804E0DDE947
:10111000022304B0524263EB430370472DE9F047CA
:10112000089D0F4604468E46002B48D18A4216463B
:1011300061D9B2FA82F24AB1C2F1200301FA02FE89
:1011400020FA03F3964043EA0E0E94404FEA164C01
:10115000BEFBFCF1B7B20CFB11EE01FB07F0230C58
:1011600043EA0E43984209D9F31801F1FF3E80F09B
:10117000ED80984240F2EA80023933441B1AB3FBF7
:10118000FCF00CFB103300FB07F7A4B244EA034465
:10119000A74209D9341900F1FF3380F0D980A74262
:1011A00040F2D6803444023840EA01400021E41B7A
:1011B0001DB10023D440C5E90043BDE8F0878B4250
:1011C00006D90DB1C5E9000100210846BDE8F08748
:1011D000B3FA83F1002947D1BB4202D3824200F225
:1011E0000481841A67EB030201209646002DE4D0A7
:1011F000C5E9004EE1E7002A00F09080B2FA82F2E1
:10120000002A40F0A780881B0121370C1FFA86FEB8
:10121000B0FBF7FC07FB1C00230C43EA00430EFB6A
:101220000CF0984207D9F3180CF1FF3802D298421B
:1012300000F2E080C4461B1AB3FBF7F007FB103343
:101240000EFB00FEA4B244EA0344A64507D93419B4
:1012500000F1FF3302D2A64500F2C9801846A4EB84
:101260000E0440EA0C40A3E7C1F120068B4022FAAD
:1012700006FC4CEA030C27FA06FA4FEA1C49BAFBB3
:10128000F9F88F4020FA06F309FB18AA1FFA8CFE22
:101290003B4300FA01F708FB0EF01C0C44EA0A4439
:1012A000A04202FA01F20BD91CEB040408F1FF3A48
:1012B00080F09980A04240F29680A8F10208644430
:1012C000241A98B2B4FBF9F309FB134403FB0EFE96
:1012D00040EA0444A64508D91CEB040403F1FF309E
:1012E0007FD2A6457DD9023B644443EA0840A4EB83
:1012F0000E04A0FB028E74454346F14661D35ED0D6
:1013000055B1FA1A64EB090404FA06F622FA01F35D
:101310001E43CC40C5E9006400214EE743084FEA74
:10132000510C43EAC1710A0C42EA0C428BB2C40769
:10133000B2FBF6F143EA0243BCFBF6FCB64630468C
:1013400037461F22181A41EA0C4161E7714615E73A
:10135000184629E7C2F1200321FA03F0964024FA47
:1013600003F397403B43370CB0FBF7F807FB18003B
:101370001FFA86FE190C41EA004108FB0EF0884274
:1013800004FA02F43AD9711808F1FF3C01D28842FC
:101390001ED8091AB1FBF7F808FB0EF007FB18116D
:1013A0009BB243EA014383422FD2F31808F1FF3185
:1013B000C8D28342C6D2A8F102013344C2E74745EE
:1013C0009ED2B8EB02036EEB0C0E0138F14697E7A4
:1013D000301A0144A8F1020CB1FBF7F808FB0EF03B
:1013E000DCE7034681E7D0466AE70846FEE6344478
:1013F000023834E7ACF1020C33441CE7091AC44646
:10140000B1FBF7F808FB0EF0C8E741469AE700BFCA
:10141000704700BF02F040FD0B480C490C4A002306
:1014200002E0D458C4500433C4188C42F9D3094A9A
:10143000094C002301E013600432A242FBD306F002
:10144000A1FC00F0D7FA704700000020DC0100206A
:1014500060A40008DC0100200C070020FEE700006B
:1014600080B588B000AF07F1100300221A605A60FF
:101470009A60DA60504B9B694F4A43F010039361C6
:101480004D4B9B6903F01003FB60FB684A4B9B6963
:10149000494A43F020039361474B9B6903F02003C3
:1014A000BB60BB68444B9B69434A43F004039361B0
:1014B000414B9B6903F004037B607B683E4B9B6957
:1014C0003D4A43F0080393613B4B9B6903F00803DB
:1014D0003B603B6800224FF40051384803F0BFFBEB
:1014E00000226021364803F0BAFB002243F20221B9
:1014F000344803F0B4FB4FF400533B6101237B619C
:101500000023BB610223FB6107F1100319462B483E
:1015100003F00AFA60233B6101237B610023BB6176
:101520000223FB6107F110031946254803F0FCF97B
:1015300043F202233B6101237B610023BB61022351
:10154000FB6107F1100319461E4803F0EDF938233B
:101550003B611D4B7B610123BB6107F11003194601
:10156000184803F0E1F94FF480733B6100237B617D
:101570000023BB6107F110031946124803F0D4F9A8
:1015800000220021092003F0E6F8092003F0FFF80B
:10159000002200210A2003F0DEF80A2003F0F7F809
:1015A00000220021172003F0D6F8172003F0EFF8EF
:1015B00000BF2037BD4680BD001002400010014032
:1015C00000080140000C01400000211080B483B0ED
:1015D00000AF0346FB80084B1B6800225A6200BF25
:1015E000054B1B685A6AFB889A42F9D300BF00BFBB
:1015F0000C37BD4680BC7047E404002080B500AFC6
:101600000E4804F029F801224FF400710C4803F051
:1016100026FB0A2002F0A4FF00224FF400710848C4
:1016200003F01DFB0A2002F09BFF064B00221A600C
:10163000054B4FF07E521A6000BF80BDE4040020CD
:10164000000C0140F80100200000002080B584B0AB
:1016500000AF0023FB6002F079FF786008E002F041
:1016600075FF02467B68D31AC82B01D900234BE0D3
:101670004FF48071264803F0DBFA0346012BEED0CD
:101680000023FB7225E001224FF40071204803F093
:10169000E6FA0120FFF79AFFFB685B00FB6000227F
:1016A0004FF400711A4803F0DAFA0120FFF78EFFB9
:1016B0004FF48071164803F0BBFA0346012B02D1A8
:1016C000FB680133FB6097F90B30DBB20133DBB20F
:1016D000FB7297F90B30172BD5DDFB6883F4000301
:1016E000FB6001224FF40071094803F0B8FA0120B1
:1016F000FFF76CFF00224FF40071054803F0AFFACA
:101700000120FFF763FFFB6818461037BD4680BD18
:10171000000C01402DE9B04F86B000AF0346FB80BE
:101720004FF000024FF00003C7E904230023FB81C0
:10173000FB88002B01D1002330E00023BB8117E0A0
:10174000FFF784FFB860BB68002B0ED0BB68DA17C8
:101750001C461546D7E9042312EB040843EB0509A0
:10176000C7E90489FB890133FB81BB890133BB8154
:10177000BA89FB889A42E3D3FB89002B01D100236D
:101780000CE0FB8900229A46934652465B46D7E915
:101790000401FFF773FC02460B4613461846183740
:1017A000BD46BDE8B08F000080B584B000AF0346F1
:1017B000FB80FB881846FFF7ADFFF860FB68002B45
:1017C00001D1032303E0044AFB6813600023184699
:1017D0001037BD4680BD00BFF801002080B584B041
:1017E00000AF78600B467B804FF000017868FFF710
:1017F00001FC0346002B01D0012320E07B88184622
:10180000FFF788FFF860FB68002B01D1032316E087
:101810000D4B1B68FA68D31ABB60BB68002B01D163
:1018200001230CE0B868FFF7E9F903461946786828
:10183000FFF7ECFA03461A46044B1A6000231846D9
:101840001037BD4680BD00BFF80100200000002019
:1018500080B584B000AF78600023FB607B68002B0C
:1018600001D101234CE04FF48071274803F0E0F9E7
:101870000346012B01D1022342E00023FB7222E048
:1018800001224FF40071204803F0E9F90120FFF72D
:101890009DFEFB685B00FB604FF480711A4803F00B
:1018A000C7F90346012B02D1FB680133FB6000221C
:1018B0004FF40071144803F0D2F90120FFF786FEBF
:1018C000FB7A0133FB72FB7A172BD9D901224FF433
:1018D00000710D4803F0C3F90120FFF777FE0022E5
:1018E0004FF40071084803F0BAF90120FFF76EFECB
:1018F000FB6883F40003FB60FA687B681A600023CE
:1019000018461037BD4680BD000C014080B586B03A
:1019100000AF78607B68002B01D1012344E007F120
:101920000C031846FFF794FF0346FB75FB7D022B63
:101930001BD11F4B1B78002B07D11D4B01221A70A6
:1019400002F004FE03461B4A136002F0FFFD02464C
:10195000184B1B68D31AB3F5FA7F04D3144B00223B
:101960001A70032320E002231EE0114B00221A709C
:10197000FB7D002B01D0FB7D16E0FA680E4B1B6847
:10198000D31A3B613869FFF739F902460B4B1B68E4
:1019900019461046FFF786F903461846FFF748FB3D
:1019A00002467B681A60002318461837BD4680BD82
:1019B000FC01002000020020F801002000000020AF
:1019C00080B500AF094B0A4A1A60084B06225A60DC
:1019D000064B40F6FF729A60044803F089F903460B
:1019E000002B01D001F016FF00BF80BD04020020D3
:1019F0000030004080B582B000AF02F04FFD00F033
:101A000011F9FFF72DFD02F04DFA02F0EBFA02F0AA
:101A100075FB02F057FCFFF7D3FF02F07DFC00F0EE
:101A200049F901227449754804F082FD74497548EA
:101A300006F0EAF87348FEF78BFB03469AB24FF0C4
:101A4000FF3370496D4804F0E8FC012302226E491F
:101A50006E4801F035FF0346002B01D001F0DAFE9D
:101A6000002220216A4803F0FAF801224021684848
:101A700003F0F5F8674B00221A70FFF7BFFD002254
:101A80004FF48051604803F0EAF800224FF400510F
:101A90005D4803F0E4F8002001F0E4FA0023FB7154
:101AA0008FE0FA795C4913461B019B1A9B000B449B
:101AB00030331868FA79584913461B019B1A9B006A
:101AC0000B4434331B68194603F068FEFA79524917
:101AD00013461B019B1A9B000B4434331B68002BDD
:101AE00015D1FA794C4913461B019B1A9B000B44F4
:101AF00038331888FA79484913461B019B1A9B0012
:101B00000B4430331B681B6802465A6356E0FA796F
:101B1000414913461B019B1A9B000B4434331B683D
:101B2000042B15D1FA793C4913461B019B1A9B00E3
:101B30000B4438331888FA79374913461B019B1A2E
:101B40009B000B4430331B681A680346936335E0EF
:101B5000FA79314913461B019B1A9B000B4434331D
:101B60001B68082B15D1FA792B4913461B019B1AC8
:101B70009B000B4438331888FA79274913461B0118
:101B80009B1A9B000B4430331B681A680346D363CF
:101B900014E0FA79204913461B019B1A9B000B4461
:101BA00038331888FA791C4913461B019B1A9B008D
:101BB0000B4430331B681A6803461364FB79013306
:101BC000FB71FB79022B7FF66CAF00F025FC134B09
:101BD0001B78DBB2012B04D1104B00221A7001F0EC
:101BE0000DF800F077F90E4803F0C6F80346002B15
:101BF000EBD001F00FFEE8E7110200202C050020D9
:101C0000B89E000898020020000C014074050020D6
:101C100000080140100200206C0300201302002085
:101C20000402002080B590B000AF07F1180328220D
:101C30000021184606F04EF83B1D00221A605A603B
:101C40009A60DA601A610923BB614FF48033FB614B
:101C500000233B620123BB6201233B6302237B63BE
:101C60004FF48033BB634FF4E013FB6307F11803B9
:101C7000184603F091F80346002B01D001F0CAFD8D
:101C80000F237B600223BB600023FB604FF4806363
:101C90003B6100237B613B1D0221184603F0FEFAE5
:101CA0000346002B01D001F0B5FD00BF4037BD4613
:101CB00080BD000080B582B000AF804B01221A7059
:101CC0007E4B4CF250325A607C4B7D4A1A617B4B02
:101CD00008229A82794B7B4A1A63784B00225A6316
:101CE000764B40F2DC521A87744B4FF448725A8795
:101CF000724B022283F83C20704B734A1A646F4B7C
:101D00006F4ADA646D4B1022A3F850206B4B6D4A7A
:101D1000DA666A4B04221A67684B40F2DC52A3F879
:101D20007420664B4FF44872A3F87620634B03226D
:101D300083F87820614B654ADA67604B604AC3F8E4
:101D400088205E4B2022A3F88C205C4B5D4AC3F8B0
:101D5000A8205A4B0822C3F8AC20584B40F2DC5262
:101D6000A3F8B020554B4FF44872A3F8B2200023DB
:101D7000FB7182E0FA79514913461B019B1A9B00C3
:101D80000B4404331968FA794C4813461B019B1A1B
:101D90009B00034404331B684D4A82FB0302D210AC
:101DA000DB179B1AFA791944444813461B019B1A06
:101DB0009B00034408331960FA79404913461B011C
:101DC0009B1A9B000B4404331968FA793B4813466D
:101DD0001B019B1A9B00034404331B683C4A82FB93
:101DE0000302D210DB17D31AFA7919443348134689
:101DF0001B019B1A9B0003440C331960FA792F498D
:101E000013461B019B1A9B000B442A3300221A70B5
:101E1000FA792A4913461B019B1A9B000B442B336A
:101E200000221A70FA79254913461B019B1A9B0060
:101E30000B442C3300221A70FA79204913461B01F7
:101E40009B1A9B000B44163300221A70FA791B4927
:101E500013461B019B1A9B000B44183300221A6087
:101E6000FA79164913461B019B1A9B000B441C333D
:101E700000221A60FB790133FB71FB79022B7FF69C
:101E800079AF02F063FB38600023BB710EE0BA79D2
:101E90003B68A3F10A01094813461B019B1A9B00EA
:101EA00003441C331960BB790133BB71BB79022B2E
:101EB000EDD900BF00BF0837BD4680BD6C030020D0
:101EC000000C01409C040020A0860100F0490200A3
:101ED0006766666680B582B000AFAB4B1B78DBB23D
:101EE000032B00F2FC8101A252F823F00B2300081F
:101EF0000B230008FD1E00080B2300080023FB71C4
:101F000028E0FA7913461B019B1A9B009F4A134451
:101F10003B603B689B7DDBB2002B18D002F016FBC8
:101F200002463B689B699A4211D03B6800229A7531
:101F30003B681A693B689B8A1946104602F078FE96
:101F40000346002B03D1FB79184601F09FFAFB7979
:101F50000133FB71FB79022BD3D98D4B1B78DBB29C
:101F6000062B00F2AC8101A252F823F0891F000871
:101F700011200008CB22000813210008D1210008FD
:101F8000D1210008CB2200088248FFF7BFFC03469E
:101F90003B713B79032B02D03B79012B15D101F02A
:101FA00085F8794B03221A707B4A80217B4805F023
:101FB000F5FD7A48FEF7CCF803469AB24FF0FF33AE
:101FC0007649774804F029FA88E13B79022B00F042
:101FD0007E81704B1B6847F22F52934240F3798108
:101FE000704B00221A70704BFA221A806F4B0A2233
:101FF0001A806F4B0A221A6002F0A8FA03466D4A53
:1020000013606D4B06221A70614B05221A7060E155
:10201000604801F0E1F80346032B76D0032B5EDC29
:10202000012B02D0022B72D059E05A4B1B68184684
:1020300001F0E8F903467B717B79002B1DD07B7999
:1020400019465E4801F076F90346002B15D101F0E0
:102050002DF84D4B03221A70594A80214F4805F044
:102060009DFD4E48FEF774F803469AB24FF0FF33D9
:102070004A494B4804F0D1F94AE0464B1B68514AA3
:102080008021464805F08AFD4448FEF761F8034682
:102090009AB24FF0FF334149414804F0BEF93D4B3D
:1020A0001B68184601F0B6FA3F4B4FF416721A80BF
:1020B0003E4B0A221A803E4B0A221A6002F046FA70
:1020C00003463C4A13603C4B03221A70304B0422F7
:1020D0001A7002F03BFA03463B4A136018E000F026
:1020E000E5FF294B03221A70384A80212B4805F05E
:1020F00055FD2A48FEF72CF803469AB24FF0FF33FD
:102100002649274804F089F902E000BFE6E000BF55
:10211000E4E002F01BFA02462B4B1B68D31AB3F51E
:102120007A7FC0F0D8801B48FFF7F0FB0346BB71F5
:10213000BB79032B02D0BB79012B15D100F0B6FF80
:10214000114B03221A70144A8021144805F026FD11
:102150001248FDF7FDFF03469AB24FF0FF330F49D7
:102160000F4804F05AF9B6E0BB79002B40F0B38079
:10217000084B1B6844F61F62934200F3AC80044B8B
:1021800000221A70A7E000BF100200206C0300209C
:102190000400002018030020C89E000898020020B8
:1021A0002C0500205C0300202403002026030020CF
:1021B000280300202C030020300300208C03002083
:1021C000D89E0008EC9E000820030020F89E00081E
:1021D00002F0BCF902464F4B1B68D21A4E4B1B68EB
:1021E0009A427AD34D4B1A884D4B1B889A4219D28A
:1021F0004B4B1B881A46494B1B88D31A494A1288F5
:10220000934205DC464B1B88184600F02BFF28E064
:10221000424B1A88434B1B8813449BB2184600F06C
:1022200021FF1EE03D4B1A883D4B1B889A4218D96E
:102230003A4B1B881A463A4B1B88D31A394A1288E4
:10224000934205DC364B1B88184600F00BFF08E074
:10225000324B1A88334B1B88D31A9BB2184600F0B6
:1022600001FF02F073F903462A4A13602B4B1A88C8
:102270002B4B1B889A4230D1294B1B88FA2B12D149
:10228000002000F0EFFE284A8021284805F086FC57
:102290002648FDF75DFF03469AB24FF0FF3323490E
:1022A000234804F0BAF8234B1A78234B1A70224BB8
:1022B0001B78DBB2062B10D100F044F80DE000F0E3
:1022C000F5FE1E4B03221A7008E000BF1EE000BF9F
:1022D0001CE000BF1AE000BF18E000BF16E000F0ED
:1022E000E5FE164B03221A70154A80210F4805F0AF
:1022F00055FC0E48FDF72CFF03469AB24FF0FF3312
:102300000A490B4804F089F800E000BF00BF083715
:10231000BD4680BD2C030020280300201E030020A2
:102320002403002026030020049F000898020020B8
:102330002C050020300300200400002010020020A3
:10234000F89E000880B400AF094B1B8801339AB295
:10235000074B1A80064B1B88002B02D1044B01222D
:102360001A80044B01221A7000BFBD4680BC704722
:10237000220400202004002090B583B000AF044662
:10238000084611461A462346FB710346BB710B46AD
:102390007B7113463B71052002F0E2F83B797A79B4
:1023A000B979F87901F0D8FA034618460C37BD46DA
:1023B00090BD000090B583B000AF044608461146BA
:1023C0001A462346FB710346BB710B467B711346CD
:1023D0003B713B797A79B979F879FFF7CDFF0346FC
:1023E000002B0ED009490A4805F00EFC0848FDF7FD
:1023F000AFFE03469AB24FF0FF330549054804F09B
:102400000CF800BF0C37BD4690BD00BF109F000800
:10241000980200202C05002080B582B000AFB54B9B
:102420001B78DBB2002B00F07E83B34B1B78FB7173
:10243000B24B1B78BB71B24B1B787B71B14B1B78D5
:102440003B71AC4B00221A70FB79002B40F06D837E
:102450007B791BB21B021AB23B791BB213431BB22E
:102460007B80BB79752B00F01B83752B00F35483A5
:10247000272B57DC002B40F34F83013B262B00F228
:102480004B8301A252F823F02D250008192B0008D8
:10249000192B0008192B0008192B0008192B00080C
:1024A000192B0008192B0008192B0008192B0008FC
:1024B000192B0008192B0008192B0008192B0008EC
:1024C000192B0008192B0008192B0008192B0008DC
:1024D000192B0008192B0008192B0008192B0008CC
:1024E000192B0008192B0008192B0008192B0008BC
:1024F000192B0008192B0008192B0008192B0008AC
:10250000192B00086125000867260008B32600087B
:10251000C7270008CB2800088B290008BB2A000821
:102520009D250008712B00F0AE82F5E23B797A79A7
:10253000F8798121FFF720FF0346002B00F0F78296
:102540007149724805F060FB7048FDF701FE0346D3
:102550009AB24FF0FF336D496D4803F05EFFE6E23B
:102560006C4B1B78DAB26C4B1B78DBB2F8798021AC
:10257000FFF702FF0346002B00F0DB826749634848
:1025800005F042FB6148FDF7E3FD03469AB24FF0C8
:10259000FF335E495E4803F040FFCAE2604B1B78A0
:1025A000002B20D05F4B1B881B0A9BB2DAB25D4B1D
:1025B0001B88DBB2F8797021FFF7DEFE0346002BA3
:1025C00000F0B982584A8021504805F0E7FA4F4898
:1025D000FDF7BEFD03469AB24FF0FF334B494C481E
:1025E00003F01BFFA7E2514B1B78002B20D0504B70
:1025F0001B881B0A9BB2DAB24D4B1B88DBB2F87901
:102600007421FFF7B9FE0346002B00F09482494A7B
:1026100080213E4805F0C2FA3C48FDF799FD03468B
:102620009AB24FF0FF333949394803F0F6FE82E29F
:10263000F879002300227621FFF79EFE0346002B47
:1026400000F079823C4A8021304805F0A7FA2F48F3
:10265000FDF77EFD03469AB24FF0FF332B492C481D
:1026600003F0DBFE67E27B79002B02D13B79012B83
:1026700006D0BA79F8790123A121FFF79BFE61E228
:10268000244B1B78DBB2002B06D0BA79F8790823EB
:10269000A121FFF78FFE55E21E4B01221A70274B36
:1026A00000221A70BA79F8790023A021FFF782FE80
:1026B00048E201222021224802F0D1FA00224021E2
:1026C0001F4802F0CCFA7B79002B02D13B79012B19
:1026D00038D0BA79F8790123A121FFF76BFE0022E7
:1026E0002021174802F0BBFA01224021144802F0D1
:1026F000B6FA27E247040020490400204A040020DB
:102700004B0400204C040020389F00089802002051
:102710002C05002010020020040000205C9F00080F
:102720002004002022040020849F000824040020AC
:1027300026040020B09F0008DC9F00081C03002036
:1027400000080140A54B1B78DBB2012B10D0BA79F1
:10275000F8790823A121FFF72DFE00222021A048AF
:1027600002F07DFA012240219D4802F078FAE9E169
:102770003220FFF719F80346002B13D0994B0022A3
:102780001A70BA79F8790923A121FFF713FE002204
:102790002021934802F063FA01224021904802F080
:1027A0005EFACFE1BA79F8790023A021FFF702FEA3
:1027B000002220218A4802F052FA00224021884853
:1027C00002F04DFABEE101222021854802F047FACD
:1027D00000224021824802F042FA804B1B78DBB293
:1027E000012B10D0BA79F8790823A121FFF7E2FD77
:1027F000002220217A4802F032FA01224021784852
:1028000002F02DFA9EE1784B1B68002B10D1BA79AB
:10281000F8790A23A121FFF7CDFD0022202170487D
:1028200002F01DFA012240216D4802F018FA89E1F8
:102830007B88002B10D1BA79F8790223A121FFF708
:10284000B9FD00222021664802F009FA0122402148
:10285000634802F004FA75E17B881846FEF7CAF96E
:10286000034662491846FEF71DFA03463221184610
:10287000FEF7B4FF0346002B13D05A4B00221A7008
:10288000BA79F8790923A121FFF794FD00222021CC
:10289000534802F0E4F901224021514802F0DFF9E7
:1028A00050E1504B01221A70BA79F8790023A02127
:1028B000FFF780FD00222021494802F0D0F90022D4
:1028C0004021474802F0CBF93CE17B79002B02D153
:1028D0003B79012B06D9BA79F8790123A121FFF7B9
:1028E00069FD51E03B79002B08D100F0DFFBBA799C
:1028F000F8790023A021FFF75DFD23E1394B1B7818
:10290000002B06D1BA79F8790B23A121FFF752FDEC
:1029100018E1324B1B78DBB2012B0BD02F4B1B780D
:10292000DBB2002B06D0BA79F8790823A121FFF792
:1029300041FD29E001222021294802F090F90022DE
:102940004021274802F08BF9002000F08BFB00218A
:10295000274802F023FF01224FF48051254802F05E
:102960007EF900224FF40051224802F078F91B4B07
:1029700002221A70204B02221A70BA79F8790023C9
:10298000A021FFF717FDDDE0DCE07B79002B02D111
:102990003B79012B06D9BA79F8790123A121FFF7F8
:1029A00009FDCAE00D4B1B78DBB2022B06D0BA79C9
:1029B000F8790823A121FFF7FDFCBEE03B79012B4C
:1029C00038D10D4B1B78DBB2022B17D0BA79F879CE
:1029D0000323A121FFF7EEFCAFE000BF10020020AF
:1029E000000801401C030020F801002000007A4488
:1029F00054040020000C014004000020534B4FF40D
:102A000016721A80524B0A221A80524B0A221A60FE
:102A100001F09CFD0346504A1360504B00221A708F
:102A20004F4B04221A70BA79F8790023A021FFF7DE
:102A3000C1FC82E03B79002B7FD14A4B1B88FA2BEB
:102A400006D8474B02221A70002000F00BFB13E05F
:102A50003E4BFA221A803E4B0A221A803D4B0A2234
:102A60001A6001F073FD03463B4A13603B4B0222A0
:102A70001A703B4B05221A70BA79F8790023A0210D
:102A8000FFF798FC59E0384B1B78002B57D0374B99
:102A90001B887A889A4252D1334B00221A704EE03A
:102AA000334B1B78002B4CD0324B1B887A889A42D0
:102AB00047D12F4B00221A7043E07B79002B02D1C3
:102AC0003B79012B06D0BA79F8790123A121FFF7D0
:102AD00071FC20E0284B1B78DBB2022B04D1204B89
:102AE0001B78DBB2062B06D0BA79F8790823A1212E
:102AF000FFF760FC0FE01C4B00221A701F4B0022F6
:102B00001A70174B01221A70BA79F8790023A021A4
:102B1000FFF750FC16E015E0BA79F8790723A121F8
:102B2000FFF748FC0EE000BF0CE000BF0AE000BF6A
:102B300008E000BF06E000BF04E000BF02E000BF05
:102B400000E000BF0837BD4680BD00BF2403002061
:102B500026030020280300202C030020300300203F
:102B6000040000201E030020200400202204002076
:102B70002404002026040020100200205C03002012
:102B800090B587B004AF154B1B78DBB21C46144BD5
:102B90001B78DBB21846134B1B68134A12681349A3
:102BA000096803910292019300902346104A802104
:102BB000104804F0F3FF78607B68002B0ADD7B6827
:102BC0007F2B07DC7B689AB24FF0FF3309490A4834
:102BD00003F023FC00BF0C37BD4690BD100200205F
:102BE000040000206003002064030020180300207C
:102BF00008A00008980200202C05002080B584B0B1
:102C000002AFBC4B1B78413B132B00F2038201A2A5
:102C100052F823F0652C0008452F0008152D0008F8
:102C2000DF2F000815300008E72D000815300008D8
:102C30001530000815300008153000081530000860
:102C40001530000815300008153000081530000850
:102C5000153000080F300008153000081530000846
:102C60004F2D0008A34B5B78312B38D1A24B1B783A
:102C7000012B40F0D18101222021A04801F0EFFF7B
:102C8000002240219D4801F0EAFF9D4B02221A706C
:102C9000002000F0E7F900219A4802F07FFD0122B0
:102CA0004FF48051984801F0DAFF00224FF40051B0
:102CB000954801F0D4FF954B02221A70944A802166
:102CC000944804F06BFF9348FDF742FA03469AB22A
:102CD0004FF0FF338F49904803F09FFB9CE1854BF9
:102CE0005B78302B40F0988100F0E0F9844B0022B3
:102CF0001A708A4A8021874804F050FF8548FDF702
:102D000027FA03469AB24FF0FF338249824803F014
:102D100084FB81E17A4B1B78DBB2002B40F07E8193
:102D2000774B01221A70744B00221A707C4A802162
:102D3000784804F033FF7748FDF70AFA03469AB261
:102D40004FF0FF337349744803F067FB66E16C4B47
:102D50001B78DBB2012B40F06381002240216748E1
:102D600001F07DFF01222021644801F078FF32202C
:102D7000FEF71AFD0346002B1DD0002220215F48DC
:102D800001F06DFF012240215C4801F068FF5A4BC1
:102D900000221A70634A80215E4804F0FFFE5D48FD
:102DA000FDF7D6F903469AB24FF0FF3359495A4816
:102DB00003F033FB3BE100222021504801F04FFF9C
:102DC000594B1B68594A8021524804F0E7FE51488C
:102DD000FDF7BEF903469AB24FF0FF334D494E4816
:102DE00003F01BFB1CE1464B1B78DBB2012B40F0D0
:102DF00019814D4B1B68002B62D04D4804F020F91F
:102E000078607B68002B40F30D817868FDF7F6FE53
:102E1000034648491846FDF745FF03463B6001223B
:102E20002021364801F01BFF00224021334801F0E9
:102E300016FF32213868FEF7D1FC0346002B21D162
:102E40002D4B01221A70002260212C4801F007FF4F
:102E5000394B1B681846FDF7E7FA02460B46CDE9E9
:102E60000023364A80212B4804F098FE2948FDF7BC
:102E70006FF903469AB24FF0FF332649264803F014
:102E8000CCFACFE0002220211C4801F0E8FE01220C
:102E900040211A4801F0E3FE174B00221A70214A24
:102EA00080211C4804F07AFE1A48FDF751F90346C8
:102EB0009AB24FF0FF331749174803F0AEFAB6E065
:102EC0000F4B00221A7000F0F1F80B4B00221A7021
:102ED0001B4A80210F4804F061FE0E48FDF738F9C7
:102EE00003469AB24FF0FF330A490B4803F095FAB4
:102EF00098E000BF180200201C03002000080140D9
:102F00001002002054040020000C014004000020A6
:102F100020A00008980200202C0500202CA000080A
:102F20003CA00008C89E0008F801002050A000083E
:102F30001902002000007A44000000205CA0000874
:102F40006CA000083C4B5B78312B1FD13B4B1B78AE
:102F5000DBB2022B68D13A4B1B78DBB2022B63D178
:102F6000384B4FF416721A80374B0A221A80374BAF
:102F70000A221A6001F0EAFA0346354A1360354B1B
:102F800000221A702E4B04221A704DE02A4B5B78F7
:102F9000302B49D1294B1B78DBB2022B44D12E4B6D
:102FA0001B88FA2B06D8264B02221A70002000F04C
:102FB00059F839E0234BFA221A80234B0A221A804F
:102FC000224B0A221A6001F0C1FA0346204A13601C
:102FD000204B02221A701A4B05221A7024E0164B5D
:102FE0005B78312B22D1154B1B78DBB2022B1DD124
:102FF000134B1B78DBB2062B18D1184B00221A702A
:103000000F4B01221A70164B00221A700EE0FFF7C8
:10301000B7FD0CE000BF0AE000BF08E000BF06E01B
:1030200000BF04E000BF02E000BF00E000BF00BF3F
:103030000837BD4680BD00BF1802002010020020E6
:103040000400002024030020260300202803002081
:103050002C030020300300201E0300205C0300200E
:103060002004002080B483B000AF0346FB80FB88BF
:10307000B3F57A7F0ED8FB88094AD26A02FB03F3C4
:10308000084AA2FB03239B099AB2054B5A63064ADE
:10309000FB88138000BF0C37BD4680BC704700BF63
:1030A000002C0140D34D62101E03002080B584B077
:1030B00000AF3F4B00221A70002220213D4801F052
:1030C000CEFD012240213B4801F0C9FD0020FFF761
:1030D000C9FF00224FF48051374801F0C0FD0022A3
:1030E0004FF40051344801F0BAFD0021334802F09A
:1030F000F7FB01F02BFAB8600023FB7342E0FA7B88
:1031000013461B019B1A9B002D4A13447B607B686E
:103110005B6B002B06D17B681A8F7B681B6B1B686F
:103120005A631EE07B685B6B042B07D17B68198FA9
:103130007B681B6B1A680B46936312E07B685B6BC2
:10314000082B07D17B68198F7B681B6B1A680B46AD
:10315000D36306E07B68198F7B681B6B1A680B468C
:1031600013647B682033184600F03AF97B6800222C
:103170009A757B6800229A617B68BA68DA61FB7B8A
:103180000133FB73FB7B022BB9D90E4B02221A7061
:103190000D4B00221A700D4B00221A600C4B0022BE
:1031A0001A700C4B00221A7000BF1037BD4680BD4C
:1031B0001002002000080140000C014054040020CF
:1031C0006C030020040000205C0300201803002092
:1031D00020040020240400202DE9B0438AB000AF71
:1031E00078604FF000024FF00003C7E9082307F1B1
:1031F0000C031846FEF78AFB0346BB75BB7D022B0A
:1032000001D1032388E0BB7D002B04D0454B002275
:103210001A70002380E0434B1B781946FB68424A32
:1032200042F821303F4B1B780133DAB23D4B1A7024
:103230003C4B1B78092B01D803236DE03A4B1B68EC
:10324000FB61394B1B68BB610023FB7529E0FB7DEB
:10325000354A52F82330DA171C461546D7E90823B9
:1032600012EB040843EB0509C7E90889FB7D2E4AE8
:1032700052F82330FA699A4204DDFB7D2A4A52F85B
:103280002330FB61FB7D284A52F82330BA699A4209
:1032900004DAFB7D244A52F82330BB61FB7D013305
:1032A000FB75FB7D092BD2D9D7E908014FF00A0243
:1032B0004FF00003FDF7E2FE02460B467B681A6002
:1032C000184B00221A707B681B68002B01D1022367
:1032D00022E0BA69FB69D31A1846FDF78FFC034652
:1032E00012491846FDF7DEFC03461C467B681B6846
:1032F0001846FDF783FC034619462046FDF786FD78
:1033000003463B610A493869FDF788FE0346002BF6
:1033100001D0022300E0012318462837BD46BDE84E
:10332000B08300BF5C030020340300200000C842CB
:103330000000A04080B483B000AF78600B46FB7003
:103340007B681B7B092B01D9002319E07B689B7AE2
:1033500019467B68FA785A547B689B7A0133DAB253
:103360007B689A727B689B7A092B02D97B68002262
:103370009A727B681B7B0133DAB27B681A73012374
:1033800018460C37BD4680BC704780B483B000AF90
:10339000786039607B681B7B002B01D100231AE029
:1033A0007B68DB7A1A467B689A5C3B681A707B689C
:1033B000DB7A0133DAB27B68DA727B68DB7A092B5D
:1033C00002D97B680022DA727B681B7B013BDAB290
:1033D0007B681A73012318460C37BD4680BC7047C2
:1033E00080B483B000AF78607B6800229A727B68FB
:1033F0000022DA727B6800221A7300BF0C37BD46C8
:1034000080BC704780B485B000AF78600023FB7348
:1034100028E0FA7B1A4913461B019B1A9B000B44B8
:1034200008331B687A689A4219DBFA7B1449134601
:103430001B019B1A9B000B440C331B687A689A4251
:103440000DDC104B1B6801330E4A1360FA7B0C49EC
:1034500013461B019B1A9B000B441B780BE0FB7B64
:103460000133FB73FB7B022BD3D9074B1B68013362
:10347000054A1360042318461437BD4680BC7047C4
:103480006C030020600300206403002080B584B03A
:1034900000AF0346FB71FA7913461B019B1A9B0090
:1034A000554A1344FB60FB68203307F10B021146B9
:1034B0001846FFF76AFF0346002B12D1FB681B7802
:1034C0004E4A80214E4804F069FB4D48FCF740FE0F
:1034D00003469AB24FF0FF3349494A4802F09DFF34
:1034E00087E0FB681A78FB7A9A422FD1FB685B6B06
:1034F000002B06D1FB685A8FFB681B6B1B685A6355
:103500001EE0FB685B6B042B07D1FB68598FFB68DF
:103510001B6B1A680B46936312E0FB685B6B082B0E
:1035200007D1FB68598FFB681B6B1A680B46D36386
:1035300006E0FB68598FFB681B6B1A680B46136427
:10354000314B1B680133304A136052E0FB685B6B00
:10355000002B06D1FB681A8FFB681B6B1B685A6334
:103560001EE0FB685B6B042B07D1FB68198FFB68BF
:103570001B6B1A680B46936312E0FB685B6B082BAE
:1035800007D1FB68198FFB681B6B1A680B46D36366
:1035900006E0FB68198FFB681B6B1A680B46136407
:1035A000FB79012B25D8FB795A1C13461B019B1A6A
:1035B0009B002033104A1344FA7A11461846FFF74D
:1035C000B9FE0346002B14D1FFF770FD0F4B032209
:1035D0001A700F4A80210A4804F0E0FA0848FCF704
:1035E000B7FD03469AB24FF0FF330549054802F094
:1035F00014FF1037BD4680BD6C03002080A000087A
:10360000980200202C0500206803002010020020F2
:10361000A4A0000880B485B000AF78607B68002B60
:1036200002DC0023FB6006E07B6832330B4AA2FB1E
:1036300003235B09FB60FB68B3F5803F02D34FF6C1
:10364000FF73FB60FB689AB2054B1A80054B0122A1
:103650001A7000BF1437BD4680BC70471F85EB5100
:10366000260400202404002080B586B000AF034665
:10367000FB801D4B1B78DBB2022B2ED100F066FFC6
:1036800038610023FB7524E0FA7D13461B019B1A69
:103690009B00164A1344FB60FB689B8AFA889A4297
:1036A00014D1FB68DB693A69D31A092B17D9FB6877
:1036B0009B7DDBB2002B12D1FB683A69DA61FB68B3
:1036C00001229A75FB683A699A6108E0FB7D013333
:1036D000FB75FB7D022BD7D902E000BF00E000BFE5
:1036E0001837BD4680BD00BF100200206C030020CB
:1036F00080B584B000AF78607B681B68244A934231
:1037000002D1786800F088F97B681B68214A9342EF
:103710003AD1214B1B78FB73FB7B3A2B06D11F4B15
:1037200001221A701E4B00221A7028E01B4B1B78D6
:10373000DBB2012B23D1FB7B0A2B01D00D2B0DD14A
:10374000174B1B78DBB21A46164B00219954134BCA
:1037500000221A70144B01221A7010E0104B1B78D3
:10376000DBB27E2B0AD80E4B1B78DBB25A1CD1B2CF
:103770000B4A117019460B4AFB7B535400BF0122C0
:1037800005490A4802F0D4FE00BF1037BD4680BD8F
:1037900000480040003801401102002012020020C1
:1037A0001402002018020020130200202C05002023
:1037B00080B582B000AF78607B68002B19D07B6841
:1037C0001B680E4A934203D1786800F0D5F911E0E6
:1037D0007B681B680A4A93420CD10A4B00221A707C
:1037E000094B00221A7001220849094802F0A0FE84
:1037F00000E000BF0837BD4680BD00BF0048004064
:1038000000380140120200201402002011020020A2
:103810002C05002080B582B000AF72B600BF4FF417
:103820000051074801F033FA00237B6003E000BF3A
:103830007B6801337B607B68024A9342F7D9EEE7ED
:10384000001001403F420F0080B485B000AF7860A7
:103850000B46FB700023FB737B68002B01D1002318
:1038600028E00023BB7320E0BB7B7A6813441A78FE
:10387000FB7B5340FB7300237B7310E097F90F3001
:10388000002B06DAFB7B5B00DBB283F00703FB73E4
:1038900002E0FB7B5B00FB737B7B01337B737B7BF9
:1038A000072BEBD9BB7B0133BB73BA7BFB789A4206
:1038B000DAD3FB7B18461437BD4680BC7047000046
:1038C00080B584B000AFF860B96011461A460B4667
:1038D000FB8013467B71FB68002B05D0BB68002B77
:1038E00002D0FB88002B01D1012327E0154AFB6899
:1038F0001360144ABB685360124AFB881381114A53
:103900007B7993720F4B0122DA720F4B00221A70EF
:103910000E4B00221A700E4B00221A70094B5B6886
:10392000084A11890022184601F099F9054B1B68D5
:1039300001220849184602F0FBFD034618461037DD
:10394000BD4680BD28040020450400204604002018
:10395000470400204404002090B585B000AF044621
:10396000084611461A462346FB710346BB710B46B7
:103970007B7113463B71254BDB7A002B07D0234B21
:103980001B68002B03D0214B5B68002B01D1012366
:1039900037E01F4B3A221A701D4AFB7953701B4BBC
:1039A0009A7A1B4B9A701A4ABB79D370184A7B7962
:1039B0001371174A3B79537105211648FFF744FFED
:1039C00003461A46124B9A71114B0D22DA710F4BB6
:1039D0005B680E4A11890122184601F040F90B4B31
:1039E0001868142308220A4902F017FD0346FB73E6
:1039F000064B5B68054A11890022184601F02FF931
:103A0000FB7B18461437BD4690BD00BF280400203C
:103A1000340400203504002080B584B000AF786005
:103A2000494BDB7A002B00F08B807B68002B00F089
:103A30008780454B1B68002B00F082807B681A68EA
:103A4000414B1B681B689A427AD1404B1B78002B74
:103A500015D13F4B1B783A2B6AD13E4B00221A708E
:103A60003C4B1B785A1CD1B23A4A11701A46384B5B
:103A70001978394B9954354B01221A7058E0354B5F
:103A80001B78072B0BD8334B1B785A1CD1B2314A09
:103A900011701A462E4B19782F4B995405E02D4B77
:103AA00000221A70294B00221A702A4B1B78072B10
:103AB0003ED9284B00221A70244B00221A70264B44
:103AC0001B783A2B34D1244BDB790D2B30D10521D7
:103AD0002248FFF7B9FE0346FB731F4B9B79FA7B25
:103AE0009A4225D11C4B5B78BB73174B9B7ABA7BF0
:103AF0009A4202D0BB7BFF2B1AD1194B1B78DBB249
:103B0000002B15D1174ABB7B1370134B9A78164BB9
:103B10001A70114BDA78154B1A700F4B1A79144B37
:103B20001A700D4B5A79134B1A700D4B01221A70F3
:103B3000054B1B6801220649184602F0F9FC00E01B
:103B400000BF1037BD4680BD280400204604002079
:103B500044040020450400203C0400203D040020D3
:103B60004704002048040020490400204A040020A3
:103B70004B0400204C04002080B584B000AF786076
:103B80001C4BDB7A002B31D07B68002B2ED0194BDD
:103B90001B68002B2AD07B681A68164B1B681B68B1
:103BA0009A4223D1144B00221A70144B00221A702F
:103BB0000023FB607B681B681B68FB607B681B68DD
:103BC0005B68FB60FB687B6800225A647B6820228C
:103BD00083F842207B68002283F84020054B1B6855
:103BE00001220749184602F0A3FC00E000BF10378D
:103BF000BD4680BD28040020450400204604002066
:103C00004404002080B485B000AF154B9B69144A72
:103C100043F001039361124B9B6903F00103BB6006
:103C2000BB680F4BDB690E4A43F08053D3610C4BEA
:103C3000DB6903F080537B607B680A4B5B68FB6049
:103C4000FB6823F0E063FB60FB6843F08063FB608C
:103C5000044AFB68536000BF1437BD4680BC704700
:103C6000001002400000014080B400AF00BFFDE73B
:103C700080B400AF00BFFDE780B400AF00BFFDE738
:103C800080B400AF00BFFDE780B400AF00BFFDE728
:103C900080B400AF00BFBD4680BC704780B400AFA9
:103CA00000BFBD4680BC704780B400AF00BFBD46BA
:103CB00080BC704780B500AF00F036FC00BF80BD0F
:103CC00080B500AF082000F0FBFF00BF80BD80B5CD
:103CD00000AF102000F0F4FF00BF80BD80B500AF42
:103CE000202000F0EDFF00BF80BD000080B500AFD8
:103CF000024802F043FC00BF80BD00BF2C0500203D
:103D000080B500AF024802F039FC00BF80BD00BFA3
:103D10007405002080B400AF01231846BD4680BC66
:103D2000704780B582B000AF7860396004F024F845
:103D3000034616221A604FF0FF3318460837BD4677
:103D400080BD80B582B000AF78604FF0FF317868F9
:103D5000FFF7E7FF00BFFDE780B586B000AFF86072
:103D6000B9607A6000237B610AE0AFF3008001460E
:103D7000BB685A1CBA60CAB21A707B6901337B6196
:103D80007A697B689A42F0DB7B6818461837BD4633
:103D900080BD80B586B000AFF860B9607A6000235E
:103DA0007B6109E0BB685A1CBA601B781846AFF308
:103DB00000807B6901337B617A697B689A42F1DB21
:103DC0007B6818461837BD4680BD80B483B000AF0D
:103DD00078604FF0FF3318460C37BD4680BC704703
:103DE00080B483B000AF786039603B684FF4005214
:103DF0005A60002318460C37BD4680BC704780B41B
:103E000083B000AF7860012318460C37BD4680BCF4
:103E1000704780B485B000AFF860B9607A60002365
:103E200018461437BD4680BC7047000080B586B088
:103E300000AF7860144A154BD31A7B617B693B61F4
:103E4000134B1B68002B02D1114B124A1A60104B06
:103E50001A687B6813443A699A4207D203F08CFFD0
:103E600003460C221A604FF0FF3309E0084B1B6831
:103E7000FB60074B1A687B681344054A1360FB68B4
:103E800018461837BD4680BD0050002000040000D1
:103E9000500400201007002080B400AF00BFBD46D2
:103EA00080BC704780B596B000AF07F14803002290
:103EB0001A605A609A60DA6007F1400300221A60C3
:103EC0005A6007F1240300221A605A609A60DA608F
:103ED0001A615A619A613B1D20220021184603F0A5
:103EE000F9FE3E4B3E4A1A603C4B00225A603B4B67
:103EF00000229A60394B40F6E752DA60374B0022D5
:103F00001A61364B00225A61344B00229A613348C1
:103F100001F052FB0346002B01D0FFF77BFC4FF46E
:103F20008053BB6407F1480319462C4801F0FEFD9D
:103F30000346002B01D0FFF76DFC284801F0D6FBAB
:103F40000346002B01D0FFF765FC00233B640023F0
:103F50007B6407F140031946204802F05FF90346ED
:103F6000002B01D0FFF756FC60237B620023BB626D
:103F70000023FB6200233B6300237B630023BB63BE
:103F80000023FB6307F1240300221946134801F0C4
:103F90000BFD0346002B01D0FFF73CFC00237B60A8
:103FA0000023BB600023FB6000233B6100237B6197
:103FB0004FF40053BB6100233B623B1D1946074889
:103FC00002F08AF90346002B01D0FFF723FC0348D7
:103FD00000F026F900BF5837BD4680BD54040020CC
:103FE000002C014080B58EB000AF07F128030022FD
:103FF0001A605A609A60DA6007F1200300221A60A2
:104000005A603B1D00221A605A609A60DA601A6199
:104010005A619A61384B4FF080421A60364B472202
:104020005A60354B00229A60334B44F61F62DA60C7
:10403000314B00221A61304B00229A612E4801F068
:10404000BBFA0346002B01D0FFF7E4FB4FF480538B
:10405000BB6207F128031946274801F067FD0346B4
:10406000002B01D0FFF7D6FB234801F03FFB0346AE
:10407000002B01D0FFF7CEFB00233B6200237B62C5
:1040800007F1200319461C4802F0C8F80346002B2C
:1040900001D0FFF7BFFB60237B600023BB600023E0
:1040A000FB6000237B613B1D00221946124801F092
:1040B0007BFC0346002B01D0FFF7ACFB3B1D042229
:1040C00019460D4801F070FC0346002B01D0FFF7A4
:1040D000A1FB3B1D08221946074801F065FC034679
:1040E000002B01D0FFF796FB034800F099F800BFC2
:1040F0003837BD4680BD00BF9C04002080B586B027
:1041000000AF07F1080300221A605A609A60DA6073
:104110003B4600221A605A601D4B1E4A1A601C4B17
:1041200000225A601A4B00229A60194B4FF6FF7218
:10413000DA60174B00221A61154B00229A6114486D
:1041400001F03AFA0346002B01D0FFF763FB4FF46E
:104150008053BB6007F1080319460D4801F0E6FCE7
:104160000346002B01D0FFF755FB00233B600023E3
:104170007B603B461946064802F050F80346002B88
:1041800001D0FFF747FB00BF1837BD4680BD00BF19
:10419000E40400200004004080B487B000AF7860E1
:1041A0007B681B681B4A93420CD11B4B9B691A4AC4
:1041B00043F400639361184B9B6903F400637B61D4
:1041C0007B6922E07B681B68B3F1804F0CD1124BF6
:1041D000DB69114A43F00103D3610F4BDB6903F044
:1041E00001033B613B6910E07B681B680B4A93420B
:1041F0000BD1094BDB69084A43F00203D361064B3C
:10420000DB6903F00203FB60FB6800BF1C37BD469F
:1042100080BC7047002C01400010024000040040A8
:1042200080B588B000AF786007F1100300221A60F3
:104230005A609A60DA607B681B681F4A934219D102
:104240001E4B9B691D4A43F0040393611B4B9B6902
:1042500003F00403FB60FB684FF480733B610223AF
:104260007B610223FB6107F110031946144800F03B
:104270005BFB1CE07B681B68B3F1804F17D10F4BD1
:104280009B690E4A43F0040393610C4B9B6903F056
:104290000403BB60BB6807233B6102237B610223ED
:1042A000FB6107F110031946054800F03DFB00BF14
:1042B0002037BD4680BD00BF002C014000100240E9
:1042C0000008014080B500AF114B124A1A60104B34
:1042D0004FF4E1325A600E4B00229A600C4B0022E0
:1042E000DA600B4B00221A61094B0C225A61084B11
:1042F00000229A61064B0022DA61054802F03DF87F
:104300000346002B01D0FFF785FA00BF80BD00BF38
:104310002C0500200038014080B500AF114B124A37
:104320001A60104B4FF4E1325A600E4B00229A6033
:104330000C4B0022DA600B4B00221A61094B0C2255
:104340005A61084B00229A61064B0022DA61054847
:1043500002F013F80346002B01D0FFF75BFA00BF11
:1043600080BD00BF740500200048004080B58AB0C1
:1043700000AF786007F1180300221A605A609A6053
:10438000DA607B681B68404A93423AD13F4B9B6995
:104390003E4A43F4804393613C4B9B6903F4804362
:1043A0007B617B69394B9B69384A43F00403936115
:1043B000364B9B6903F004033B613B694FF4007388
:1043C000BB610223FB6103237B6207F118031946DB
:1043D0002F4800F0A9FA4FF48063BB610023FB6112
:1043E00000233B6207F118031946294800F09CFAA4
:1043F00000220021252000F0AEF9252000F0C7F9A9
:104400003EE07B681B68234A934239D11F4BDB692E
:104410001E4A43F48023D3611C4BDB6903F48023E1
:10442000FB60FB68194B9B69184A43F008039361D2
:10443000164B9B6903F00803BB60BB684FF48063B5
:10444000BB610223FB6103237B6207F1180319465A
:10445000114800F069FA4FF40063BB610023FB616F
:1044600000233B6207F1180319460B4800F05CFA81
:1044700000220021272000F06EF9272000F087F9A4
:1044800000BF2837BD4680BD003801400010024003
:104490000008014000480040000C014080B500AF1A
:1044A000084B1B68074A43F010031360032000F019
:1044B00047F90F2000F008F8FFF7A4FB0023184687
:1044C00080BD00BF0020024080B582B000AF7860A0
:1044D000124B1A68124B1B7819464FF47A73B3FBD0
:1044E000F1F3B2FBF3F3184600F05FF90346002B3B
:1044F00001D001230EE07B680F2B0AD800227968D7
:104500004FF0FF3000F027F9064A7B681360002364
:1045100000E0012318460837BD4680BD0800002092
:10452000100000200C00002080B400AF054B1B7869
:104530001A46054B1B681344034A136000BFBD466F
:1045400080BC704710000020BC05002080B400AF84
:10455000024B1B681846BD4680BC7047BC05002056
:1045600080B584B000AF7860FFF7F0FFB8607B687B
:10457000FB60FB68B3F1FF3F05D00A4B1B781A467E
:10458000FB681344FB6000BFFFF7E0FF0246BB6817
:10459000D31AFA689A42F7D800BF00BF1037BD4659
:1045A00080BD00BF1000002080B485B000AF7860EF
:1045B0007B6803F00703FB600C4BDB68BB60BA68E9
:1045C0004FF6FF031340BB60FB681A02BB6813433E
:1045D00043F0BF6343F40033BB60044ABB68D3605D
:1045E00000BF1437BD4680BC704700BF00ED00E03F
:1045F00080B400AF044BDB681B0A03F007031846C6
:10460000BD4680BC704700BF00ED00E080B483B0C1
:1046100000AF0346FB7197F90730002B0BDBFB79EA
:1046200003F01F02064997F907305B09012000FAE1
:1046300002F241F8232000BF0C37BD4680BC704712
:1046400000E100E080B483B000AF03463960FB7145
:1046500097F90730002B0ADB3B68DAB20C4997F96F
:1046600007301201D2B20B4483F800230AE03B6802
:10467000DAB20849FB7903F00F03043B1201D2B20E
:104680000B441A7600BF0C37BD4680BC704700BF94
:1046900000E100E000ED00E080B489B000AFF86018
:1046A000B9607A60FB6803F00703FB61FB69C3F143
:1046B0000703042B28BF0423BB61FB690433062BCB
:1046C00002D9FB69033B00E000237B614FF0FF321E
:1046D000BB6902FA03F3DA43BB681A407B699A406C
:1046E0004FF0FF317B6901FA03F3D9437B680B403C
:1046F000134318462437BD4680BC704780B582B04E
:1047000000AF78607B68013BB3F1807F01D3012368
:104710000FE00A4A7B68013B53600F214FF0FF30E6
:10472000FFF790FF054B00229A60044B07221A60A6
:10473000002318460837BD4680BD00BF10E000E0EA
:1047400080B582B000AF78607868FFF72DFF00BFBA
:104750000837BD4680BD80B586B000AF0346B9605E
:104760007A60FB7300237B61FFF742FF78617A6810
:10477000B9687869FFF790FF024697F90F30114644
:104780001846FFF75FFF00BF1837BD4680BD80B5F4
:1047900082B000AF0346FB7197F907301846FFF768
:1047A00035FF00BF0837BD4680BD80B582B000AF81
:1047B00078607868FFF7A2FF034618460837BD46C1
:1047C00080BD80B485B000AF78600023FB737B6848
:1047D00093F82130DBB2022B08D07B6804229A6365
:1047E0007B68002283F82020012320E07B681B687F
:1047F0001A687B681B6822F00E021A607B681B68CF
:104800001A687B681B6822F001021A607B681A6CC8
:104810007B68DB6B012101FA02F25A607B6801229E
:1048200083F821207B68002283F82020FB7B184638
:104830001437BD4680BC704780B584B000AF786047
:104840000023FB737B6893F82130DBB2022B05D089
:104850007B6804229A630123FB7351E07B681B6829
:104860001A687B681B6822F00E021A607B681B685E
:104870001A687B681B6822F001021A607B681B685B
:10488000224A934229D07B681B68214A934222D056
:104890007B681B681F4A93421AD07B681B681E4ABC
:1048A000934212D07B681B681C4A93420AD07B68F3
:1048B0001B681B4A934202D14FF480130EE04FF065
:1048C00080730BE04FF4803308E04FF4805305E031
:1048D0004FF4807302E0102300E00123114A53607B
:1048E0007B68012283F821207B68002283F8202046
:1048F0007B685B6B002B03D07B685B6B78689847A9
:10490000FB7B18461037BD4680BD00BF0800024043
:104910001C000240300002404400024058000240A7
:104920006C0002400000024080B48BB000AF7860A1
:10493000396000237B6200233B6269E101227B6ACC
:1049400002FA03F3FB613B681B68FA691340BB6121
:10495000BA69FB699A4240F058813B685B689A4AA1
:1049600093425ED0984A934275D8984A934258D061
:10497000964A93426FD8964A934252D0944A9342B1
:1049800069D8944A93424CD0924A934263D8924A4F
:10499000934246D0904A93425DD8122B2AD8122BCC
:1049A00059D801A252F823F0234A0008FD49000813
:1049B0000F4A0008514A0008574A0008574A0008A1
:1049C000574A0008574A0008574A0008574A000843
:1049D000574A0008574A0008574A0008574A000833
:1049E000574A0008574A0008574A0008054A000875
:1049F000194A0008794A934213D02CE03B68DB68DF
:104A00003B6229E03B68DB6804333B6224E03B689F
:104A1000DB6808333B621FE03B68DB680C333B62BA
:104A20001AE03B689B68002B02D104233B6213E031
:104A30003B689B68012B05D108233B627B68FA69C0
:104A40001A6109E008233B627B68FA695A6103E056
:104A500000233B6200E000BFBB69FF2B01D87B68ED
:104A600001E07B6804337B61BB69FF2B02D87B6A62
:104A70009B0002E07B6A083B9B003B617B691A68F4
:104A80000F213B6901FA03F3DB431A40396A3B69A2
:104A900001FA03F31A437B691A603B685B6803F011
:104AA0008053002B00F0B1804D4B9B694C4A43F082
:104AB000010393614A4B9B6903F00103BB60BB6830
:104AC000484A7B6A9B08023352F82330FB607B6ABA
:104AD00003F003039B000F2202FA03F3DB43FA689F
:104AE0001340FB607B68404A934213D07B683F4A87
:104AF00093420DD07B683E4A934207D07B683D4A83
:104B0000934201D1032306E0042304E0022302E0E0
:104B1000012300E000237A6A02F00302920093402E
:104B2000FA681343FB602F497B6A9B080233FA68DB
:104B300041F823203B685B6803F48013002B06D008
:104B40002D4B9A682C49BB6913438B6006E02A4BB6
:104B50009A68BB69DB43284913408B603B685B68FC
:104B600003F40013002B06D0234BDA682249BB69FB
:104B70001343CB6006E0204BDA68BB69DB431E4978
:104B80001340CB603B685B6803F40033002B06D016
:104B9000194B5A681849BB6913434B6006E0164B22
:104BA0005A68BB69DB43144913404B603B685B6840
:104BB00003F48033002B21D00F4B1A680E49BB69D8
:104BC00013430B6021E000BF0000321000003110E1
:104BD000000022100000211000001210000011102F
:104BE000001002400000014000080140000C01409C
:104BF0000010014000140140000401400B4B1A68F2
:104C0000BB69DB43094913400B607B6A01337B625C
:104C10003B681A687B6A22FA03F3002B7FF48EAE9E
:104C200000BF00BF2C37BD4680BC70470004014068
:104C300080B485B000AF78600B467B807B689A6853
:104C40007B881340002B02D00123FB7301E000237B
:104C5000FB73FB7B18461437BD4680BC704780B49D
:104C600083B000AF78600B467B8013467B707B7807
:104C7000002B03D07A887B681A6103E07B881A04D2
:104C80007B681A6100BF0C37BD4680BC704780B49A
:104C900085B000AF78600B467B807B68DB68FB608B
:104CA0007A88FB6813401A04FB68D9437B880B4061
:104CB0001A437B681A6100BF1437BD4680BC704739
:104CC00080B582B000AF0346FB80084B5A69FB8871
:104CD0001340002B06D0054AFB885361FB88184619
:104CE000FEF7C2FC00BF0837BD4680BD000401408E
:104CF00080B584B000AF78607B68002B01D10123C0
:104D000036E07B681B684CF6CC421A607B681B68F7
:104D100045F255521A607B681B687A6852685A607F
:104D20007B681B687A6892689A60FFF70FFCF860EE
:104D300011E0FFF70BFC0246FB68D31A41F23C324C
:104D4000934208D97B681B68DB6803F00303002BE0
:104D500001D003230CE07B681B68DB6803F00303CE
:104D6000002BE6D17B681B684AF6AA221A60002352
:104D700018461037BD4680BD80B483B000AF786060
:104D80007B681B684AF6AA221A60002318460C3773
:104D9000BD4680BC7047000080B586B000AF78602B
:104DA0007B68002B01D1012372E27B681B6803F052
:104DB0000103002B00F08780924B5B6803F00C032B
:104DC000042B0CD08F4B5B6803F00C03082B12D123
:104DD0008C4B5B6803F48033B3F5803F0BD1894B78
:104DE0001B6803F40033002B6CD07B685B68002BDE
:104DF00068D101234CE27B685B68B3F5803F06D144
:104E0000804B1B687F4A43F4803313602EE07B683D
:104E10005B68002B0CD17B4B1B687A4A23F48033F0
:104E20001360784B1B68774A23F4802313601DE0DE
:104E30007B685B68B3F5A02F0CD1724B1B68714A7D
:104E400043F4802313606F4B1B686E4A43F4803336
:104E500013600BE06B4B1B686A4A23F480331360CA
:104E6000684B1B68674A23F4802313607B685B6888
:104E7000002B13D0FFF76AFB386108E0FFF766FBF1
:104E800002463B69D31A642B01D9032300E25D4B30
:104E90001B6803F40033002BF0D014E0FFF756FB3F
:104EA000386108E0FFF752FB02463B69D31A642BD6
:104EB00001D90323ECE1534B1B6803F40033002BAF
:104EC000F0D100E000BF7B681B6803F00203002BF9
:104ED00063D04C4B5B6803F00C03002B0BD0494BA9
:104EE0005B6803F00C03082B1CD1464B5B6803F492
:104EF0008033002B16D1434B1B6803F00203002BB9
:104F000005D07B681B69012B01D00123C0E13D4B1B
:104F10001B6823F0F8027B685B69DB0039491343A7
:104F20000B603AE07B681B69002B20D0364B0122D6
:104F30001A60FFF70BFB386108E0FFF707FB02463A
:104F40003B69D31A022B01D90323A1E12D4B1B6826
:104F500003F00203002BF0D02A4B1B6823F0F80269
:104F60007B685B69DB00274913430B6015E0264B28
:104F700000221A60FFF7EAFA386108E0FFF7E6FA64
:104F800002463B69D31A022B01D9032380E11D4B52
:104F90001B6803F00203002BF0D17B681B6803F051
:104FA0000803002B3AD07B689B69002B19D0174B64
:104FB00001221A60FFF7CAFA386108E0FFF7C6FA63
:104FC00002463B69D31A022B01D9032360E10D4B42
:104FD0005B6A03F00203002BF0D0012000F0CEFA50
:104FE0001CE00A4B00221A60FFF7B0FA38610FE0AC
:104FF000FFF7ACFA02463B69D31A022B08D9032308
:1050000046E100BF001002400000424280044242DC
:10501000924B5B6A03F00203002BE9D17B681B68AB
:1050200003F00403002B00F0A6800023FB758B4BDC
:10503000DB6903F08053002B0DD1884BDB69874A75
:1050400043F08053D361854BDB6903F08053BB6031
:10505000BB680123FB75824B1B6803F48073002B34
:1050600018D17F4B1B687E4A43F480731360FFF7AF
:105070006DFA386108E0FFF769FA02463B69D31A16
:10508000642B01D9032303E1754B1B6803F4807380
:10509000002BF0D07B68DB68012B06D16F4B1B6ABD
:1050A0006E4A43F0010313622DE07B68DB68002B3E
:1050B0000CD16A4B1B6A694A23F001031362674BE8
:1050C0001B6A664A23F0040313621CE07B68DB68FA
:1050D000052B0CD1614B1B6A604A43F00403136239
:1050E0005E4B1B6A5D4A43F0010313620BE05B4BAE
:1050F0001B6A5A4A23F001031362584B1B6A574A32
:1051000023F0040313627B68DB68002B15D0FFF7E4
:105110001DFA38610AE0FFF719FA02463B69D31A13
:1051200041F28832934201D90323B1E04B4B1B6A11
:1051300003F00203002BEED014E0FFF707FA38610A
:105140000AE0FFF703FA02463B69D31A41F28832BC
:10515000934201D903239BE0404B1B6A03F00203F7
:10516000002BEED1FB7D012B05D13C4BDB693B4A8B
:1051700023F08053D3617B68DB69002B00F08780CC
:10518000364B5B6803F00C03082B61D07B68DB694E
:10519000022B46D1334B00221A60FFF7D7F9386152
:1051A00008E0FFF7D3F902463B69D31A022B01D975
:1051B00003236DE0294B1B6803F00073002BF0D133
:1051C0007B681B6AB3F5803F08D1244B5B6823F4EE
:1051D00000327B689B68214913434B601F4B5B681F
:1051E00023F474127B68196A7B685B6A0B431B4962
:1051F00013434B601B4B01221A60FFF7A7F938617C
:1052000008E0FFF7A3F902463B69D31A022B01D944
:1052100003233DE0114B1B6803F00073002BF0D01B
:1052200035E0104B00221A60FFF790F9386108E072
:10523000FFF78CF902463B69D31A022B01D90323ED
:1052400026E0064B1B6803F00073002BF0D11EE034
:105250007B68DB69012B07D1012319E000100240B4
:1052600000700040600042420B4B5B68FB60FB68D3
:1052700003F480327B681B6A9A4206D1FB6803F410
:1052800070127B685B6A9A4201D0012300E0002320
:1052900018461837BD4680BD0010024080B584B066
:1052A00000AF786039607B68002B01D10123D0E02A
:1052B0006A4B1B6803F007033A689A4210D9674BA0
:1052C0001B6823F0070265493B6813430B60634B7F
:1052D0001B6803F007033A689A4201D00123B8E043
:1052E0007B681B6803F00203002B20D07B681B68DF
:1052F00003F00403002B05D0594B5B68584A43F474
:10530000E06353607B681B6803F00803002B05D043
:10531000534B5B68524A43F460535360504B5B6895
:1053200023F0F0027B689B684D4913434B607B6818
:105330001B6803F00103002B40D07B685B68012BE6
:1053400007D1474B1B6803F40033002B15D1012311
:105350007FE07B685B68022B07D1414B1B6803F041
:105360000073002B09D1012373E03D4B1B6803F050
:105370000203002B01D101236BE0394B5B6823F062
:1053800003027B685B68364913434B60FFF7DEF826
:10539000F8600AE0FFF7DAF80246FB68D31A41F238
:1053A0008832934201D9032353E02D4B5B6803F00D
:1053B0000C027B685B689B009A42EBD1274B1B6811
:1053C00003F007033A689A4210D2244B1B6823F07B
:1053D000070222493B6813430B60204B1B6803F014
:1053E00007033A689A4201D0012332E07B681B68C8
:1053F00003F00403002B08D0194B5B6823F4E06230
:105400007B68DB68164913434B607B681B6803F0BD
:105410000803002B09D0124B5B6823F460527B68B1
:105420001B69DB000E4913434B6000F021F8024674
:105430000B4B5B681B0903F00F030A49CB5C22FA94
:1054400003F3094A1360094B1B681846FFF73CF841
:10545000002318461037BD4680BD00BF0020024023
:1054600000100240B8A00008080000200C00002036
:1054700080B487B000AF0023FB600023BB60002333
:105480007B6100237B6000233B611E4B5B68FB60FC
:10549000FB6803F00C03042B02D0082B03D027E099
:1054A000194B3B6127E0FB689B0C03F00F03174A85
:1054B000D35C7B60FB6803F48033002B10D0114B6E
:1054C0005B685B0C03F00103114AD35CBB607B6833
:1054D0000D4A03FB02F2BB68B2FBF3F37B6104E00D
:1054E0007B680C4A02FB03F37B617B693B6102E052
:1054F000054B3B6100BF3B6918461C37BD4680BC6D
:10550000704700BF0010024000127A00D0A00008CF
:10551000E0A0000800093D0080B400AF024B1B680A
:105520001846BD4680BC70470800002080B500AF1B
:10553000FFF7F2FF0246054B5B681B0A03F0070307
:105540000349CB5C22FA03F3184680BD00100240E9
:10555000C8A0000880B500AFFFF7DEFF0246054B8C
:105560005B68DB0A03F007030349CB5C22FA03F311
:10557000184680BD00100240C8A0000880B485B065
:1055800000AF78600A4B1B680A4AA2FB03235B0A40
:105590007A6802FB03F3FB6000BFFB685A1EFA60E7
:1055A000002BF9D100BF00BF1437BD4680BC704747
:1055B00008000020D34D621080B582B000AF786043
:1055C0007B68002B01D1012341E07B6893F83D30DB
:1055D000DBB2002B06D17B68002283F83C20786880
:1055E000FEF7DAFD7B68022283F83D207B681A68AB
:1055F0007B6804331946104600F060FB7B6801228B
:1056000083F846207B68012283F83E207B680122D4
:1056100083F83F207B68012283F840207B680122C9
:1056200083F841207B68012283F842207B680122B5
:1056300083F843207B68012283F844207B680122A1
:1056400083F845207B68012283F83D20002318461B
:105650000837BD4680BD000080B485B000AF7860DB
:105660007B6893F83D30DBB2012B01D0012332E09F
:105670007B68022283F83D207B681B68184A9342AE
:105680000ED07B681B68B3F1804F09D07B681B6824
:10569000144A934204D07B681B68134A934211D189
:1056A0007B681B689B6803F00703FB60FB68062BA5
:1056B00010D07B681B681A687B681B6842F0010287
:1056C0001A6007E07B681B681A687B681B6842F0F9
:1056D00001021A60002318461437BD4680BC70478B
:1056E000002C0140000400400008004080B582B05A
:1056F00000AF78607B68002B01D1012341E07B681B
:1057000093F83D30DBB2002B06D17B68002283F892
:105710003C20786800F039F87B68022283F83D204D
:105720007B681A687B6804331946104600F0C6FA95
:105730007B68012283F846207B68012283F83E20A3
:105740007B68012283F83F207B68012283F8402098
:105750007B68012283F841207B68012283F8422084
:105760007B68012283F843207B68012283F8442070
:105770007B68012283F845207B68012283F83D2065
:10578000002318460837BD4680BD80B483B000AF03
:10579000786000BF0C37BD4680BC704780B584B0D0
:1057A00000AF786039603B68002B09D17B6893F8C3
:1057B0003E30DBB2012B14BF01230023DBB222E019
:1057C0003B68042B09D17B6893F83F30DBB2012B97
:1057D00014BF01230023DBB215E03B68082B09D17D
:1057E0007B6893F84030DBB2012B14BF0123002308
:1057F000DBB208E07B6893F84130DBB2012B14BFC9
:1058000001230023DBB2002B01D001235EE03B68C3
:10581000002B04D17B68022283F83E2013E03B6812
:10582000042B04D17B68022283F83F200BE03B6805
:10583000082B04D17B68022283F8402003E07B68B8
:10584000022283F841207B681B68012239681846D0
:1058500000F0C0FC7B681B681E4A934207D17B683E
:105860001B685A6C7B681B6842F400425A647B6870
:105870001B68184A93420ED07B681B68B3F1804FB7
:1058800009D07B681B68144A934204D07B681B686C
:10589000124A934211D17B681B689B6803F007038F
:1058A000FB60FB68062B10D07B681B681A687B685E
:1058B0001B6842F001021A6007E07B681B681A68E7
:1058C0007B681B6842F001021A60002318461037FB
:1058D000BD4680BD002C014000040040000800408F
:1058E00080B582B000AF786039607B681B680022A9
:1058F0003968184600F06EFC7B681B68294A9342A1
:1059000017D17B681B681A6A41F211131340002BF0
:105910000FD17B681B681A6A40F244431340002B86
:1059200007D17B681B685A6C7B681B6822F40042B5
:105930005A647B681B681A6A41F211131340002BEA
:105940000FD17B681B681A6A40F244431340002B56
:1059500007D17B681B681A687B681B6822F001020C
:105960001A603B68002B04D17B68012283F83E203B
:1059700013E03B68042B04D17B68012283F83F20AD
:105980000BE03B68082B04D17B68012283F84020A0
:1059900003E07B68012283F8412000231846083782
:1059A000BD4680BD002C014080B586B000AFF860D8
:1059B000B9607A600023FB75FB6893F83C30012BDB
:1059C00001D10223AEE0FB68012283F83C207B6812
:1059D0000C2B00F29F8001A252F823F0115A00080C
:1059E000155B0008155B0008155B0008515A00089C
:1059F000155B0008155B0008155B0008935A00084A
:105A0000155B0008155B0008155B0008D35A0008F9
:105A1000FB681B68B968184600F0BEF9FB681B6894
:105A20009A69FB681B6842F008029A61FB681B6870
:105A30009A69FB681B6822F004029A61FB681B6884
:105A40009969BB681A69FB681B680A439A6164E03C
:105A5000FB681B68B968184600F004FAFB681B680D
:105A60009A69FB681B6842F400629A61FB681B68D4
:105A70009A69FB681B6822F480629A61FB681B6864
:105A80009969BB681B691A02FB681B680A439A6123
:105A900043E0FB681B68B968184600F04DFAFB68E4
:105AA0001B68DA69FB681B6842F00802DA61FB6870
:105AB0001B68DA69FB681B6822F00402DA61FB6884
:105AC0001B68D969BB681A69FB681B680A43DA61FD
:105AD00023E0FB681B68B968184600F097FAFB687A
